:100000000C94C6030C94EE030C94EE030C94EE03D4
:100010000C94EE030C94EE030C94EE030C94EE039C
:100020000C94EE030C94EE030C94050D0C94740DDB
:100030000C94EE030C94EE030C94EE030C94EE037C
:100040000C94EE030C94EE030C94EE030C94EE036C
:100050000C94EE030C94EE030C94EE030C94A60F98
:100060000C94EE030C94EE030C94EE030C94EE034C
:100070000C94EE030C94EE030C94EE030C94EE033C
:100080000C94F00F0C94EE030C94EE030C94EE031E
:100090000C94EE030C94EE030C94EE030C94EE031C
:1000A0000C94EE030C94EE030C94EE03000000009D
:1000B000003E5B4F5B3E3E6B4F6B3E1C3E7C3E1CEE
:1000C000183C7E3C181C577D571C1C5E7F5E1C0034
:1000D000183C1800FFE7C3E7FF0018241800FFE7EB
:1000E000DBE7FF30483A060E2629792926407F05AE
:1000F0000507407F05253F5A3CE73C5A7F3E1C1CC4
:1001000008081C1C3E7F14227F22145F5F005F5F83
:1001100006097F017F006689956A6060606060946F
:10012000A2FFA29408047E040810207E2010080874
:100130002A1C08081C2A08081E101010100C1E0C7F
:100140001E0C30383E3830060E3E0E060000000011
:100150000000005F00000007000700147F147F14F8
:10016000242A7F2A1223130864623649562050003D
:1001700008070300001C2241000041221C002A1C29
:100180007F1C2A08083E0808008070300008080814
:100190000808000060600020100804023E51494534
:1001A0003E00427F400072494949462141494D3352
:1001B0001814127F1027454545393C4A49493141B9
:1001C000211109073649494936464949291E000087
:1001D00014000000403400000008142241141414DC
:1001E0001414004122140802015909063E415D59C8
:1001F0004E7C1211127C7F494949363E41414122D1
:100200007F4141413E7F494949417F090909013EFA
:10021000414151737F0808087F00417F4100204021
:10022000413F017F081422417F404040407F021C33
:10023000027F7F0408107F3E4141413E7F0909094A
:10024000063E4151215E7F09192946264949493216
:1002500003017F01033F4040403F1F2040201F3FDC
:100260004038403F63140814630304780403615961
:10027000494D43007F4141410204081020004141A3
:10028000417F04020102044040404040000307084F
:100290000020545478407F2844443838444444284B
:1002A000384444287F385454541800087E090218F2
:1002B000A4A49C787F0804047800447D400020407A
:1002C000403D007F1028440000417F40007C0478BE
:1002D00004787C080404783844444438FC18242406
:1002E0001818242418FC7C08040408485454542486
:1002F00004043F44243C4040207C1C2040201C3C03
:100300004030403C44281028444C9090907C4464F9
:10031000544C44000836410000007700000041368C
:10032000080002010204023C2623263C1EA1A16112
:10033000123A4040207A3854545559215555794144
:100340002154547841215554784020545579400C1B
:100350001E527212395555555939545454593955FC
:100360005454580000457C410002457D420001453F
:100370007C40F0292429F0F0282528F07C545545AC
:10038000002054547C547C0A097F4932494949323F
:100390003248484832324A4848303A4141217A3A54
:1003A00042402078009DA0A07D39444444393D401E
:1003B00040403D3C24FF2424487E4943662B2FFCCB
:1003C0002F2BFF0929F620C0887E09032054547979
:1003D000410000447D413048484A32384040227A4A
:1003E000007A0A0A727D0D19317D2629292F2826C7
:1003F0002929292630484D402038080808080808CF
:100400000808382F10C8ACBA2F102834FA00007B27
:10041000000008142A142222142A1408950022002D
:1004200095AA005500AAAA55AA55AA000000FF00E7
:10043000101010FF00141414FF001010FF00FF1024
:1004400010F010F0141414FC001414F700FF000056
:10045000FF00FF1414F404FC141417101F10101FD5
:10046000101F1414141F00101010F0000000001FC3
:10047000101010101F10101010F010000000FF10CE
:100480001010101010101010FF10000000FF1400CA
:1004900000FF00FF00001F10170000FC04F41414FC
:1004A0001710171414F404F40000FF00F7141414C8
:1004B00014141414F700F7141414171410101F1048
:1004C0001F141414F4141010F010F000001F101F6B
:1004D0000000001F14000000FC140000F010F010D9
:1004E00010FF10FF141414FF141010101F00000050
:1004F00000F010FFFFFFFFFFF0F0F0F0F0FFFFFF54
:100500000000000000FFFF0F0F0F0F0F38444438AA
:10051000447C2A2A3E147E02020606027E027E02E5
:1005200063554941633844443C04407E201E200604
:10053000027E020299A5E7A5991C2A492A1C4C7241
:1005400001724C304A4D4D303048784830BC625AC8
:10055000463D3E494949007E0101017E2A2A2A2A58
:100560002A44445F444440514A444040444A514034
:100570000000FF0103E080FF000008086B6B0836F5
:1005800012362436060F090F060000181800000066
:100590001010003040FF0101001F01011E00191D55
:1005A0001712003C3C3C3C0000000000F0F89C8E20
:1005B0008783878E9CF8F00000FEFF03030303038C
:1005C000070EFCF80000FEFF0303030303070EFC05
:1005D000F80000FFFF00000000000000FFFF000027
:1005E000FEFF8383838383C7EE7C380000F8FC0E14
:1005F00007030303070EFCF800003F7FE0C0808084
:10060000C0E07F3FFFFF01010101010101FFFF0089
:1006100000FFFF0C0C0C0C1C3E77E3C100007FFFB9
:10062000C0C0C0C0C0E0703F1F00001F3F70E0C0EE
:10063000C0C0E0703F1F00007FFFC1C1C1C1C1E366
:10064000773E1C00001F3F70E0C0C0C0E0703F1F3D
:10065000000000000001FFFF01000000D5F08D1434
:10066000A1C881CFD9F1AF2000413A2073746172E3
:100670007400413D73686F6F7420423D7368696513
:100680006C6400434C4F5544204A554D5045520030
:100690002C016400F40178000080E803140000805D
:1006A000BC021400B6031E000080BC0219000080CA
:1006B000F401140084031E00B00428000080C80068
:1006C00032000080423A0020033C0058023C009077
:1006D000013C00C8009600008090011E00BC021E74
:1006E00000008042202D206D656E75004265737498
:1006F0003A200053636F72653A200046454C4C2007
:10070000444F574E21000B0250009302500010033B
:1007100096000080080B000202020000090400009D
:10072000010202000005240010010524010101045A
:100730002402060524060001070581031000400974
:10074000040100020A000000070502024000000741
:100750000583024000000403090412010002EF02B5
:10076000014041233680000101020301417264759A
:10077000696E6F204C4C430041726475696E6F2046
:100780004C656F6E6172646F0000841011241FBE8F
:10079000CFEFDAE0DEBFCDBF11E0A0E0B1E0EEEBDD
:1007A000F2E402C005900D92AA33B107D9F726E012
:1007B000AAE3B1E001C01D92A938B207E1F713E046
:1007C000C6ECD3E004C02197FE010E948B1FC53CFC
:1007D000D107C9F70E94B1100C945D210C94000060
:1007E000809148010895E5E2F2E0A0E0B8E00080E1
:1007F0000EBC8111012C1197A0FDFDCF0192B9F71C
:100800000DB40895FC0180912402882311F13FB7B3
:10081000F89482E08093E9002091F200822F90E02A
:100820001816190614F481E090E0882339F028980E
:1008300044E6409323024091F1004083222339F0A3
:100840002091F200211103C02BE62093E8003FBF66
:1008500008958FEF9FEF08952FB7F89483E080936A
:10086000E9009091E800892F807295FF04C0909173
:10087000F20080E4891B2FBF089580911B02811133
:100880000DC082E08093170284E0809318021092DA
:100890001A021092190281E080931B0287E192E014
:1008A0000895CF93DF931F92CDB7DEB76983DC0144
:1008B000ED91FC910280F381E02D41E050E0BE011A
:1008C0006F5F7F4F09950F90DF91CF91089583E07F
:1008D0008093E9008091F200882319F08AE38093E5
:1008E000E80008950E942C0490E00895CF93DF93D0
:1008F0001F92CDB7DEB7FC018485958597FD08C0B2
:100900002FEF3FEF358724870F90DF91CF91089528
:10091000CE0101960E940204019719F4898190E0AA
:10092000F3CF8FEF9FEFF0CF0F931F93CF93DF9312
:100930001F92CDB7DEB78C01FC018485958597FFAA
:100940000BC0CE0101960E940204019771F48981C7
:1009500090E0F80195878487F801848595850F904C
:10096000DF91CF911F910F9108958FEF9FEFF1CFFE
:10097000FC018485958597FD0BC09FB7F89482E0B4
:100980008093E9008091F2009FBF90E00196089566
:100990009FB7F89482E08093E9008091F2009FBFB6
:1009A00090E00895409111025091120220910F029F
:1009B0003091100242175307B4F49091E8009570FB
:1009C000E1F39091E80092FD19C08093F1008091CD
:1009D00011029091120201968F739927892B19F4B5
:1009E0008EEF8093E800809111029091120201969F
:1009F000909312028093110281E0089580E008959F
:100A0000DF92EF92FF920F931F93CF93DF93D82E35
:100A10008A01EB017B01E40EF51ECE15DF0559F0CE
:100A2000D7FE12C0FE0184910E94D204219681114A
:100A3000F4CF0FEF1FEFC801DF91CF911F910F91FE
:100A4000FF90EF90DF9008958881EECF0F931F9372
:100A5000CF93DF931F92CDB7DEB782E0898342E464
:100A600050E064E177E080E80E9400050E943D04C8
:100A7000DC0112960D911C910115110589F0D80128
:100A8000ED91FC910280F381E02DBE016F5F7F4FFD
:100A9000C801099597FD04C0F80100851185ECCFC8
:100AA00089810F90DF91CF911F910F91089561502F
:100AB00030F02091F100FC0120830196F8CF2898B6
:100AC00084E68093230208953FB7F89480910B0247
:100AD00090910C02A0910D02B0910E0226B5A89B38
:100AE00005C02F3F19F00196A11DB11D3FBFBA2FC0
:100AF000A92F982F8827BC01CD01620F711D811D80
:100B0000911D42E0660F771F881F991F4A95D1F704
:100B100008958F929F92AF92BF92CF92DF92EF9201
:100B2000FF926B017C010E9464054B015C01C114C2
:100B3000D104E104F104B9F00E946405681979094F
:100B40008A099B09683E73408105910580F321E085
:100B5000C21AD108E108F10888EE880E83E0981ED9
:100B6000A11CB11CE4CFFF90EF90DF90CF90BF901D
:100B7000AF909F908F9008958F929F92AF92BF9267
:100B8000CF92DF92EF92FF920F931F93CF93DF9359
:100B90006C017B018A0180910F01882309F45CC0FC
:100BA00080912402882309F457C08091160280FFA7
:100BB00005C08091E00082608093E000E801B12CE4
:100BC0008AEFA82E93E0892E2AE3922E209711F423
:100BD000BB20D9F10E942C0481110AC0AA94AA203A
:100BE000D9F161E070E080E090E00E948905EECFED
:100BF0008C171D0611F00CF08C2F9FB7F894809283
:100C0000E9002091E80025FD02C09FBFDFCF282F1B
:100C100030E0C21BD30BF701815020F0419140938B
:100C2000F100FACFE20EF31EBB2021F09092E80013
:100C3000B12CEBCF8091E80085FDE7CF9092E800E2
:100C4000BB24B394209709F3F3CF5D9884E6809397
:100C50001502101611063CF081E090E0F601938336
:100C6000828310E000E0C801DF91CF911F910F91C6
:100C7000FF90EF90DF90CF90BF90AF909F908F90BC
:100C800008952FB7F894609107027091080280913F
:100C9000090290910A022FBF0895AF92BF92CF929E
:100CA000DF92EF92FF920F931F93CF93DF936C012C
:100CB0007B018B01040F151FEB015E01AE18BF080D
:100CC000C017D10759F06991D601ED91FC910190BF
:100CD000F081E02DC6010995892B79F7C501DF91D7
:100CE000CF911F910F91FF90EF90DF90CF90BF9029
:100CF000AF90089520914101E0913F01F0914001B2
:100D0000CF0102969093400180933F01222319F076
:100D1000859194910895808191810895CF92DF9279
:100D2000EF92FF92CF93DF930E947A06811520E81D
:100D3000920791F4809171008D7F809371001092E1
:100D400091004698479810923E01DF91CF91FF9015
:100D5000EF90DF90CF90089521E020933E01813005
:100D600020E8920751F480913C0190913D019093CD
:100D7000400180933F010E947A0697FD05C02091B3
:100D80003B01222309F454C020913A01211150C0A3
:100D900021E020934201EC01DF77209709F04BC05E
:100DA00081E08093430146983FE9C32E3FE0D32E74
:100DB000E12CF12CCAEFD0E0E0918306F09184069B
:100DC0000995811103C081E0809343018091420124
:100DD000882329F080914301882309F43FC0479874
:100DE0000E947A060097F1F19C01DE010E947C1FAF
:100DF000DC01CB0129E0B595A795979587952A95B4
:100E0000D1F7109290002AE020939100D09299009F
:100E1000C09298008093440190934501A0934601AD
:100E2000B0934701809171008260809371008DCFF3
:100E300010924201B0CF9E0150E040E060E472E4C5
:100E40008FE090E00E94281F69017A0181E0C81AB2
:100E5000D108E108F10810924301AECF4699BFCF07
:100E6000479ABECF8FEF9FEFDC01CBCF9C01E1E72C
:100E7000F0E090819D7F908381E0809341013093E9
:100E8000400120933F0130933D0120933C010C949D
:100E90008E062D9A0895BC0190E080E00C9489059F
:100EA0008FB18095807F669B88601C9B84600895CD
:100EB0003E9A3F9A81E080934801089520E191E0B5
:100EC00061FD94E060FD990F62FD9295687F269F19
:100ED000D0011124A80FAB5DBD4F8C9140FF03C022
:100EE000892B8C93089590958923FBCF80389105A9
:100EF00028F46034710510F40C945E0708952F9265
:100F00003F924F925F926F927F928F929F92AF9299
:100F1000BF92CF92DF92EF92FF920F931F93CF93E6
:100F2000DF9300D000D0CDB7DEB77C018B01242F3A
:100F300030E03C832B8381E090E05C01A21AB30A8D
:100F40001901319421943108220C331CB901600F2E
:100F5000711F41E0C7010E947607B8018B819C8117
:100F6000681B790B41E0C7010E94760741E0B80198
:100F70008B819C818E0D9F1D0E94760741E0B801F8
:100F8000C7012B813C81821B930B0E94760781E075
:100F900090E09A838983D12CC12CB7FC0BC02B81A4
:100FA0003C81215031093C832B8332E0230E311CDC
:100FB000A20CB31C8FEFC81AD80A29813A812E5F80
:100FC0003F4F3A832983A20EB31E36016E0C7F1C5D
:100FD00041E08B809C80800E911EB401C3010E9471
:100FE000760727014C185D0841E0B401C2010E9458
:100FF000760741E048018B819C81881A990AB401E7
:10100000C3010E94760741E0B401C2010E94760745
:101010004601800E911E41E0B4016B807C806E0C15
:101020007F1CC3010E94760741E0B40127012B8198
:101030003C81421A530AC2010E94760748018C186B
:101040009D0841E0B401C3010E94760741E0B4016C
:10105000C2010E9476078B819C81C816D9060CF4C8
:101060009CCF0F900F900F900F90DF91CF911F9119
:101070000F91FF90EF90DF90CF90BF90AF909F9037
:101080008F907F906F905F904F903F902F9008953A
:1010900080E0E5E2F2E081118FEF002481938193FB
:1010A000819381930394D1F71092F9011092F80182
:1010B0001092FB011092FA0108958F929F92AF92C5
:1010C000BF92CF92DF92EF92FF920F931F93CF9335
:1010D000DF936D3089F0C090F801D090F9016A304B
:1010E000D1F41092FB011092FA0188E0C80ED11CD5
:1010F000D092F901C092F80181E090E0DF91CF91A8
:101100001F910F91FF90EF90DF90CF90BF90AF9025
:101110009F908F9008950091FA011091FB01E5E0F6
:101120006E9FE0011124C455DF4F4801F12CF5E01A
:10113000E12CFF1629F0CE010196FE01E490EC01AE
:10114000B12CA12C4E2D4170B6016A0D7B1DC4013E
:101150000E947607E694FFEFAF1ABF0A88E0A81650
:10116000B10481F7F394EFEF8E1A9E0AF6E0FF12B6
:10117000DECF0A5F1F4F1093FB010093FA01BCCF33
:101180000F931F93CF93DF938C01D0E0C0E0F80161
:10119000EC0FFD1F6491662341F085E896E00E9404
:1011A0005D08892B11F02196F2CFCE01DF91CF910E
:1011B0001F910F91089590914D01982329F49091DA
:1011C0004E01982381E009F480E00895CF93C82F61
:1011D0000E945007982F9C2381E09C1380E0CF91C0
:1011E000089580E00C94F303DF92EF92FF920F9347
:1011F0001F93CF93DF937C01D22E8B01040F111D1F
:10120000EB0177FF02C0D0E0C0E0C8010134110556
:1012100014F080E490E0C817D9073CF44D2DBE01CE
:10122000C7010E9476072196F0CFDF91CF911F91E1
:101230000F91FF90EF90DF900895CF92DF92EF92A1
:10124000FF920F931F93CF93DF936B01122FEC014B
:101250007C01E40EF11CCE15DF0544F4202F412F54
:10126000B601CE010E94F4082196F5CFDF91CF910F
:101270001F910F91FF90EF90DF90CF9008952F92E4
:101280003F924F925F926F927F928F929F92AF9216
:10129000BF92CF92DF92EF92FF920F931F93CF9363
:1012A000DF9300D01F92CDB7DEB79B838A837B018B
:1012B0006A0109838901061B170B17FF03C01195EB
:1012C0000195110946018A819B81881A990A97FE26
:1012D00003C0919481949108801691065CF49C2D32
:1012E0008D2D6901292F382F9A818B81FB82EA820B
:1012F000E92EF82E8A819B81C816D9065CF49E2DB2
:101300008F2D7901292F382F9A818B81DB82CA8218
:10131000C92ED82E16018A819B81281A390A2901E3
:101320004E185F0857FE03C0519441945108310193
:1013300037FE03C09FEF691A790A759467948FEF9F
:10134000E216F3060CF481E0A82E880FBB088A8110
:101350009B81C816D906CCF04981BC01C701801613
:1013600091061CF0B7018A819B810E947607641860
:10137000750877FE04C0EA0CFB1C620C731C8A81A2
:101380009B8101969B838A83E2CF0F900F900F90F1
:10139000DF91CF911F910F91FF90EF90DF90CF9051
:1013A000BF90AF909F908F907F906F905F904F9085
:1013B0003F902F9008952F923F924F925F926F929D
:1013C0007F928F929F92AF92BF92CF92DF92EF92D5
:1013D000FF920F931F93CF93DF9300D000D0CDB730
:1013E000DEB76C015B01322E842F90E09C838B83EF
:1013F000440F4F5F681B790BC6010E94F40801E09F
:1014000010E0EB81FC810E1B1F0B4F019194819426
:101410009108880C991C66246394712CF12CE12CA2
:1014200017FD0AC08B819C8101979C838B8392E07E
:10143000890E911C080D191DEFEFEE1AFE0AF2E05D
:101440006F0E711C060D171D2B80220C2394232D6B
:10145000422D25018B819C81481A590AB201C7018E
:101460008C0D9D1D0E94F408F501EE19FF09FA8309
:10147000E983232D462DBF018B819C818C0D9D1D01
:101480000E94F408232D422DB201C6018E199F0936
:101490000E94F408232D462D69817A81C601EB81D3
:1014A000FC818E1B9F0B0E94F4088B819C81E816A7
:1014B000F9060CF4B5CF0F900F900F900F90DF91BD
:1014C000CF911F910F91FF90EF90DF90CF90BF9041
:1014D000AF909F908F907F906F905F904F903F90D4
:1014E0002F9008952F923F924F925F926F927F922A
:1014F0008F929F92AF92BF92CF92DF92EF92FF9224
:101500000F93CF93DF9300D000D0CDB7DEB75C014F
:101510007C836B834B0184E0880E911C750194E001
:10152000E90EF11C80915901882379F00E9441064F
:1015300024E630E040E050E00E945A1F47E020FDE2
:1015400046E0B401C7010E947F078B819C8102960F
:101550009A83898321E042E0BC01C7010E94DB0934
:1015600040E069817A81C7010E947607CB80DC80E8
:1015700096E0C90ED11C01E09601A701B401C70194
:101580000E943F09450186E0880E911C150192E0FA
:10159000290E311C6B817C816B5F7F4F9B01A40105
:1015A000C1010E943F09409051015090520160904A
:1015B00053017090540120E030E040E05FEBC30144
:1015C000B2010E94FE1F87FF35C08B819C81079668
:1015D0009C838B839C01A101B601C7010E943F0936
:1015E0002B813C81A401B601C7010E943F09809173
:1015F000010118160CF041C081E090E041E06981E2
:101600007A818E0D9F1D0F900F900F900F90DF919C
:10161000CF910F91FF90EF90DF90CF90BF90AF9060
:101620009F908F907F906F905F904F903F902F9002
:101630000C9476078B819C8108969C838B8320E099
:1016400030E040E85FE3C301B2010E94EB201816CE
:1016500024F401E02B813C81BECFA5014D5F5F4F9B
:1016600001E02B813C81B601C7010E943F09A50121
:101670004B5F5F4F2B813C81B6CF8FEF9FEFBECF8B
:10168000EF92FF920F931F93CF93DF937C01EB01B7
:10169000042F40E00E947607002E000C110BE00E94
:1016A000F11EBE016150710940E0C7010E9476073A
:1016B0000E0D1F1D40E0BE01C8010E947607219655
:1016C00040E0BE01C8010E94760740E0BE01C701AC
:1016D000DF91CF911F910F91FF90EF900C947607BF
:1016E0008F929F92AF92BF92CF92DF92EF92FF9232
:1016F0000F931F93CF93DF935C01EB01E42E40E047
:101700000E9476074E0181E0881A91080E2C000C89
:10171000FF086701CA0CDB1C40E0B401C6010E944F
:10172000760787010C0D1D1D40E0B401C8010E9421
:1017300076074701800E911E40E0BE01C4010E9461
:1017400076077E018FEFE81AF80A40E0B701C4017E
:101750000E947607229640E0BE01C8010E947607EB
:1017600040E0BE01C6010E94760740E0B701C50116
:101770000E94760740E0B701C6010E94760740E06C
:10178000B701C801DF91CF911F910F91FF90EF90AA
:10179000DF90CF90BF90AF909F908F900C94760782
:1017A0002F923F924F925F926F927F928F929F9271
:1017B000AF92BF92CF92DF92EF92FF920F93CF93AF
:1017C000DF93CDB7DEB728970FB6F894DEBF0FBE14
:1017D000CDBF1C016B01CB01019798878F83C1019D
:1017E00001979A83898300E025E044E16F81788541
:1017F0000E941D09760192E0E91AF108310183E0A7
:10180000680E711C20E044E0B701C3010E94DB09AF
:10181000460194E0891A9108510189E0A80EB11C93
:1018200020E045E0B401C5010E94DB09C1010F962B
:101830009C838B8320E044E0B7010E94DB092101F7
:1018400093E1490E511C20E043E06F817885C2018D
:101850000E94DB0901E023E042E1B601C1010E94E0
:101860001D09C10101969E838D8323E040E16F81B4
:1018700078850E941D0921E043E0B701C3010E9461
:10188000DB0921E044E0B401C5010E94DB0921E04D
:1018900043E0B7018B819C810E94DB0921E042E09B
:1018A0006F817885C2010E94DB0941E06F817885F4
:1018B000C10106960E94700B4FEF6F817885C101C0
:1018C0000D960E94700BC60103979C838B8341E0A9
:1018D000BC018D819E810E94400B4FEF6B817C810A
:1018E000C10141960E94400B4FEFB60189819A8158
:1018F0000E94400B41E0B601C101449628960FB604
:10190000F894DEBF0FBECDBFDF91CF910F91FF9056
:10191000EF90DF90CF90BF90AF909F908F907F908F
:101920006F905F904F903F902F900C94400B0895D4
:1019300090E080E008958F929F92AF92BF920F93B4
:101940001F93CF93DF93CDB7DEB7A1970FB6F8946F
:10195000DEBF0FBECDBF19A2423008F44AE08E01AF
:101960000F5D1F4F842E912CB12CA12CA501940149
:101970000E945A1FE62FB901CA01EA3044F5E05D22
:10198000D801EE938D01232B242B252B79F790E0A2
:1019900080E0109769F0FD0101900020E9F7319790
:1019A000AF014A1B5B0BBD0185E896E00E944D0626
:1019B000A1960FB6F894DEBF0FBECDBFDF91CF91D9
:1019C0001F910F91BF90AF909F908F900895E95C09
:1019D000D7CF0C94121FCF92DF92EF92FF926B0140
:1019E0007C01C114D104E104F10441F00E94BA1E4B
:1019F000A70196010E94281F6B017C01C701B60157
:101A0000FF90EF90DF90CF9008951F920F920FB646
:101A10000F9211248F939F938091E1009091E100A8
:101A2000937F9093E10083FF0FC01092E90091E053
:101A30009093EB001092EC0092E39093ED001092E3
:101A4000240298E09093F00082FF22C093E09093EC
:101A5000E9009091F200992319F09AE39093E8003D
:101A600090911502992341F0909115029150909315
:101A70001502911101C05D9A90912302992341F0C2
:101A800090912302915090932302911101C0289AC2
:101A900084FF18C08091E2008E7E81608093E20016
:101AA0008091E1008F7E8093E100809116028E7E0E
:101AB0008061809316029F918F910F900FBE0F90BF
:101AC0001F90189580FFF7CF8091E2008E7E806195
:101AD0008093E2008091E1008E7E8093E10080910E
:101AE00016028E7E8160E5CF1F920F920FB60F9285
:101AF0001124CF92DF92EF92FF920F931F932F93B7
:101B00003F934F935F936F937F938F939F93AF9385
:101B1000BF93EF93FF93CF93DF93CDB7DEB76C976F
:101B2000DEBFCDBF1092E9008091E80083FF25C0A1
:101B300068E0CE0145960E94570582EF8093E80049
:101B40008D8987FF39C09091E80090FFFCCF982FD6
:101B5000907609F034C19E894F89588D2F89F88C71
:101B6000911131C0803861F5809114028093F100A9
:101B70001092F1008EEF8093E8006C960FB6F89407
:101B8000DEBF0FBECDBFDF91CF91FF91EF91BF912F
:101B9000AF919F918F917F916F915F914F913F9105
:101BA0002F911F910F91FF90EF90DF90CF900F90AA
:101BB0000FBE0F901F9018959EEF9093E800C7CF2F
:101BC0001092F100D5CF913059F48111D3CF41302B
:101BD000510581F6809114028D7F80931402CACF43
:101BE000933049F48111C6CF4130510519F68091E7
:101BF00014028260F2CF953041F48091E80080FFBA
:101C0000FCCF20682093E300B5CF963009F0A9C03F
:101C10000B8D1C8D22E01092E9001092120210929E
:101C20001102F2122EC01092100210920F020E94A6
:101C300026051F8299E09983FA8291E09E8390EABB
:101C400098879AEF99872091110230911202275FAD
:101C50003F4F3C832B838D831092E9001092120238
:101C6000109211021093100200930F0249E050E00D
:101C7000BE016F5F7F4F80E00E9400050E94260535
:101C800079CF1093100200930F020E943D04DC01F3
:101C900012960D911C910115110509F451C1D8013D
:101CA000ED91FC910480F581E02DBE016B5E7F4FCC
:101CB000C8010995009709F03EC1F801008511851A
:101CC000EACFF3E0FF120EC08F89882309F440C0E9
:101CD000823061F440E860E188E797E00E945110AB
:101CE000811148CF81E28093EB0047CF813029F406
:101CF00040E86BE08CE697E0F1CF833099F70E94E3
:101D00003D04DC011296ED90FC908E010F5F1F4F99
:101D10006801E114F10479F0D701ED91FC9106809E
:101D2000F781E02DB801C7010995080F111DF701D2
:101D3000E084F184EECFD8011C92F60101900020DE
:101D4000E9F73197BF016C197D0940E0C601C6CFA4
:101D500066E577E0FB01449150E080E80E940005D1
:101D600009CF973009F4BECF983021F481E08093F9
:101D7000F10000CF993009F0FDCE837009F0B2CFA9
:101D8000E5E1F1E081E031E096E32191222371F079
:101D90008093E9003093EB00DF0111972C912093A1
:101DA000EC009093ED008F5F873079F78EE780939A
:101DB000EA001092EA008F8980932402DBCE8B8D9B
:101DC0009C8D1092E90010921202109211029093D1
:101DD000100280930F02898D811192C08E899D8996
:101DE000913A49F4813209F07DCF47E050E068E054
:101DF00071E080E0B3CF913209F074CF833269F49F
:101E00008F89988DB0E0A0E0809304019093050144
:101E1000A0930601B0930701ADCE803269F48091A2
:101E2000E80082FFFCCF67E088E091E00E94570560
:101E30008BEF8093E8009ECE823209F09BCE8F8993
:101E400080930F01EEEFFFE7859194918B3F9C4DBE
:101E500051F1E0E0F8E08091080190910901A09132
:101E60000A01B0910B01803B9440A105B105F1F44A
:101E700080910F0180FD1AC0EE3F8AE0F80789F5D6
:101E800087E797E7918380838091600080931302B6
:101E900088E19BE00FB6F894A895809360000FBE90
:101EA0009093600067CEEEEFFAE0D5CF808191810C
:101EB0008737974709F05ECEA895809160008861CA
:101EC000809360008091130280936000EE3F2AE0CF
:101ED000F20789F08091FE0A9091FF0A9183808336
:101EE00049CE808191818737980751F29093FF0AFC
:101EF0008093FE0AC5CF1092FF0A1092FE0A3ACED6
:101F00000E943D04DC0112960D911C9101151105F2
:101F100009F4E8CED801ED91FC910190F081E02D1B
:101F2000BE016B5E7F4FC8010995811123CEF80178
:101F300000851185EBCF181619060CF41BCED2CEF6
:101F4000F1E0FF12BECE6AE577E004CF1F920F9258
:101F50000FB60F9211242F933F938F939F93AF93BC
:101F6000BF938091070290910802A0910902B0915D
:101F70000A023091060223E0230F2D3758F501960F
:101F8000A11DB11D209306028093070290930802C1
:101F9000A0930902B0930A0280910B0290910C0267
:101FA000A0910D02B0910E020196A11DB11D80936A
:101FB0000B0290930C02A0930D02B0930E02BF91FE
:101FC000AF919F918F913F912F910F900FBE0F90E6
:101FD0001F90189526E8230F0296A11DB11DD2CFA0
:101FE0001F920F920FB60F9211242F933F934F938E
:101FF0005F936F937F938F939F93AF93BF93EF9371
:10200000FF938091440190914501A0914601B091C8
:102010004701892B8A2B8B2B09F440C08091430107
:1020200081110BC088B190E4892788B98091420161
:10203000882319F088B1805888B980914401909123
:102040004501A0914601B0914701181619061A06DC
:102050001B069CF48091440190914501A09146019A
:10206000B09147010197A109B10980934401909370
:102070004501A0934601B0934701FF91EF91BF91B5
:10208000AF919F918F917F916F915F914F913F9110
:102090002F910F900FBE0F901F9018950E948E06E3
:1020A000ECCFEF92FF920F931F93CF93DF93F82E15
:1020B000192FE62E042F81E0860F880F0E94D2048C
:1020C00083E00E94D204CF2DD12FEC0EFD2EF11C07
:1020D000CE15DF05B9F007FF13C0FE0184910E9401
:1020E000D204182F80E00E94D2048123219681110E
:1020F000EFCFDF91CF911F910F91FF90EF90089557
:102100008881EDCF81E0F5CFE5E2F6E0138212821F
:1021100088EE93E0A0E0B0E084839583A683B78344
:102120008FE191E0918380838FEF9FEF9587848784
:10213000E5E8F6E01382128281E391E091838083E7
:1021400080EF93E0909384068093830680E090E88C
:10215000909382068093810646983E9A47983F9ACC
:102160000895CF93DF93CDB7DEB72C970FB6F894D1
:10217000DEBF0FBECDBF789484B5826084BD84B5C8
:10218000816084BD85B5826085BD85B5816085BD72
:1021900080916E00816080936E001092810080912A
:1021A00081008260809381008091810081608093B2
:1021B00081008091800081608093800080919100F7
:1021C0008260809391008091910081608093910062
:1021D000809190008160809390008091C100846024
:1021E0008093C1008091C10082608093C100809182
:1021F000C10081608093C1008091C30081608093A1
:10220000C3008091C00082608093C0008091C200B2
:1022100081608093C20080917A00846080937A000C
:1022200080917A00826080937A0080917A00816048
:1022300080937A0080917A00806880937A0010926F
:10224000240210921402109216028091D70081602D
:102250008093D70080EA8093D80089B5806189BDDA
:1022600089B5826089BD09B400FEFDCF61E070E0F0
:1022700080E090E00E9489058091D8008F7C806189
:102280008093D8008091E000807F8093E00080916F
:10229000E1008E7E8093E1008DE08093E200559A0C
:1022A000209A81EC80937C0085B1806F85B984B1E0
:1022B000877E84B984B1876E84B95E9A5F988AB14B
:1022C000806D8AB9769A6E9881B3806F81BB899848
:1022D00080B38D7080BB80E58CBD81E08DBD85E0D5
:1022E00090E00E944B075F9A85E090E00E944B07C8
:1022F0005E985C98ECE5F6E089E696E024912EBDC8
:1023000000000DB407FEFDCF31968E179F07B1F781
:102310005C9A81E88093640080916500816080937D
:1023200065000E94F10880E80E94E6088823A9F071
:102330005C9885EA8EBD00000DB407FEFDCF5C9A67
:102340002E982F982D98809164008062809364006D
:1023500081E083BF889513BEFCCF84E00E94E6082D
:10236000882309F448C02D9884E80E94E608882351
:10237000E1F00E94490788EC90E00E944B072F98FB
:1023800082E090E00E94121F8F3F29F06FEF82E001
:1023900090E00E941A1F84EF91E00E944B072F9A51
:1023A00084E80E94E6088111FBCF84E10E94E608E0
:1023B0008823E1F00E94490788EC90E00E944B07D7
:1023C0002E9882E090E00E94121F882329F060E09E
:1023D00082E090E00E941A1F84EF91E00E944B0778
:1023E0002E9A84E10E94E6088111FBCF88EC90E0F0
:1023F0000E944B07B2CF0E94490782E090E00E9402
:10240000E90C882309F476C00E94580781E090E027
:102410000E94E90C082F0470902E81FF14C0011156
:102420002E9811EF412E55245A9408E010E088E5CB
:10243000882E80E40E94E608882309F460C02E9A62
:102440002F9A0E94490782E390E00E944B070E9466
:1024500050078111F8CF80E18093000180916400E2
:102460008E7F8093640080917A00806480937A00EC
:1024700080917A0086FDFCCF009178001091790060
:102480000E946405AB01BC01C801B0E0A0E0DC0122
:10249000992788278C019D01040F151F261F371FC0
:1024A000C901B80120916400216020936400611586
:1024B00071058105910511F00E94091F0E945807BE
:1024C0000E9448080E94F10864E670E080E090E015
:1024D0000E9489050E94410680914B01882309F4DE
:1024E000DBC010924B0180E090E0892B99F30E94B1
:1024F0000000F0CF109248013E983F9887CF992076
:1025000031F024E04216510411F42E9A2F9881E004
:102510000E94F303920157FE04C022273327241997
:10252000350927703327C20157FC0796B3E095950C
:102530008795BA95E1F757FE05C00197A801421BA0
:10254000530B9A01BC017695762F66277795679590
:102550006B5D7D4FF12CE12C3801621A730A8E3FBE
:102560005FEF950709F43DC08E9CD0018F9CB00DA4
:10257000112450E040E0A455BA4F5B01E0E8AE0EF4
:10258000B11C8F3F980791F0FD01E40FF51FE49116
:102590006B01C40ED51EF0E01F01022E01C0220CFB
:1025A0000A94EAF7F60134882328248A2115310594
:1025B00099F0FD01E40FF51FE4916501C40ED51EED
:1025C000F0E01F01062C02C0359427940A94E2F72C
:1025D000F60134882328248A4F5F5F4F4835510520
:1025E00081F6019660587F4FEA94EF2809F050C0B9
:1025F0000E94F1088FE090E00E944B072FEF421AF3
:10260000520A39E14316510409F013CF992011F011
:102610002F9A2D9880E991E00E944B070E9449076C
:1026200081E090E00E94E90C80FF0DCF8AE090E00D
:102630000E94E90C9FEF980F9E3F08F004CF22E321
:1026400030E03093FB012093FA0128E330E030932F
:10265000F9012093F8010BE010E01A830983682F39
:1026600085E896E00E945D0889819A810E94E90CC4
:1026700009811A810F5F1F4F1A83098301311105E8
:1026800071F70E94F10888EE93E00E944B07DBCEC1
:10269000EE24E394F12C63CF80914C01162F181B8C
:1026A000812F90910001191748F48F5F891708F066
:1026B0001ACF81E083BF889513BE15CF21E0209308
:1026C0004B0160934C018091490190914A01019620
:1026D00090934A018093490180914E0180934D016E
:1026E0000E94500780934E01809104029091050250
:1026F0008130910509F4CFC108F489C0029709F02F
:10270000F2CE0E94480882E290E09093FB01809311
:10271000FA0188E090E09093F9018093F8018BEF43
:1027200096E00E94C00884E190E09093FB018093C2
:10273000FA018AE190E09093F9018093F80183EF28
:1027400096E00E94C00860910002709101028091A1
:102750000202909103024AE00E949B0C80E190E00B
:102760009093FB018093FA0186E290E09093F90147
:102770008093F8018CEE96E00E94C0086091FC0105
:102780007091FD018091FE019091FF014AE00E944D
:102790009B0C21E043E064E370E080E490E00E9461
:1027A000DB0940E063E370E08FE390E00E945E07A6
:1027B00040E063E370E081E490E00E945E0701E0A6
:1027C00025E330E041E450E066E370E08FE390E021
:1027D0000E943F0984E090E09093FB018093FA010E
:1027E0008CE390E09093F9018093F80183EE96E0FA
:1027F0000E94C0080E94F10884E00E94DB08882340
:1028000009F471CE10920502109204026CCE0E945F
:1028100048086EE070E084E090E00E94D00B66E132
:1028200070E080E690E00E94D00B0E94410628EC08
:1028300030E040E050E00E945A1F23703327B90176
:102840006E5D7F4F8CE390E00E94720A8CE190E015
:102850009093FB018093FA0182E090E09093F9015C
:102860008093F80183E896E00E94C00844E050E0BD
:102870005093FB014093FA0182E390E09093F901B9
:102880008093F80182E796E00E94C00884E090E01F
:102890009093FB018093FA0189E390E09093F90112
:1028A0008093F80189E696E00E94C0080E94F10832
:1028B00088E00E94DB08882309F415CE08EA11E0BD
:1028C0001A830983F8011682389611E0E83FF10770
:1028D000D1F710926E011092770110928001109240
:1028E00089011092930110929D011092A70180E03E
:1028F00090E0A0E7B2E480935E0190935F01A09323
:102900006001B093610180E090E0A8E4B2E48093BC
:10291000620190936301A0936401B09365011092EA
:10292000550110925601109257011092580103E37D
:1029300013E323E930EC00935101109352012093EB
:1029400053013093540111E01093010110930201DF
:102950001092500110920002109201021092020295
:10296000109203021092590110924F0183E080935C
:1029700003010E94410660935A0170935B018093AA
:102980005C0190935D011093AE011092AF01109223
:10299000AD0188E390E09093A9018093A8018AE3B8
:1029A00090E09093AB018093AA011092AC0106E2F3
:1029B00010E0FF24F39443E0E42E52E0D52EA981E9
:1029C000BA811E96FC921E971F961C9266E670E0D6
:1029D00080E090E00E94EB0C6C5F7F4F8F4F9F4F29
:1029E000E981FA817187608713870287148664E61C
:1029F00070E080E090E00E94EB0C6C33C8F5A98198
:102A0000BA811D961C92A981BA811D968C91813044
:102A100071F462E070E080E090E00E94EB0C672BC4
:102A2000682B692BB1F181E0E981FA81848768E044
:102A300070E080E090E00E94EB0C625F7F4F8F4F70
:102A40009F4F061B170B29813A81285F3F4F3A831E
:102A50002983205F314009F0B2CF81E090E090936C
:102A600005028093040286E097E00E9436073BCD82
:102A7000603520F4E981FA81F586C5CF6C3528F4FC
:102A8000A981BA811D96DC92BECFE981FA81E586E3
:102A9000BACF8FEFC9CF80E20E94E608882309F4FD
:102AA0002DC48DEC9CECACECBFEB80935501909366
:102AB0005601A0935701B09358018FEF8093010105
:102AC00080E80E94DB088823B1F08091020188230E
:102AD00091F021EE3AE744E850EC20935101309315
:102AE000520140935301509354011092020180EA25
:102AF00096E00E94360780E10E94E608809350012C
:102B000088E00E94DB08882309F443C0E6E6F1E090
:102B100090E080E0208521113AC429E0289FA0019F
:102B2000299F500D11244A595E4F5A83498381E0F1
:102B3000DA0118968C9320E030E040E850E4609190
:102B40005E0170915F0180916001909161010E942E
:102B5000921FE981FA81608371838283938320E0ED
:102B600030E040E050E46091620170916301809137
:102B70006401909165010E94911FA981BA81149608
:102B80006D937D938D939C9317978AE996E00E94AD
:102B9000360784E00E94DB088823A9F080910301B6
:102BA000882389F09091590191110DC091E0909383
:102BB000590198E790934F0181508093030180E978
:102BC00096E00E94360720915501309156014091C0
:102BD00057015091580160915E0170915F018091A1
:102BE0006001909161010E94921F6B017C0120E0C5
:102BF00030E040E051EC0E94FE1F87FDCFC3C09241
:102C00005E01D0925F01E0926001F092610120E0EC
:102C100030E040E053E460915E0170915F0180918B
:102C20006001909161010E94EB20181664F480E02D
:102C300090E0A0E0B1EC80935E0190935F01A093DF
:102C40006001B09361012AE939E949E95EE36091E5
:102C500051017091520180915301909154010E9451
:102C6000921F60935101709352018093530190938E
:102C7000540120915001222371F02DEC3CEC4CE0EA
:102C80005FE30E94921F6093510170935201809301
:102C900053019093540120E030E040E151E4609111
:102CA00051017091520180915301909154010E9401
:102CB000EB20181664F480E090E0A0E1B1E480938A
:102CC000510190935201A0935301B0935401C090CD
:102CD0005101D0905201E0905301F09054012091A5
:102CE0006201309163014091640150916501C70117
:102CF000B6010E94921F4B015C018092620190928A
:102D00006301A0926401B092650120E030E0A90166
:102D1000C701B6010E94EB2018160CF094C020E009
:102D200030E040E850E460915E0170915F01809175
:102D30006001909161010E94921F6B017C0120E073
:102D400030E040E051E4C501B4010E94921F4B0104
:102D50005C0108EA11E01A83098338EF632E31E041
:102D6000732E55245394A981BA8116968C91169787
:102D7000882309F45EC017968C911797811159C06A
:102D80000D911C91B801012E000C880B990B0E942B
:102D90003B209B01AC01C701B6010E94EB20181635
:102DA0000CF047C0B8016E5E7F4F072E000C880BF9
:102DB000990B0E943B209B01AC01C701B6010E9408
:102DC000FE1F87FF36C0E981FA8102811381B801B5
:102DD000012E000C880B990B0E943B209B01AC013B
:102DE000C501B4010E94EB2018161CF5B801675FFD
:102DF0007F4F072E000C880B990B0E943B209B01F4
:102E0000AC01C501B4010E94FE1F87FF12C0A98159
:102E1000BA8115964C90B2E04B12CDC28091500110
:102E20008111C9C2E981FA8157828EEB96E00E9436
:102E3000360709811A81085F1F4F1A8309836016BC
:102E4000710609F090CF80915901882349F0809153
:102E50004F01815080934F01811102C0109259019E
:102E60008091040290910502019709F03CCBC0903B
:102E70006201D0906301E0906401F090650120E070
:102E800030E040EC51E4C701B6010E94FE1F87FF0D
:102E900090C0C701B6010E94032008E110E0061BA4
:102EA000170B1A83098380E090E0A0ECB1E48093D3
:102EB000620190936301A0936401B0936501E8EA15
:102EC000F1E08681882341F08281938109811A8112
:102ED000800F911F93838283389611E0E83FF107BA
:102EE00081F706E611E029813A816901330FEE0886
:102EF000FF08D80118968C918823A1F0C701B6016C
:102F00000E943B209B01AC01F801648175818681A0
:102F100097810E94921FD80114966D937D938D9393
:102F20009C931797075F1F4FB1E00A381B0709F7FB
:102F30000AE811E0E981FA816F01FF0FEE08FF084E
:102F4000D80119968C918823A1F0C701B6010E947F
:102F50003B209B01AC01F8016481758186819781DA
:102F60000E94921FD80114966D937D938D939C932C
:102F70001797065F1F4FB1E0083A1B0709F7098151
:102F80001A81C801110FAA0BBB0B4091000250918E
:102F900001026091020270910302840F951FA61F27
:102FA000B71F8093000290930102A0930202B09396
:102FB000030228EA31E03E832D8328EF31E008EA5E
:102FC00011E04FEF51E0D80116968C9116978823A7
:102FD000F1F014966C9114976623C9F08D919C9131
:102FE0001197860F911D67FD9A9597FD18C28D93D5
:102FF0009C93D8018D919C9111978F3691053CF04F
:10300000EEE6F0E01196FC93EE9314964C93085F75
:103010001F4F20173107B9F626E631E03A87298796
:103020003A832983A981BA8118968C9118978823AD
:10303000F1F020E030E040E650E414966D917D918F
:103040008D919C9117970E94911FE981FA81648369
:1030500075838683978320E030E040E850EC0E943F
:10306000FE1F87FF04C0A981BA8118961C92E981CE
:10307000FA813996FA83E9832AE831E02E173F076F
:1030800089F68091000290910102A0910202B09114
:10309000030285369105A105B105E8F160EA7FE0FC
:1030A00080E090E00E94EB0C6B017C010E944106E5
:1030B00038E8C30E33E1D31EE11CF11C80905A01A5
:1030C00090905B01A0905C01B0905D016819790956
:1030D0008A099B09C616D706E806F906E0F40E949D
:1030E000410660935A0170935B0180935C01909359
:1030F0005D0180919301882309F496C180919D011F
:10310000882309F4CCC18091A70122E0E22EF12CA2
:10311000882309F48BC12AE831E038872F833C8764
:103120002B8733243A9422242394AB85BC851996AB
:103130008C911997882309F4D4C018966C91062EA7
:10314000000C770B880B990B0E943B20EB85FC85CC
:1031500020813181428153810E94921F6B017C0149
:1031600020E030E0A9010E94FE1F87FD9EC1AB85D3
:10317000BC85CD92DD92ED92FC92139720E030E079
:1031800040EF52E4AB85BC856D917D918D919C9112
:103190000E94EB2018165CF480E090E0A0EFB2E40F
:1031A000EB85FC8580839183A283B383308623E300
:1031B00033E343EB5EE3AB85BC8514966D917D9163
:1031C0008D919C9117970E94921F6B017C01EB855A
:1031D000FC85C482D582E682F78220E030E040E9B7
:1031E00052E40E94EB20181624F4AB85BC85199696
:1031F0001C92EB85FC858185882309F472C0809040
:103200005E0190905F01A0906001B09061014080EC
:1032100051806280738020E030E040E051E4C501DD
:10322000B4010E94921FA30192010E94EB20181684
:103230000CF057C020E030E040E051E4C301B2019F
:103240000E94921F9B01AC01C501B4010E94FE1FA8
:1032500087FF47C08090620190906301A090640155
:10326000B090650120E030E040E051E4C501B401D8
:103270000E94921F9B01AC01C701B6010E94FE1F74
:1032800087FF2FC020E030E040EC50E4C701B601DA
:103290000E94921F9B01AC01C501B4010E94FE1F58
:1032A00087FF1FC08091000290910102A09102024D
:1032B000B091030220915901222309F4FEC0EB854D
:1032C000FC8511864496A11DB11D80930002909348
:1032D0000102A0930202B093030289ED96E00E94DE
:1032E00036072B853C85265F3F4F3C872B8748EA76
:1032F00051E04217530709F018CFFEC080E40E9446
:10330000E608882381F00DEC1CEC2CEC3FE30093E5
:10331000550110935601209357013093580111E045
:1033200010930101CDCB2DEC3CEC4CE45FE36091BC
:1033300055017091560180915701909158010E945A
:10334000F0206B017C01C0925501D0925601E092B1
:103350005701F09258012DEC3CEC4CE45DEB0E94DF
:10336000EB2018160CF0ACCB2DEC3CEC4CE45DE300
:10337000C701B6010E94FE1F87FFA2CB1092550124
:1033800010925601109257011092580199CB019654
:1033900039968430910509F0BDCBFBCB80E090E0FD
:1033A000A0E0B3E480935E0190935F01A09360017D
:1033B000B09361012CCCB80168507109072E000C44
:1033C000880B990B0E943B2060936201709363010C
:1033D000809364019093650150920201F3E04F12D3
:1033E0000FC001EE1AE724E031EC00935101109375
:1033F0005201209353013093540180EB96E017CD96
:1034000023E333E343E950EC20935101309352011D
:1034100040935301509354018AEA96E008CDF80195
:10342000118210825483E5CDF12CE12C8AE08E9D2F
:10343000A0018F9D500D112446575E4F58874F8332
:1034400081E0DA0119968C9368E770E080E090E003
:103450000E94EB0C0E943B20EF81F8856083718312
:103460008283938380E090E0A0E0B1EC8483958335
:10347000A683B78362E070E080E090E00E94EB0CEE
:10348000672B682B692B79F081E09AE09E9DF00113
:103490009F9DF00D1124E657FE4F80873CCEEE2411
:1034A000E394F12CC3CF8FEFF0CFEB85FC85108236
:1034B000118212821382208661CE22E030E03093A6
:1034C0000502209304024091FC015091FD0160919E
:1034D000FE017091FF01481759076A077B0740F406
:1034E0008093FC019093FD01A093FE01B093FF0136
:1034F00087EC96E00E9436078091040290910502C5
:10350000019711F00C947312B6E62B2EB1E03B2E0E
:103510008AE0D82ED10118968C91882309F478C0BE
:10352000EAE8F1E0FC87EB87F12CE12CAB85BC8568
:1035300019968C911997882309F491C2F101808022
:103540009180A280B3804D905D906D907C90A3019E
:103550009201C501B4010E94EB2018160CF07FC245
:1035600020E030E040E051E4C301B2010E94921F2C
:103570009B01AC01C501B4010E94FE1F87FF6FC211
:10358000D10114968D909D90AD90BC901797EB85CE
:10359000FC854480558066807780A3019201C50137
:1035A000B4010E94EB2018160CF059C220E030E064
:1035B00040EC50E4C301B2010E94921F9B01AC0198
:1035C000C501B4010E94FE1F87FF49C2D1011896B0
:1035D0001C92DE9CF001DF9CF00D1124E657FE4F9B
:1035E00011868091000290910102A0910202B09197
:1035F00003024496A11DB11D809300029093010225
:10360000A0930202B093030289ED96E00E94360770
:1036100029E0220E311C49815A812416350609F011
:1036200079CFA8EACA2EA1E0DA2ED60116968C919F
:103630001697882349F012968D919C9113978734A1
:10364000910514F016961C92B8E0CB0ED11C0C1507
:103650001D0559F7E8EAF1E000E410E086818823CF
:1036600031F082819381801791070CF48C01389698
:10367000EC15FD0599F77DE0E72EF12C9924939444
:10368000E3E08E2EF2E07F2E0C3FEFEF1E07B4F04A
:10369000F1E0EF1AF10891F0E8EAF1E01A821982FC
:1036A0008681882309F4D3C229813A812F5F3F4F55
:1036B0003A83298338962A30310591F720E030E0AB
:1036C00048E852E460916201709163018091640165
:1036D000909165010E94EB2018163CF582E090E085
:1036E0009093050280930402809100029091010260
:1036F000A0910202B09103024091FC015091FD01A2
:103700006091FE017091FF01481759076A077B0716
:1037100040F48093FC019093FD01A093FE01B093CF
:10372000FF0187EC96E00E94360780910402909199
:103730000502019711F00C9473120E9448086091E1
:10374000000270910102809102029091030242E016
:1037500096958795779567954A95D1F728E230E059
:1037600040E050E00E945A1F4B0104E010E01A8331
:10377000098369817A81660F771F09811A81600F39
:10378000711F680D791D6F7377276B30710524F0F9
:1037900041E0C8010E94760709811A81005F1F4F2E
:1037A0001A8309830438110521F741E06EE070E0C7
:1037B00084E190E00E945E0741E06EE170E080E508
:1037C00090E00E945E0741E062E170E080E790E0F7
:1037D0000E945E07AD81BE8116968C911697882354
:1037E00009F440C01296ED91FC911397FA83E98396
:1037F000CF0108968D349105A8F5ED90FC901197B6
:1038000017968C91882309F479C121E043E0BF0128
:10381000C70102960E94DB0969817A8162507109B1
:1038200021E043E0C70109960E94DB0969817A81A2
:103830006F5F7F4F21E043E0C7010F960E94DB09D5
:1038400069817A816D5F7F4F41E0C70105960E94D3
:10385000760769817A816450710941E0C7010C964D
:103860000E9476078D819E8108969E838D838C159C
:103870009D0509F0AFCFAF81B88519968C91199746
:10388000882309F44CC014966D917D918D919C9183
:1038900017970E94032069837A838B839C83EF812F
:1038A000F88560817181828193810E9403202B01C0
:1038B000E980FA80F2E0EF0EF11CCB01029601E004
:1038C00022E044E0B7010E941D090E944106520116
:1038D00003E0A00EB11C620118E0C10ED11C420130
:1038E00025E0820E911C26E930E040E050E00E9485
:1038F0005A1F20FF9EC101E09701A50169817A81CD
:10390000C2010E943F0929813A81A601B701C40181
:103910000E943F0940E0B701C4010E9476078F81F1
:1039200098850A9698878F83A8EAB1E0A817B90707
:1039300009F0A1CFE985FA8580858823A9F0648103
:103940007581868197810E9403206B01A985BA85C4
:103950006D917D918D919C910E940320CB0121E07E
:1039600041E0B6010E94DB09E985FA853996FA87BC
:10397000E9872E163F06F1F66091620170916301AE
:1039800080916401909165010E9403206B01609118
:103990005E0170915F0180916001909161010E94D0
:1039A0000320CB01B6010E94720A00E028E040E843
:1039B00070E060E090E080E00E941D0901E028E0F6
:1039C00030E04FE750E068E070E090E080E00E9477
:1039D0003F0982E090E09093FB018093FA011092FE
:1039E000F9011092F801609100027091010280913A
:1039F0000202909103024AE00E949B0C80E690E054
:103A00009093FB018093FA011092F9011092F80152
:103A100084EC96E00E94C00800E710E01A82198248
:103A20008091030129813A818217130609F00CF471
:103A300007C121E042E064E070E0C8010E94DB09B8
:103A400049815A814F5F5F4F5A8349830B5F1F4FF4
:103A50004330510529F70E94F1080C947312BFEF0F
:103A6000EB1AFB0AEB85FC853A96FC87EB87F3E0C3
:103A7000EF16F10409F05ACDCBCD80E0653508F0A2
:103A800083E0E981FA8163E0EE0FFF1F6A95E1F7B9
:103A9000E855FE4F858329813A8153E0220F331F79
:103AA0005A95E1F73A832983F901E855FE4F85815C
:103AB000813009F0E9CD62E070E080E090E00E94A2
:103AC000EB0C672B682B692BB9F081E049815A8197
:103AD00048555E4FDA0114968C93D6CD6B3418F4AA
:103AE000F5019582D8CF6A3520F4D50115967C92E0
:103AF000D2CFF5018582CFCF8FEFE8CFAD81BE81E8
:103B000015961C9169817A81C7010E94D00B1230F1
:103B100099F1133009F45BC0113009F0A3CE09818B
:103B20001A810E5F1F4F41E0B801C70103970E9441
:103B3000760741E0B801C70104970E94760741E08B
:103B4000B801C70144960E94760741E0B801C70159
:103B500045960E947607E981FA813196FA83E983D6
:103B600040E0BF01C70105960E94760740E06981E9
:103B70007A81C7010D9674CE5701F9E0AF0EB11CE2
:103B800089809A8002E0801A910800E029813A81B8
:103B9000A501B401C70106960E943F09A701445F31
:103BA0005F4F940169817A81C5010E943F09698153
:103BB0007A816F5F7F4F40E0C5010E94760769817F
:103BC0007A816150710940E0C701079649CE5701DB
:103BD00017E0A10EB11C69817A816650710901E07C
:103BE00023E044E0C5010E941D0909811A810750A4
:103BF000110929E0E20EF11C21E043E0B801C70100
:103C00000E94DB0920E042E0B801C7010E94DB0905
:103C100049815A81485051095A83498341E0698159
:103C20007A81C7010E94760741E069817A81C501E6
:103C300017CE49815A814D5F5F4F5A8349835BCECE
:103C400042E064E070E0C8010E947F07F9CE6AE0BC
:103C500070E080E090E00E94EB0C625F7F4F8F4F3E
:103C60009F4F061B170B89819A8123E0880F991FAC
:103C70002A95E1F7DC01A855BE4F5D0116969C928E
:103C8000169717961C9266E670E080E090E00E941E
:103C9000EB0C6C5F7F4F8F4F9F4FF50171836083FB
:103CA00013830283148264E670E080E090E00E9457
:103CB000EB0C8091000290910102A0910202B09160
:103CC000030280359105A105B10508F4D6CE67330E
:103CD00008F004CFD50115961C92DDCE8F929F92ED
:103CE000AF92BF92CF92DF92EF92FF92CF93DF938A
:103CF000EC01688179818A819B816115710581055B
:103D0000910521F464E279ED8BE597E02DE133EF45
:103D100041E050E00E94281F49015A019B01AC017B
:103D2000A7EAB1E40E94471F6B017C01ACEEB4EF3F
:103D3000A50194010E94551FC60ED71EE81EF91E4C
:103D4000F7FE06C081E0C81AD108E10880E8F80A49
:103D5000C882D982EA82FB82C701B6019F77DF91D0
:103D6000CF91FF90EF90DF90CF90BF90AF909F905A
:103D70008F9008958F929F92AF92BF92CF92DF92D1
:103D8000EF92FF92609110017091110180911201E8
:103D900090911301611571058105910521F464E28B
:103DA00079ED8BE597E02DE133EF41E050E00E94A3
:103DB000281F49015A019B01AC01A7EAB1E40E9406
:103DC000471F6B017C01ACEEB4EFA50194010E948A
:103DD000551FC60ED71EE81EF91EF7FE06C081E06D
:103DE000C81AD108E10880E8F80AC0921001D09200
:103DF0001101E0921201F0921301C701B6019F7701
:103E0000FF90EF90DF90CF90BF90AF909F908F90FA
:103E100008956093100170931101809312019093A3
:103E200013010895F999FECF92BD81BDF89A9927A3
:103E300080B50895262FF999FECF1FBA92BD81BD96
:103E400020BD0FB6F894FA9AF99A0FBE019608951C
:103E5000052E97FB1EF400940E943F1F57FD07D0CC
:103E60000E945A1F07FC03D04EF40C943F1F50953C
:103E70004095309521953F4F4F4F5F4F0895909556
:103E80008095709561957F4F8F4F9F4F08950E9449
:103E90007C1FA59F900DB49F900DA49F800D911D38
:103EA00011240895B7FF0C94471F0E94471F821BDF
:103EB000930B0895A1E21A2EAA1BBB1BFD010DC096
:103EC000AA1FBB1FEE1FFF1FA217B307E407F507CA
:103ED00020F0A21BB30BE40BF50B661F771F881FA6
:103EE000991F1A9469F760957095809590959B013C
:103EF000AC01BD01CF010895A29FB001B39FC001E5
:103F0000A39F700D811D1124911DB29F700D811D05
:103F10001124911D0895EE0FFF1F0590F491E02DDF
:103F200009945058BB27AA270E94A91F0C94B120BE
:103F30000E94A32038F00E94AA2020F039F49F3F6D
:103F400019F426F40C94A0200EF4E095E7FB0C94F1
:103F50009A20E92F0E94C22058F3BA17620773070C
:103F60008407950720F079F4A6F50C94E4200EF46C
:103F7000E0950B2EBA2FA02D0B01B90190010C0179
:103F8000CA01A0011124FF27591B99F0593F50F491
:103F9000503E68F11A16F040A22F232F342F4427E9
:103FA000585FF3CF469537952795A795F0405395E1
:103FB000C9F77EF41F16BA0B620B730B840BBAF0B1
:103FC0009150A1F0FF0FBB1F661F771F881FC2F71C
:103FD0000EC0BA0F621F731F841F48F48795779530
:103FE0006795B795F7959E3F08F0B0CF9395880FEA
:103FF00008F09927EE0F9795879508950E947620EF
:1040000008F481E008950E940A206894B1110C948C
:10401000E52008950E94CA2088F09F5798F0B92F94
:104020009927B751B0F0E1F0660F771F881F991FED
:104030001AF0BA95C9F714C0B13091F00E94E4208B
:10404000B1E008950C94E420672F782F8827B85F9B
:1040500039F0B93FCCF3869577956795B395D9F745
:104060003EF490958095709561957F4F8F4F9F4F4F
:104070000895E89409C097FB3EF49095809570955B
:1040800061957F4F8F4F9F4F9923A9F0F92F96E9A4
:10409000BB279395F695879577956795B795F11119
:1040A000F8CFFAF4BB0F11F460FF1BC06F5F7F4FB6
:1040B0008F4F9F4F16C0882311F096E911C07723C8
:1040C00021F09EE8872F762F05C0662371F096E8D1
:1040D000862F70E060E02AF09A95660F771F881FA0
:1040E000DAF7880F9695879597F90895990F000844
:1040F000550FAA0BE0E8FEEF16161706E807F907BA
:10410000C0F012161306E407F50798F0621B730B54
:10411000840B950B39F40A2661F0232B242B252BD5
:1041200021F408950A2609F4A140A6958FEF811D78
:10413000811D089597F99F6780E870E060E0089519
:104140009FEF80EC089500240A94161617061806AF
:104150000906089500240A9412161306140605068B
:104160000895092E0394000C11F4882352F0BB0F1C
:1041700040F4BF2B11F460FF04C06F5F7F4F8F4F7F
:104180009F4F089557FD9058440F551F59F05F3FBA
:1041900071F04795880F97FB991F61F09F3F79F069
:1041A00087950895121613061406551FF2CF4695EB
:1041B000F1DF08C0161617061806991FF1CF86956D
:1041C0007105610508940895E894BB276627772751
:1041D000CB0197F908950E94762008F48FEF089597
:1041E0000E9403210C94B1200E94A32038F00E9469
:1041F000AA2020F0952311F00C949A200C94A02072
:1042000011240C94E5200E94C22070F3959FC1F305
:10421000950F50E0551F629FF001729FBB27F00D74
:10422000B11D639FAA27F00DB11DAA1F649F6627C9
:10423000B00DA11D661F829F2227B00DA11D621F18
:10424000739FB00DA11D621F839FA00D611D221FD2
:10425000749F3327A00D611D231F849F600D211DB6
:10426000822F762F6A2F11249F5750409AF0F1F039
:1042700088234AF0EE0FFF1FBB1F661F771F881FA2
:1042800091505040A9F79E3F510580F00C949A2020
:104290000C94E5205F3FE4F3983ED4F38695779540
:1042A0006795B795F795E7959F5FC1F7FE2B880F48
:0E42B000911D9695879597F90895F894FFCF84
:1042BE0010010103FFFFFFFF00E1000000000000FE
:1042CE000100000000C180810000000000000051CC
:1042DE0004BC0572046704B804760494040000005C
:0A42EE00005D084D06980C970C00C7
:00000001FF
