:100000000C94A1030C94C9030C94C9030C94C90368
:100010000C94C9030C94C9030C94C9030C94C90330
:100020000C94C9030C94C9030C94A80C0C94170DE0
:100030000C94C9030C94C9030C94C9030C94C90310
:100040000C94C9030C94C9030C94C9030C94C90300
:100050000C94C9030C94C9030C94C9030C94490F64
:100060000C94C9030C94C9030C94C9030C94C903E0
:100070000C94C9030C94C9030C94C9030C94C903D0
:100080000C94930F0C94C9030C94C9030C94C903EA
:100090000C94C9030C94C9030C94C9030C94C903B0
:1000A0000C94C9030C94C9030C94C903000000000C
:1000B000003E5B4F5B3E3E6B4F6B3E1C3E7C3E1CEE
:1000C000183C7E3C181C577D571C1C5E7F5E1C0034
:1000D000183C1800FFE7C3E7FF0018241800FFE7EB
:1000E000DBE7FF30483A060E2629792926407F05AE
:1000F0000507407F05253F5A3CE73C5A7F3E1C1CC4
:1001000008081C1C3E7F14227F22145F5F005F5F83
:1001100006097F017F006689956A6060606060946F
:10012000A2FFA29408047E040810207E2010080874
:100130002A1C08081C2A08081E101010100C1E0C7F
:100140001E0C30383E3830060E3E0E060000000011
:100150000000005F00000007000700147F147F14F8
:10016000242A7F2A1223130864623649562050003D
:1001700008070300001C2241000041221C002A1C29
:100180007F1C2A08083E0808008070300008080814
:100190000808000060600020100804023E51494534
:1001A0003E00427F400072494949462141494D3352
:1001B0001814127F1027454545393C4A49493141B9
:1001C000211109073649494936464949291E000087
:1001D00014000000403400000008142241141414DC
:1001E0001414004122140802015909063E415D59C8
:1001F0004E7C1211127C7F494949363E41414122D1
:100200007F4141413E7F494949417F090909013EFA
:10021000414151737F0808087F00417F4100204021
:10022000413F017F081422417F404040407F021C33
:10023000027F7F0408107F3E4141413E7F0909094A
:10024000063E4151215E7F09192946264949493216
:1002500003017F01033F4040403F1F2040201F3FDC
:100260004038403F63140814630304780403615961
:10027000494D43007F4141410204081020004141A3
:10028000417F04020102044040404040000307084F
:100290000020545478407F2844443838444444284B
:1002A000384444287F385454541800087E090218F2
:1002B000A4A49C787F0804047800447D400020407A
:1002C000403D007F1028440000417F40007C0478BE
:1002D00004787C080404783844444438FC18242406
:1002E0001818242418FC7C08040408485454542486
:1002F00004043F44243C4040207C1C2040201C3C03
:100300004030403C44281028444C9090907C4464F9
:10031000544C44000836410000007700000041368C
:10032000080002010204023C2623263C1EA1A16112
:10033000123A4040207A3854545559215555794144
:100340002154547841215554784020545579400C1B
:100350001E527212395555555939545454593955FC
:100360005454580000457C410002457D420001453F
:100370007C40F0292429F0F0282528F07C545545AC
:10038000002054547C547C0A097F4932494949323F
:100390003248484832324A4848303A4141217A3A54
:1003A00042402078009DA0A07D39444444393D401E
:1003B00040403D3C24FF2424487E4943662B2FFCCB
:1003C0002F2BFF0929F620C0887E09032054547979
:1003D000410000447D413048484A32384040227A4A
:1003E000007A0A0A727D0D19317D2629292F2826C7
:1003F0002929292630484D402038080808080808CF
:100400000808382F10C8ACBA2F102834FA00007B27
:10041000000008142A142222142A1408950022002D
:1004200095AA005500AAAA55AA55AA000000FF00E7
:10043000101010FF00141414FF001010FF00FF1024
:1004400010F010F0141414FC001414F700FF000056
:10045000FF00FF1414F404FC141417101F10101FD5
:10046000101F1414141F00101010F0000000001FC3
:10047000101010101F10101010F010000000FF10CE
:100480001010101010101010FF10000000FF1400CA
:1004900000FF00FF00001F10170000FC04F41414FC
:1004A0001710171414F404F40000FF00F7141414C8
:1004B00014141414F700F7141414171410101F1048
:1004C0001F141414F4141010F010F000001F101F6B
:1004D0000000001F14000000FC140000F010F010D9
:1004E00010FF10FF141414FF141010101F00000050
:1004F00000F010FFFFFFFFFFF0F0F0F0F0FFFFFF54
:100500000000000000FFFF0F0F0F0F0F38444438AA
:10051000447C2A2A3E147E02020606027E027E02E5
:1005200063554941633844443C04407E201E200604
:10053000027E020299A5E7A5991C2A492A1C4C7241
:1005400001724C304A4D4D303048784830BC625AC8
:10055000463D3E494949007E0101017E2A2A2A2A58
:100560002A44445F444440514A444040444A514034
:100570000000FF0103E080FF000008086B6B0836F5
:1005800012362436060F090F060000181800000066
:100590001010003040FF0101001F01011E00191D55
:1005A0001712003C3C3C3C0000000000F0F89C8E20
:1005B0008783878E9CF8F00000FEFF03030303038C
:1005C000070EFCF80000FEFF0303030303070EFC05
:1005D000F80000FFFF00000000000000FFFF000027
:1005E000FEFF8383838383C7EE7C380000F8FC0E14
:1005F00007030303070EFCF800003F7FE0C0808084
:10060000C0E07F3FFFFF01010101010101FFFF0089
:1006100000FFFF0C0C0C0C1C3E77E3C100007FFFB9
:10062000C0C0C0C0C0E0703F1F00001F3F70E0C0EE
:10063000C0C0E0703F1F00007FFFC1C1C1C1C1E366
:10064000773E1C00001F3F70E0C0C0C0E0703F1F3D
:10065000000000000001FFFF01000000D5F08D1434
:10066000A1C881CFD9F1AF20002C016400F401783A
:10067000000080E80314000080BC021400B6031ED2
:10068000000080BC0219000080F401140084031EE5
:1006900000B00428000080C80032000080423A0008
:1006A00020033C0058023C0090013C00C80096002A
:1006B000008090011E00BC021E0000800B02500052
:1006C00093025000100396000080080B0002020203
:1006D00000000904000001020200000524001001CE
:1006E0000524010101042402060524060001070572
:1006F000810310004009040100020A000000070500
:1007000002024000000705830240000004030904C0
:1007100012010002EF020140412336800001010274
:10072000030141726475696E6F204C4C4300417245
:100730006475696E6F204C656F6E6172646F000046
:10074000271011241FBECFEFDAE0DEBFCDBF11E0CE
:10075000A0E0B1E0EAE4F7E402C005900D92AA3807
:10076000B107D9F726E0AAE8B1E001C01D92A93D82
:10077000B207E1F713E0C1EAD3E004C02197FE011C
:100780000E94EC1EC03AD107C9F70E9454100C9485
:10079000A3230C940000809198010895E5E7F2E00E
:1007A000A0E0B8E000800EBC8111012C1197A0FDE3
:1007B000FDCF0192B9F70DB40895FC018091740248
:1007C000882311F13FB7F89482E08093E9002091EB
:1007D000F200822F90E01816190614F481E090E0E0
:1007E000882339F0289844E6409373024091F10041
:1007F0004083222339F02091F200211103C02BE61F
:100800002093E8003FBF08958FEF9FEF08952FB723
:10081000F89483E08093E9009091E800892F80723A
:1008200095FF04C09091F20080E4891B2FBF0895CA
:1008300080916B0281110DC082E08093670284E099
:100840008093680210926A021092690281E080939C
:100850006B0287E692E00895CF93DF931F92CDB7A6
:10086000DEB76983DC01ED91FC910280F381E02D1C
:1008700041E050E0BE016F5F7F4F09950F90DF911F
:10088000CF91089583E08093E9008091F20088235E
:1008900019F08AE38093E80008950E94070490E02D
:1008A0000895CF93DF931F92CDB7DEB7FC01848507
:1008B000958597FD08C02FEF3FEF358724870F9070
:1008C000DF91CF910895CE0101960E94DD0301973B
:1008D00019F4898190E0F3CF8FEF9FEFF0CF0F9362
:1008E0001F93CF93DF931F92CDB7DEB78C01FC012E
:1008F0008485958597FF0BC0CE0101960E94DD038C
:10090000019771F4898190E0F80195878487F80157
:10091000848595850F90DF91CF911F910F91089558
:100920008FEF9FEFF1CFFC018485958597FD0BC07C
:100930009FB7F89482E08093E9008091F2009FBF16
:1009400090E0019608959FB7F89482E08093E900C3
:100950008091F2009FBF90E0089540916102509114
:10096000620220915F023091600242175307B4F493
:100970009091E8009570E1F39091E80092FD19C024
:100980008093F100809161029091620201968F73D1
:100990009927892B19F48EEF8093E80080916102EA
:1009A000909162020196909362028093610281E0CD
:1009B000089580E00895DF92EF92FF920F931F93C6
:1009C000CF93DF93D82E8A01EB017B01E40EF51E55
:1009D000CE15DF0559F0D7FE12C0FE0184910E94AA
:1009E000AD0421968111F4CF0FEF1FEFC801DF9105
:1009F000CF911F910F91FF90EF90DF900895888124
:100A0000EECF0F931F93CF93DF931F92CDB7DEB737
:100A100082E0898342E450E06AEC76E080E80E945C
:100A2000DB040E941804DC0112960D911C91011543
:100A3000110589F0D801ED91FC910280F381E02D40
:100A4000BE016F5F7F4FC801099597FD04C0F80193
:100A500000851185ECCF89810F90DF91CF911F9197
:100A60000F910895615030F02091F100FC01208336
:100A70000196F8CF289884E68093730208953FB7D3
:100A8000F89480915B0290915C02A0915D02B0911C
:100A90005E0226B5A89B05C02F3F19F00196A11D47
:100AA000B11D3FBFBA2FA92F982F8827BC01CD01B8
:100AB000620F711D811D911D42E0660F771F881F17
:100AC000991F4A95D1F708958F929F92AF92BF9246
:100AD000CF92DF92EF92FF926B017C010E943F0563
:100AE0004B015C01C114D104E104F104B9F00E948E
:100AF0003F05681979098A099B09683E7340810599
:100B0000910580F321E0C21AD108E108F10888EECE
:100B1000880E83E0981EA11CB11CE4CFFF90EF90DB
:100B2000DF90CF90BF90AF909F908F9008958F925D
:100B30009F92AF92BF92CF92DF92EF92FF920F936C
:100B40001F93CF93DF936C017B018A0180910F018A
:100B5000882309F45CC080917402882309F457C08B
:100B60008091660280FF05C08091E00082608093E2
:100B7000E000E801B12C8AEFA82E93E0892E2AE349
:100B8000922E209711F4BB20D9F10E940704811105
:100B90000AC0AA94AA20D9F161E070E080E090E058
:100BA0000E946405EECF8C171D0611F00CF08C2FFF
:100BB0009FB7F8948092E9002091E80025FD02C0DB
:100BC0009FBFDFCF282F30E0C21BD30BF70181502E
:100BD00020F041914093F100FACFE20EF31EBB20CA
:100BE00021F09092E800B12CEBCF8091E80085FDD8
:100BF000E7CF9092E800BB24B394209709F3F3CF9A
:100C00005D9884E680936502101611063CF081E041
:100C100090E0F6019383828310E000E0C801DF9149
:100C2000CF911F910F91FF90EF90DF90CF90BF90E9
:100C3000AF909F908F9008952FB7F89460915702CE
:100C4000709158028091590290915A022FBF0895D5
:100C5000AF92BF92CF92DF92EF92FF920F931F93CA
:100C6000CF93DF936C017B018B01040F151FEB0108
:100C70005E01AE18BF08C017D10759F06991D601BF
:100C8000ED91FC910190F081E02DC6010995892B31
:100C900079F7C501DF91CF911F910F91FF90EF90F0
:100CA000DF90CF90BF90AF90089520919101E09197
:100CB0008F01F0919001CF01029690939001809363
:100CC0008F01222319F0859194910895808191815B
:100CD0000895CF92DF92EF92FF92CF93DF930E941D
:100CE0005506811520E8920791F4809171008D7F5F
:100CF00080937100109291004698479810928E014F
:100D0000DF91CF91FF90EF90DF90CF90089521E099
:100D100020938E01813020E8920751F480918C015C
:100D200090918D019093900180938F010E945506C0
:100D300097FD05C020918B01222309F454C0209116
:100D40008A01211150C021E020939201EC01DF774C
:100D5000209709F04BC081E08093930146983FE9CA
:100D6000C32E3FE0D32EE12CF12CCAEFD0E0E0916E
:100D7000D306F091D4060995811103C081E08093D8
:100D8000930180919201882329F080919301882317
:100D900009F43FC047980E9455060097F1F19C0165
:100DA000DE010E94DD1EDC01CB0129E0B595A7958F
:100DB000979587952A95D1F7109290002AE0209375
:100DC0009100D0929900C0929800809394019093E2
:100DD0009501A0939601B093970180917100826074
:100DE000809371008DCF10929201B0CF9E0150E0A0
:100DF00040E060E472E48FE090E00E94891E6901A7
:100E00007A0181E0C81AD108E108F1081092930133
:100E1000AECF4699BFCF479ABECF8FEF9FEFDC0191
:100E2000CBCF9C01E1E7F0E090819D7F908381E052
:100E3000809391013093900120938F0130938D0125
:100E400020938C010C9469062D9A0895BC0190E0C2
:100E500080E00C9464058FB18095807F669B8860EC
:100E60001C9B846008953E9A3F9A81E0809398018C
:100E7000089520E191E061FD94E060FD990F62FD2D
:100E80009295687F269FD0011124A80FAB58BD4FC3
:100E90008C9140FF03C0892B8C93089590958923F2
:100EA000FBCF8038910528F46034710510F40C9460
:100EB000390708952F923F924F925F926F927F92DF
:100EC0008F929F92AF92BF92CF92DF92EF92FF925A
:100ED0000F931F93CF93DF9300D000D0CDB7DEB731
:100EE0007C018B01242F30E03C832B8381E090E058
:100EF0005C01A21AB30A1901319421943108220C21
:100F0000331CB901600F711F41E0C7010E945107F6
:100F1000B8018B819C81681B790B41E0C7010E945D
:100F2000510741E0B8018B819C818E0D9F1D0E946D
:100F3000510741E0B801C7012B813C81821B930B13
:100F40000E94510781E090E09A838983D12CC12CC3
:100F5000B7FC0BC02B813C81215031093C832B8392
:100F600032E0230E311CA20CB31C8FEFC81AD80A32
:100F700029813A812E5F3F4F3A832983A20EB31E07
:100F800036016E0C7F1C41E08B809C80800E911E90
:100F9000B401C3010E94510727014C185D0841E0CC
:100FA000B401C2010E94510741E048018B819C813C
:100FB000881A990AB401C3010E94510741E0B401A3
:100FC000C2010E9451074601800E911E41E0B4010A
:100FD0006B807C806E0C7F1CC3010E94510741E036
:100FE000B40127012B813C81421A530AC2010E949D
:100FF000510748018C189D0841E0B401C3010E94CB
:10100000510741E0B401C2010E9451078B819C81CC
:10101000C816D9060CF49CCF0F900F900F900F902C
:10102000DF91CF911F910F91FF90EF90DF90CF90C4
:10103000BF90AF909F908F907F906F905F904F90F8
:101040003F902F90089580E0E5E7F2E081118FEF67
:10105000002481938193819381930394D1F710921B
:10106000AA011092A9011092AC011092AB0108954F
:101070008F929F92AF92BF92CF92DF92EF92FF92A8
:101080000F931F93CF93DF936D3089F0C090A90128
:10109000D090AA016A30D1F41092AC011092AB0149
:1010A00088E0C80ED11CD092AA01C092A90181E0AB
:1010B00090E0DF91CF911F910F91FF90EF90DF9023
:1010C000CF90BF90AF909F908F9008950091AB010B
:1010D0001091AC01E5E06E9FE0011124C455DF4F93
:1010E0004801F12CF5E0E12CFF1629F0CE01019624
:1010F000FE01E490EC01B12CA12C4E2D4170B60103
:101100006A0D7B1DC4010E945107E694FFEFAF1AE0
:10111000BF0A88E0A816B10481F7F394EFEF8E1AA6
:101120009E0AF6E0FF12DECF0A5F1F4F1093AC015C
:101130000093AB01BCCF90919D01982329F490912D
:101140009E01982381E009F480E00895CF93C82F91
:101150000E942B07982F9C2381E09C1380E0CF9165
:10116000089580E00C94CE03DF92EF92FF920F93EC
:101170001F93CF93DF937C01D22E8B01040F111D9F
:10118000EB0177FF02C0D0E0C0E0C80101341105D7
:1011900014F080E490E0C817D9073CF44D2DBE014F
:1011A000C7010E9451072196F0CFDF91CF911F9187
:1011B0000F91FF90EF90DF900895CF92DF92EF9222
:1011C000FF920F931F93CF93DF936B01122FEC01CC
:1011D0007C01E40EF11CCE15DF0544F4202F412FD5
:1011E000B601CE010E94B4082196F5CFDF91CF91D0
:1011F0001F910F91FF90EF90DF90CF9008952F9265
:101200003F924F925F926F927F928F929F92AF9296
:10121000BF92CF92DF92EF92FF920F931F93CF93E3
:10122000DF9300D01F92CDB7DEB79B838A837B010B
:101230006A0109838901061B170B17FF03C011956B
:101240000195110946018A819B81881A990A97FEA6
:1012500003C0919481949108801691065CF49C2DB2
:101260008D2D6901292F382F9A818B81FB82EA828B
:10127000E92EF82E8A819B81C816D9065CF49E2D32
:101280008F2D7901292F382F9A818B81DB82CA8299
:10129000C92ED82E16018A819B81281A390A290164
:1012A0004E185F0857FE03C0519441945108310114
:1012B00037FE03C09FEF691A790A759467948FEF20
:1012C000E216F3060CF481E0A82E880FBB088A8191
:1012D0009B81C816D906CCF04981BC01C701801694
:1012E00091061CF0B7018A819B810E945107641806
:1012F000750877FE04C0EA0CFB1C620C731C8A8123
:101300009B8101969B838A83E2CF0F900F900F9071
:10131000DF91CF911F910F91FF90EF90DF90CF90D1
:10132000BF90AF909F908F907F906F905F904F9005
:101330003F902F9008952F923F924F925F926F921D
:101340007F928F929F92AF92BF92CF92DF92EF9255
:10135000FF920F931F93CF93DF9300D000D0CDB7B0
:10136000DEB76C015B01322E842F90E09C838B836F
:10137000440F4F5F681B790BC6010E94B40801E05F
:1013800010E0EB81FC810E1B1F0B4F0191948194A7
:101390009108880C991C66246394712CF12CE12C23
:1013A00017FD0AC08B819C8101979C838B8392E0FF
:1013B000890E911C080D191DEFEFEE1AFE0AF2E0DE
:1013C0006F0E711C060D171D2B80220C2394232DEC
:1013D000422D25018B819C81481A590AB201C7010F
:1013E0008C0D9D1D0E94B408F501EE19FF09FA83CA
:1013F000E983232D462DBF018B819C818C0D9D1D82
:101400000E94B408232D422DB201C6018E199F09F6
:101410000E94B408232D462D69817A81C601EB8193
:10142000FC818E1B9F0B0E94B4088B819C81E81667
:10143000F9060CF4B5CF0F900F900F900F90DF913D
:10144000CF911F910F91FF90EF90DF90CF90BF90C1
:10145000AF909F908F907F906F905F904F903F9054
:101460002F9008952F923F924F925F926F927F92AA
:101470008F929F92AF92BF92CF92DF92EF92FF92A4
:101480000F93CF93DF9300D000D0CDB7DEB75C01D0
:101490007C836B834B0184E0880E911C750194E082
:1014A000E90EF11C8091AD01882379F00E941C06A1
:1014B00024E630E040E050E00E94BB1E47E020FD03
:1014C00046E0B401C7010E945A078B819C810296B5
:1014D0009A83898321E042E0BC01C7010E949B09F5
:1014E00040E069817A81C7010E945107CB80DC808E
:1014F00096E0C90ED11C01E09601A701B401C70115
:101500000E94FF08450186E0880E911C150192E0BB
:10151000290E311C6B817C816B5F7F4F9B01A40185
:10152000C1010E94FF084090A1015090A20160906B
:10153000A3017090A40120E030E040E05FEBC30124
:10154000B2010E945F1F87FF35C08B819C81079687
:101550009C838B839C01A101B601C7010E94FF08F7
:101560002B813C81A401B601C7010E94FF08809134
:10157000010118160CF041C081E090E041E0698162
:101580007A818E0D9F1D0F900F900F900F90DF911D
:10159000CF910F91FF90EF90DF90CF90BF90AF90E1
:1015A0009F908F907F906F905F904F903F902F9083
:1015B0000C9451078B819C8108969C838B8320E03F
:1015C00030E040E85FE3C301B2010E944C201816EE
:1015D00024F401E02B813C81BECFA5014D5F5F4F1C
:1015E00001E02B813C81B601C7010E94FF08A501E3
:1015F0004B5F5F4F2B813C81B6CF8FEF9FEFBECF0C
:10160000EF92FF920F931F93CF93DF937C01EB0137
:10161000042F40E00E945107002E000C110BE00E39
:10162000F11EBE016150710940E0C7010E945107DF
:101630000E0D1F1D40E0BE01C8010E9451072196FA
:1016400040E0BE01C8010E94510740E0BE01C70151
:10165000DF91CF911F910F91FF90EF900C94510764
:101660008F929F92AF92BF92CF92DF92EF92FF92B2
:101670000F931F93CF93DF935C01EB01E42E40E0C7
:101680000E9451074E0181E0881A91080E2C000C2F
:10169000FF086701CA0CDB1C40E0B401C6010E94D0
:1016A000510787010C0D1D1D40E0B401C8010E94C7
:1016B00051074701800E911E40E0BE01C4010E9407
:1016C00051077E018FEFE81AF80A40E0B701C40124
:1016D0000E945107229640E0BE01C8010E945107B6
:1016E00040E0BE01C6010E94510740E0B701C501BC
:1016F0000E94510740E0B701C6010E94510740E037
:10170000B701C801DF91CF911F910F91FF90EF902A
:10171000DF90CF90BF90AF909F908F900C94510727
:101720002F923F924F925F926F927F928F929F92F1
:10173000AF92BF92CF92DF92EF92FF920F93CF932F
:10174000DF93CDB7DEB728970FB6F894DEBF0FBE94
:10175000CDBF1C016B01CB01019798878F83C1011D
:1017600001979A83898300E025E044E16F817885C1
:101770000E94DD08760192E0E91AF108310183E068
:10178000680E711C20E044E0B701C3010E949B0970
:10179000460194E0891A9108510189E0A80EB11C14
:1017A00020E045E0B401C5010E949B09C1010F96EC
:1017B0009C838B8320E044E0B7010E949B092101B8
:1017C00093E1490E511C20E043E06F817885C2010E
:1017D0000E949B0901E023E042E1B601C1010E94A1
:1017E000DD08C10101969E838D8323E040E16F8176
:1017F00078850E94DD0821E043E0B701C3010E9423
:101800009B0921E044E0B401C5010E949B0921E04D
:1018100043E0B7018B819C810E949B0921E042E05B
:101820006F817885C2010E949B0941E06F817885B4
:10183000C10106960E94300B4FEF6F817885C10180
:101840000D960E94300BC60103979C838B8341E069
:10185000BC018D819E810E94000B4FEF6B817C81CA
:10186000C10141960E94000B4FEFB60189819A8118
:101870000E94000B41E0B601C101449628960FB6C4
:10188000F894DEBF0FBECDBFDF91CF910F91FF90D7
:10189000EF90DF90CF90BF90AF909F908F907F9010
:1018A0006F905F904F903F902F900C94000B089595
:1018B00090E080E008951F93FC0101900020E9F77B
:1018C0003197AF01481B590B1AEF14039001159F74
:1018D000300D112420583F4F37FF02C02F5F3F4F7C
:1018E0003595279537FF02C030E020E03093AC01FA
:1018F0002093AB017093AA016093A901FC010190B0
:101900000020E9F73197AF01481B590BBC0185ED69
:1019100096E01F910C9428060C94731ECF92DF92D0
:10192000EF92FF926B017C01C114D104E104F10438
:1019300041F00E941B1EA70196010E94891E6B01A7
:101940007C01C701B601FF90EF90DF90CF90089522
:101950001F920F920FB60F9211248F939F93809135
:10196000E1009091E100937F9093E10083FF0FC02D
:101970001092E90091E09093EB001092EC0092E35A
:101980009093ED001092740298E09093F00082FF23
:1019900022C093E09093E9009091F200992319F00E
:1019A0009AE39093E80090916502992341F0909119
:1019B0006502915090936502911101C05D9A9091DA
:1019C0007302992341F090917302915090937302A6
:1019D000911101C0289A84FF18C08091E2008E7E88
:1019E00081608093E2008091E1008F7E8093E1002E
:1019F000809166028E7E8061809366029F918F91B6
:101A00000F900FBE0F901F90189580FFF7CF809119
:101A1000E2008E7E80618093E2008091E1008E7E04
:101A20008093E100809166028E7E8160E5CF1F92F7
:101A30000F920FB60F921124CF92DF92EF92FF9286
:101A40000F931F932F933F934F935F936F937F93C6
:101A50008F939F93AF93BF93EF93FF93CF93DF93B6
:101A6000CDB7DEB76C97DEBFCDBF1092E900809195
:101A7000E80083FF25C068E0CE0145960E9432054C
:101A800082EF8093E8008D8987FF39C09091E8004C
:101A900090FFFCCF982F907609F034C19E894F8932
:101AA000588D2F89F88C911131C0803861F5809163
:101AB00064028093F1001092F1008EEF8093E800B1
:101AC0006C960FB6F894DEBF0FBECDBFDF91CF91FD
:101AD000FF91EF91BF91AF919F918F917F916F9106
:101AE0005F914F913F912F911F910F91FF90EF9038
:101AF000DF90CF900F900FBE0F901F9018959EEF24
:101B00009093E800C7CF1092F100D5CF913059F4EF
:101B10008111D3CF4130510581F6809164028D7FD0
:101B200080936402CACF933049F48111C6CF41300B
:101B3000510519F6809164028260F2CF953041F42C
:101B40008091E80080FFFCCF20682093E300B5CFB0
:101B5000963009F0A9C00B8D1C8D22E01092E9008F
:101B60001092620210926102F2122EC01092600274
:101B700010925F020E9401051F8299E09983FA8208
:101B800091E09E8390EA98879AEF9987209161026D
:101B900030916202275F3F4F3C832B838D831092ED
:101BA000E9001092620210926102109360020093A9
:101BB0005F0249E050E0BE016F5F7F4F80E00E940E
:101BC000DB040E94010579CF1093600200935F024D
:101BD0000E941804DC0112960D911C91011511054B
:101BE00009F451C1D801ED91FC910480F581E02DFB
:101BF000BE016B5E7F4FC8010995009709F03EC199
:101C0000F80100851185EACFF3E0FF120EC08F893D
:101C1000882309F440C0823061F440E860E18EE23C
:101C200097E00E94F40F811148CF81E28093EB008E
:101C300047CF813029F440E86BE082E297E0F1CFB2
:101C4000833099F70E941804DC011296ED90FC9005
:101C50008E010F5F1F4F6801E114F10479F0D70185
:101C6000ED91FC910680F781E02DB801C70109953F
:101C7000080F111DF701E084F184EECFD8011C920A
:101C8000F60101900020E9F73197BF016C197D0939
:101C900040E0C601C6CF6CE077E0FB01449150E024
:101CA00080E80E94DB0409CF973009F4BECF98305A
:101CB00021F481E08093F10000CF993009F0FDCE4E
:101CC000837009F0B2CFE5E1F1E081E031E096E325
:101CD0002191222371F08093E9003093EB00DF0122
:101CE00011972C912093EC009093ED008F5F87303B
:101CF00079F78EE78093EA001092EA008F8980934B
:101D00007402DBCE8B8D9C8D1092E90010926202E2
:101D1000109261029093600280935F02898D81111D
:101D200092C08E899D89913A49F4813209F07DCF24
:101D300047E050E068E071E080E0B3CF913209F015
:101D400074CF833269F48F89988DB0E0A0E08093DE
:101D5000040190930501A0930601B0930701ADCE55
:101D6000803269F48091E80082FFFCCF67E088E070
:101D700091E00E9432058BEF8093E8009ECE823284
:101D800009F09BCE8F8980930F01EEEFFFE78591DD
:101D900094918B3F9C4D51F1E0E0F8E08091080177
:101DA00090910901A0910A01B0910B01803B9440F0
:101DB000A105B105F1F480910F0180FD1AC0EE3F3D
:101DC0008AE0F80789F587E797E791838083809118
:101DD00060008093630288E19BE00FB6F894A895B9
:101DE000809360000FBE9093600067CEEEEFFAE044
:101DF000D5CF808191818737974709F05ECEA8952E
:101E0000809160008861809360008091630280937C
:101E10006000EE3F2AE0F20789F08091FE0A90917F
:101E2000FF0A9183808349CE80819181873798070B
:101E300051F29093FF0A8093FE0AC5CF1092FF0AD9
:101E40001092FE0A3ACE0E941804DC0112960D91FF
:101E50001C910115110509F4E8CED801ED91FC9112
:101E60000190F081E02DBE016B5E7F4FC8010995A6
:101E7000811123CEF80100851185EBCF18161906C4
:101E80000CF41BCED2CEF1E0FF12BECE60E177E0C3
:101E900004CF1F920F920FB60F9211242F933F93EE
:101EA0008F939F93AF93BF93809157029091580265
:101EB000A0915902B0915A023091560223E0230FAB
:101EC0002D3758F50196A11DB11D20935602809320
:101ED000570290935802A0935902B0935A028091EE
:101EE0005B0290915C02A0915D02B0915E0201964E
:101EF000A11DB11D80935B0290935C02A0935D02D3
:101F0000B0935E02BF91AF919F918F913F912F91BE
:101F10000F900FBE0F901F90189526E8230F029682
:101F2000A11DB11DD2CF1F920F920FB60F92112497
:101F30002F933F934F935F936F937F938F939F93D1
:101F4000AF93BF93EF93FF9380919401909195018C
:101F5000A0919601B0919701892B8A2B8B2B09F4C4
:101F600040C08091930181110BC088B190E4892712
:101F700088B980919201882319F088B1805888B976
:101F80008091940190919501A0919601B091970153
:101F9000181619061A061B069CF48091940190915C
:101FA0009501A0919601B09197010197A109B109FE
:101FB0008093940190939501A0939601B09397011B
:101FC000FF91EF91BF91AF919F918F917F916F9111
:101FD0005F914F913F912F910F900FBE0F901F90E7
:101FE00018950E946906ECCFEF92FF920F931F9312
:101FF000CF93DF93F82E192FE62E042F81E0860F62
:10200000880F0E94AD0483E00E94AD04CF2DD12F34
:10201000EC0EFD2EF11CCE15DF05B9F007FF13C045
:10202000FE0184910E94AD04182F80E00E94AD044F
:10203000812321968111EFCFDF91CF911F910F91D5
:10204000FF90EF9008958881EDCF81E0F5CFE5E72F
:10205000F6E01382128288EE93E0A0E0B0E0848381
:102060009583A683B7838FE191E0918380838FEF7F
:102070009FEF95878487E5EDF6E01382128281E376
:1020800091E0918380838BEC93E09093D4068093CE
:10209000D30680E090E89093D2068093D1064698CC
:1020A0003E9A47983F9A0895CF93DF93CDB7DEB716
:1020B000AD970FB6F894DEBF0FBECDBF789484B550
:1020C000826084BD84B5816084BD85B5826085BD34
:1020D00085B5816085BD80916E00816080936E00C2
:1020E00010928100809181008260809381008091B4
:1020F0008100816080938100809180008160809365
:102100008000809191008260809391008091910085
:102110008160809391008091900081608093900015
:102120008091C10084608093C1008091C100826071
:102130008093C1008091C10081608093C100809133
:10214000C30081608093C3008091C000826080934F
:10215000C0008091C20081608093C20080917A00AB
:10216000846080937A0080917A00826080937A0004
:1021700080917A00816080937A0080917A008068F3
:1021800080937A0010927402109264021092660298
:102190008091D70081608093D70080EA8093D80037
:1021A00089B5806189BD89B5826089BD09B400FEA9
:1021B000FDCF61E070E080E090E00E9464058091D6
:1021C000D8008F7C80618093D8008091E000807F70
:1021D0008093E0008091E1008E7E8093E1008DE0AD
:1021E0008093E200559A209A81EC80937C0085B11F
:1021F000806F85B984B1877E84B984B1876E84B9D4
:102200005E9A5F988AB1806D8AB9769A6E9881B32A
:10221000806F81BB899880B38D7080BB80E58CBD59
:1022200081E08DBD85E090E00E9426075F9A85E001
:1022300090E00E9426075E985C98ECE5F6E08491B9
:102240008EBD00000DB407FEFDCF319606E0E936E5
:10225000F007A9F75C9A81E880936400809165009B
:102260008160809365000E94B10880E80E94A60802
:102270008823A9F05C9885EA8EBD00000DB407FEA6
:10228000FDCF5C9A2E982F982D98809164008062E3
:102290008093640081E083BF889513BEFCCF84E007
:1022A0000E94A608882309F448C02D9884E80E945B
:1022B000A6088823E1F00E94240788EC90E00E94A1
:1022C00026072F9882E090E00E94731E8F3F29F02E
:1022D0006FEF82E090E00E947B1E84EF91E00E940D
:1022E00026072F9A84E80E94A6088111FBCF84E17B
:1022F0000E94A6088823E1F00E94240788EC90E061
:102300000E9426072E9882E090E00E94731E882388
:1023100029F060E082E090E00E947B1E84EF91E073
:102320000E9426072E9A84E10E94A6088111FBCF05
:1023300088EC90E00E942607B2CF0E94240782E03A
:1023400090E00E948C0C882309F475C00E9433072A
:1023500081E090E00E948C0C182F1470712E81FF88
:1023600013C011112E9801EF1FEF68E0E62EF12C3B
:1023700078E5672E80E40E94A608882309F460C0EF
:102380002E9A2F9A0E94240782E390E00E9426074B
:102390000E942B078111F8CF80E18093000180918A
:1023A00064008E7F8093640080917A0080648093C3
:1023B0007A0080917A0086FDFCCF00917800109120
:1023C00079000E943F05AB01BC01C801B0E0A0E06C
:1023D000DC01992788278C019D01040F151F261FFA
:1023E000371FC901B8012091640021602093640067
:1023F000611571058105910511F00E946A1E0E9408
:1024000033070E9423080E94B10864E670E080E070
:1024100090E00E9464050E941C0680919B01882325
:1024200009F4D1C010929B0180E090E0892B99F3D0
:102430000E940000F0CF109298013E983F9888CFFC
:10244000772029F00430110511F42E9A2F9881E09D
:102450000E94CE03980117FF04C022273327201BB8
:10246000310B27703327C80117FD079653E0959568
:1024700087955A95E1F717FF05C00197A701421B01
:10248000530B9A01BC017695762F66277795679551
:102490006B587D4FB0E0A0E02701421A530A8E3FEF
:1024A0005FEF950709F43FC06A9E50016B9EB00C28
:1024B000112450E040E0F501E455FA4F5F014B0173
:1024C000F0E88F0E911C8F3F980791F0F501E40F13
:1024D000F51FE4916B01C40ED51EF0E01F01022E22
:1024E00001C0220C0A94EAF7F60134882328248AD2
:1024F0002115310599F0F501E40FF51FE491640110
:10250000C40ED51EF0E01F01042C02C035942794A0
:102510000A94E2F7F60134882328248A4F5F5F4F3C
:102520004835510581F6019660587F4F119709F0A3
:1025300047C00E94B1088FE090E00E9426070F5F1D
:102540001F4F0931110509F015CF772011F02F9A8F
:102550002D9880E991E00E9426070E94240781E0DF
:1025600090E00E948C0C80FF0FCF8AE090E00E94E8
:102570008C0C9FEF980F9E3F08F006CF22E330E0CF
:102580003093AC012093AB0128E330E03093AA01F3
:102590002093A9010BE010E0682F85ED96E00E94E2
:1025A0003808C8010E948C0C0F5F1F4F01311105C4
:1025B00099F70E94B10888EE93E00E942607E4CEC6
:1025C000A1E0B0E06CCF80919C01162F181B812FE9
:1025D00090910001191748F48F5F891708F024CFF4
:1025E00081E083BF889513BE1FCF11E010939B013C
:1025F00060939C018091990190919A01019690932A
:102600009A018093990180919E0180939D010E947F
:102610002B0780939E018091540290915502813046
:10262000910509F4BCC108F491C0029709F0FCCEF1
:102630000E94230864E070E08FE591E00E945B0C4B
:10264000809153028F93809152028F938091510217
:102650008F93809150028F938AE691E09F938F939E
:1026600032E7E32E31E0F32EFF92EF921F9248E122
:10267000D42EDF928E010F5F1F4F1F930F930E9486
:10268000BE2064E170E0C8010E945B0C80914F02A3
:102690008F9380914E028F9380914D028F93809102
:1026A0004C028F9388E791E09F938F93FF92EF9274
:1026B0001F92DF921F930F930E94BE206EE170E085
:1026C000C8010E945B0C21E043E06CE270E080E412
:1026D00090E00E949B0940E06BE270E08FE390E0A5
:1026E0000E94390740E06BE270E081E490E00E94D4
:1026F000390701E02DE230E041E450E06EE270E0A5
:102700008FE390E00E94FF080E941C0620E931E060
:1027100040E050E00E94BB1E0FB6F894DEBF0FBE33
:10272000CDBF20FD06C067E370E080E891E00E9425
:102730005B0C0E94B10884E00E949B08882309F486
:1027400073CE10925502109254026ECE0E9423084E
:102750006EE070E084E090E00E94900B66E170E033
:1027600080E690E00E94900B0E941C0628EC30E06E
:1027700040E050E00E94BB1E23703327B901665E23
:102780007F4F8CE390E00E94320A62E070E089E3C0
:1027900091E00E945B0C6DE270E086E491E00E94A3
:1027A0005B0C0E941C0620E931E040E050E00E94F2
:1027B000BB1E20FD06C067E370E087E591E00E9444
:1027C0005B0C0E94B10888E00E949B08882309F4F2
:1027D0002BCE0CEF11E08CE492E0F80116823896D3
:1027E0008E179F07D9F71092C2011092CB01109259
:1027F000D4011092DD011092E7011092F1011092C4
:10280000FB0180E090E0A0E7B2E48093B2019093F6
:10281000B301A093B401B093B50180E090E0A8E4C7
:10282000B2E48093B6019093B701A093B801B0933E
:10283000B9011092A5011092A6011092A701109261
:10284000A80123E333E343E950EC2093A101309343
:10285000A2014093A3015093A401FF24F394F092AA
:102860000101F09202011092A00110925002109208
:10287000510210925202109253021092AD01109226
:102880009F0183E0809303010E941C066093AE01C8
:102890007093AF018093B0019093B101F092020266
:1028A000109203021092010288E390E09093FD01E0
:1028B0008093FC018AE390E09093FF018093FE01F6
:1028C00010920002B4E4CB2EB2E0DB2E86E2E82EBA
:1028D000F12CBB24B39493E0A92E22E0922ED801D0
:1028E0001E96BC921E971F961C9266E670E080E0D2
:1028F00090E00E948E0C6C5F7F4F8F4F9F4FF801CE
:1029000071876087F386E286148664E670E080E073
:1029100090E00E948E0C6C3390F5D8011D961C92AD
:10292000D8011D968C91813069F462E070E080E0FE
:1029300090E00E948E0C672B682B692B71F181E06F
:10294000F801848768E070E080E090E00E948E0CDF
:10295000625F7F4F8F4F9F4FE61AF70A085F1F4F46
:10296000C016D10609F0BBCF81E090E090935502EC
:10297000809354028CEB96E00E94110755CD603590
:1029800018F4F801B586CCCF6C3520F4D8011D962B
:102990009C92C6CFF801A586C3CF8FEFD1CF80E23E
:1029A0000E94A608882309F40BC40DEC1CEC2CEC47
:1029B0003FEB0093A5011093A6012093A70130934C
:1029C000A8018FEF8093010180E80E949B08882373
:1029D000B1F080910201882391F081EE9AE7A4E89A
:1029E000B0EC8093A1019093A201A093A301B093B6
:1029F000A4011092020189E796E00E94110780E18C
:102A00000E94A6088093A00188E00E949B0888236A
:102A100009F43FC0EAEBF1E090E080E0208521116D
:102A200017C429E0289F8001299F100D1124065406
:102A30001E4F81E0D80118968C9320E030E040E8EA
:102A400050E46091B2017091B3018091B401909112
:102A5000B5010E94F31EF801608371838283938322
:102A600020E030E040E050E46091B6017091B701A1
:102A70008091B8019091B9010E94F21ED80114967C
:102A80006D937D938D939C93179783E796E00E94B7
:102A9000110784E00E949B088823A9F0809103011C
:102AA000882389F09091AD0191110DC091E0909330
:102AB000AD0198E790939F0181508093030189E6CF
:102AC00096E00E9411072091A5013091A601409146
:102AD000A7015091A8016091B2017091B30180915A
:102AE000B4019091B5010E94F31E6B017C0120E0BE
:102AF00030E040E051EC0E945F1F87FDB0C3C09200
:102B0000B201D092B301E092B401F092B50120E09D
:102B100030E040E053E46091B2017091B3018091E4
:102B2000B4019091B5010E944C20181664F480E025
:102B300090E0A0E0B1EC8093B2019093B301A09338
:102B4000B401B093B5012AE939E949E95EE360913E
:102B5000A1017091A2018091A3019091A4010E9412
:102B6000F31E6093A1017093A2018093A30190933F
:102B7000A4012091A001222371F02DEC3CEC4CE04B
:102B80005FE30E94F31E6093A1017093A201809302
:102B9000A3019093A40120E030E040E151E4609172
:102BA000A1017091A2018091A3019091A4010E94C2
:102BB0004C20181664F480E090E0A0E1B1E480932A
:102BC000A1019093A201A093A301B093A4018090CE
:102BD000A1019090A201A090A301B090A401209126
:102BE000B6013091B7014091B8015091B901C501CA
:102BF000B4010E94F31E6B017C01C092B601D09219
:102C0000B701E092B801F092B90120E030E0A901EB
:102C1000C501B4010E944C2018160CF087C020E0BA
:102C200030E040E850E46091B2017091B3018091CE
:102C3000B4019091B5010E94F31E4B015C0120E0AC
:102C400030E040E051E4C701B6010E94F31E2B01C1
:102C50003C010CEF11E0ACE42A2EA2E03A2EDD2478
:102C6000D394F8018681882309F45AC087818111A1
:102C700057C0E080F180B7010F2C000C880B990B36
:102C80000E949C1F9B01AC01C501B4010E944C2015
:102C900018160CF045C0B7016E5E7F4F072E000C72
:102CA000880B990B0E949C1F9B01AC01C501B401CC
:102CB0000E945F1F87FF34C0D8011296ED90FC90F0
:102CC000B7010F2C000C880B990B0E949C1F9B01D5
:102CD000AC01C301B2010E944C2018160CF5B701DB
:102CE000675F7F4F072E000C880B990B0E949C1F7B
:102CF0009B01AC01C301B2010E945F1F87FF10C09E
:102D0000F801C580F2E0CF12B7C28091A001811115
:102D1000B3C2D8011796DC9287E996E00E941107AA
:102D2000085F1F4F2016310609F09BCF8091AD013F
:102D3000882349F080919F01815080939F018111E8
:102D400002C01092AD0180915402909155020197FA
:102D500009F06ACBC090B601D090B701E090B801FD
:102D6000F090B90120E030E040EC51E4C701B60139
:102D70000E945F1F87FF93C0C701B6010E94641FB6
:102D800008E110E0061B170B80E090E0A0ECB1E436
:102D90008093B6019093B701A093B801B093B901A5
:102DA000ECEFF1E08681882331F082819381800FFE
:102DB000911F93838283389692E0EC34F90791F760
:102DC000EAEBEE2EE1E0FE2EFEEDCF2EF1E0DF2E5F
:102DD0004801012E000CAA08BB08D70118968C9157
:102DE0008823A1F0C501B4010E949C1F9B01AC0186
:102DF000F70164817581868197810E94F31ED70156
:102E000014966D937D938D939C931797B9E0EB0E79
:102E1000F11CCE14DF0409F76EEDE62E61E0F62E0C
:102E20007CEFC72E71E0D72E4801012E000CAA08B6
:102E3000BB08F70181858823A1F0C501B4010E9478
:102E40009C1F9B01AC01D70114966D917D918D91D2
:102E50009C9117970E94F31EF70164837583868304
:102E60009783FAE0EF0EF11CCE14DF0411F7C801CE
:102E7000110FAA0BBB0B009150021091510220912F
:102E8000520230915302800F911FA21FB31F8093F3
:102E9000500290935102A0935202B09353020CEF50
:102EA00011E019A708A718013FEF41E0D1011696DC
:102EB0008C9116978823F1F014962C911497222365
:102EC000C9F08D919C911197820F911D27FD9A95C4
:102ED00097FD06C28D939C93D1018D919C91119782
:102EE0008F3691053CF0EEE6F0E01196FC93EE9300
:102EF00014963C93F8E02F0E311C0CE4201602E0EF
:102F00003006A1F62AEB31E03BA72AA73BA32AA370
:102F1000AAA1BBA118968C9118978823F1F020E004
:102F200030E040E650E414966D917D918D919C9136
:102F300017970E94F21EEAA1FBA164837583868322
:102F4000978320E030E040E850EC0E945F1F87FF4D
:102F500004C0AAA1BBA118961C920AA11BA1075FDD
:102F60001F4F1BA30AA30E5D114091F680915002E2
:102F700090915102A0915202B09153028536910571
:102F8000A105B105E8F160EA7FE080E090E00E94F1
:102F90008E0C6B017C010E941C0638E8C30E33E1E5
:102FA000D31EE11CF11C0091AE011091AF012091E4
:102FB000B0013091B101601B710B820B930BC616EF
:102FC000D706E806F906E0F40E941C066093AE01FD
:102FD0007093AF018093B0019093B1018091E701AC
:102FE000882309F482C18091F101882309F4B5C1D5
:102FF0008091FB0152E0E52EF12C882309F477C182
:103000000EED11E01DA70CA7D80119968C91199708
:10301000882309F4CCC018966C91062E000C770B0F
:10302000880B990B0E949C1FF801208131814281FD
:1030300053810E94F31E6B017C0120E030E0A90166
:103040000E945F1F87FD8FC1D801CD92DD92ED9266
:10305000FC92139720E030E040EF52E4D8016D91EC
:103060007D918D919C910E944C2018165CF480E01B
:1030700090E0A0EFB2E4F80180839183A283B38350
:103080002FEF208723E333E343EB5EE3D80114966D
:103090006D917D918D919C9117970E94F31E6B010C
:1030A0007C01F801C482D582E682F78220E030E01C
:1030B00040E952E40E944C2018161CF4D8011996DD
:1030C0001C92F8018185882309F471C08090B201B7
:1030D0009090B301A090B401B090B50140805180B0
:1030E0006280738020E030E040E051E4C501B4012B
:1030F0000E94F31EA30192010E944C2018160CF0AE
:1031000056C020E030E040E051E4C301B2010E942B
:10311000F31E9B01AC01C501B4010E945F1F87FF34
:1031200046C08090B6019090B701A090B801B090D1
:10313000B90120E030E040E051E4C501B4010E9453
:10314000F31E9B01AC01C701B6010E945F1F87FF00
:103150002EC020E030E040EC50E4C701B6010E94F0
:10316000F31E9B01AC01C501B4010E945F1F87FFE4
:103170001EC08091500290915102A0915202B091D4
:1031800053022091AD01222309F4F5C0F801118604
:103190004496A11DB11D8093500290935102A093BB
:1031A0005202B093530282EB96E00E941107065F31
:1031B0001F4F2CEF31E02017310709F025CFFAC05F
:1031C00080E40E94A608882379F02DEC3CEC4CECBE
:1031D0005FE32093A5013093A6014093A70150938C
:1031E000A80110930101F0CB2DEC3CEC4CE45FE323
:1031F0006091A5017091A6018091A7019091A8010D
:103200000E9451206B017C01C092A501D092A601C1
:10321000E092A701F092A8012DEC3CEC4CE45DEBB0
:103220000E944C2018160CF0CFCB2DEC3CEC4CE45B
:103230005DE3C701B6010E945F1F87FFC5CB1092F7
:10324000A5011092A6011092A7011092A801BCCB73
:10325000019639968430910509F0E0CB1ACC80E0D4
:1032600090E0A0E0B3E48093B2019093B301A09307
:10327000B401B093B5014BCCB70168507109072E6A
:10328000000C880B990B0E949C1F6093B6017093F1
:10329000B7018093B8019093B901D0920201B3E0D5
:1032A000CB120FC021EE3AE744E051EC2093A1018C
:1032B0003093A2014093A3015093A40189E896E0C2
:1032C0002DCD83E393E3A3E9B0EC8093A101909328
:1032D000A201A093A301B093A40183E896E01ECDC0
:1032E000F101118210824483F7CDF12CE12C8AE0A8
:1032F0008E9D80018F9D100D112402521E4F81E082
:10330000D80119968C9368E770E080E090E00E9405
:103310008E0C0E949C1FF8016083718382839383CB
:1033200080E090E0A0E0B1EC84839583A683B7832E
:1033300062E070E080E090E00E948E0C672B682BCA
:10334000692B79F081E09AE09E9DF0019F9DF00D40
:103350001124E252FE4F808753CEEE24E394F12CE9
:10336000C6CF8FEFF0CFF801108211821282138244
:1033700021E020876FCE22E030E030935502209389
:10338000540240914C0250914D0260914E02709156
:103390004F02481759076A077B0740F480934C0295
:1033A00090934D02A0934E02B0934F0280EA96E0B4
:1033B0000E9411078091540290915502019709F0E3
:1033C00033C84AEB51E05FA34EA33AE0D32EAEA13F
:1033D000BFA118968C91882309F474C00EED11E0FA
:1033E000F12CE12CF8018185882309F4ADC2AEA14E
:1033F000BFA18D909D90AD90BC9040805180628027
:103400007380A3019201C501B4010E944C201816DB
:103410000CF09AC220E030E040E051E4C301B20178
:103420000E94F31E9B01AC01C501B4010E945F1F05
:1034300087FF8AC2EEA1FFA184809580A680B78015
:10344000D80114964D905D906D907C901797A301D4
:103450009201C501B4010E944C2018160CF074C2F0
:1034600020E030E040EC50E4C301B2010E94F31EC2
:103470009B01AC01C501B4010E945F1F87FF64C2BC
:10348000EEA1FFA11086DE9CF001DF9CF00D11245F
:10349000E252FE4F11868091500290915102A0910C
:1034A0005202B09153024496A11DB11D8093500267
:1034B00090935102A0935202B093530282EB96E094
:1034C0000E9411074EA15FA1475F5F4F5FA34EA30C
:1034D0000AA11BA10417150709F079CF2CEFA22E22
:1034E00021E0B22ED50116968C911697882349F0CB
:1034F00012968D919C9113978734910514F016962E
:103500001C92B8E0AB0EB11C2A143B0459F7ECEF47
:10351000F1E090E4E92EF12C8681882331F082815C
:1035200093818E159F050CF47C013896EA15FB05F6
:1035300099F71DE0C12ED12C7724739403E0602EFF
:1035400082E0582EECEFEE16EFEFFE0694F0F1E07D
:10355000CF1AD10871F0ECEFF1E010E000E08681C5
:10356000882309F4D5C20F5F1F4F38960A30110522
:10357000B1F720E030E048E852E46091B601709184
:10358000B7018091B8019091B9010E944C201816A2
:103590003CF582E090E09093550280935402809134
:1035A000500290915102A0915202B0915302409169
:1035B0004C0250914D0260914E0270914F0248179B
:1035C00059076A077B0740F480934C0290934D02A1
:1035D000A0934E02B0934F0280EA96E00E9411073A
:1035E0008091540290915502019711F00C9414129D
:1035F0000E94230860915002709151028091520202
:1036000090915302F2E09695879577956795FA9594
:10361000D1F728E230E040E050E00E94BB1E6B0191
:1036200004E010E0B801660F771F600F711F6C0D8A
:103630007D1D6F7377276B30710524F041E0C80161
:103640000E945107005F1F4F0438110559F741E0F0
:103650006EE070E084E190E00E94390741E06EE1A5
:1036600070E080E590E00E94390741E062E170E09F
:1036700080E790E00E943907E8A5F9A586818823B4
:10368000B1F1E280F380C70108968D34910578F599
:10369000C080D1808781882309F49BC121E043E069
:1036A000B701C60102960E949B09B70162507109D9
:1036B00021E043E0C60109960E949B09B7016F5FB4
:1036C0007F4F21E043E0C6010F960E949B09B7019E
:1036D0006D5F7F4F41E0C60105960E945107B7011B
:1036E0006450710941E0C6010C960E94510748A53B
:1036F00059A5485F5F4F59A748A7A416B50609F01A
:10370000BBCFACA5BDA519968C911997882309F458
:103710004CC014966D917D918D919C9117970E944C
:10372000641F6AA37BA38CA39DA3ECA5FDA5608168
:103730007181828193810E94641F2B01CAA0DBA04A
:10374000F2E0CF0ED11CCB01029601E022E044E072
:10375000B6010E94DD080E941C06420103E0800EB3
:10376000911C520118E0A10EB11C720125E0E20E7D
:10377000F11C26E930E040E050E00E94BB1E20FF33
:10378000B2C101E09601A4016AA17BA1C2010E941D
:10379000FF082AA13BA1A501B601C7010E94FF08AD
:1037A00040E0B601C7010E9451074CA55DA5465FE8
:1037B0005F4F5DA74CA78CEF91E08417950709F048
:1037C000A0CFAAA5BBA518968C9118978823B9F00D
:1037D00014966D917D918D919C9117970E94641F15
:1037E0006B01EAA5FBA560817181828193810E94B2
:1037F000641FCB0121E041E0B6010E949B090AA5AC
:103800001BA5075F1F4F1BA70AA72EA13FA10217E9
:103810001307B9F66091B6017091B7018091B801B4
:103820009091B9010E94641F6B016091B201709187
:10383000B3018091B4019091B5010E94641FCB0146
:10384000B6010E94320A00E028E040E870E060E043
:1038500090E080E00E94DD0801E028E030E04FE7E2
:1038600050E068E070E090E080E00E94FF0882E0B5
:1038700090E09093AC018093AB011092AA0110925A
:10388000A901209150023091510240915202509171
:10389000530219A28E010F5D1F4FCA01B9012AE020
:1038A00030E040E050E00E94BB1E605DD8016E93A6
:1038B0008D01211531054105510579F7109769F002
:1038C000FD0101900020E9F73197AF014A1B5B0B26
:1038D000BD0185ED96E00E94280680E690E0909379
:1038E000AC018093AB011092AA011092A9010DE9DD
:1038F00016E0F8016491662341F085ED96E00E94A0
:1039000038080F5F1F4F892BA1F750E7E52EF12CE8
:1039100010E000E0809103018017110609F00CF41B
:10392000F0C021E042E064E070E0C7010E949B0922
:103930000F5F1F4FF5E0EF0EF11C0330110551F73B
:103940000E94B1080C941412FFEFEF1AFF0A065FF1
:103950001F4F23E0E216F10409F044CDB3CD80E01F
:10396000653508F083E0F801B3E0EE0FFF1FBA956C
:10397000E1F7E450FE4F8583A3E0000F111FAA95E5
:10398000E1F7F801E450FE4F8581813009F0DACD8E
:1039900062E070E080E090E00E948E0C672B682B64
:1039A000692BA9F081E004501E4FD80114968C9326
:1039B000C9CD6B3418F4F4017582DECF6A3520F47A
:1039C000D40115965C92D8CFF4016582D5CF8FEFE4
:1039D000EACFA8A5B9A515961C91B701C6010E940A
:1039E000900B123079F1133009F452C0113009F004
:1039F0007ECE87010E5F1F4F41E0B801C6010397DD
:103A00000E94510741E0B801C60104970E94510786
:103A100041E0B801C60144960E94510741E0B80157
:103A2000C60145960E945107BFEFEB1AFB0A40E022
:103A3000B701C60105960E94510740E0B701C601D3
:103A40000D9653CE4601E9E08E0E911C3701F2E04F
:103A50006F1A710800E09701A401B301C601069630
:103A60000E94FF08A601445F5F4F9301B701C401A4
:103A70000E94FF08B7016F5F7F4F40E0C4010E94C2
:103A80005107B7016150710940E0C60107962DCE7C
:103A9000460107E0800E911CB7016650710901E0F4
:103AA00023E044E0C4010E94DD08870107501109AA
:103AB00029E0C20ED11C21E043E0B801C6010E94FA
:103AC0009B0920E042E0B801C6010E949B0938E052
:103AD000E31AF10841E0B701C6010E94510741E035
:103AE000B701C40102CE2AA03BA033E0230E311C53
:103AF00001E09601A401B101C2010E94FF089101F9
:103B00004ACE42E064E070E0C7010E945A0710CF3D
:103B10006AE070E080E090E00E948E0C625F7F4F70
:103B20008F4F9F4FE61AF70AC80123E0880F991FAD
:103B30002A95E1F79C0124503E4F4901D901169680
:103B40007C92169717961C9266E670E080E090E0F3
:103B50000E948E0C6C5F7F4F8F4F9F4FF4017183DB
:103B60006083F382E282148264E670E080E090E099
:103B70000E948E0C8091500290915102A0915202AD
:103B8000B091530280359105A105B10508F4E7CE47
:103B9000673308F00ECFD40115961C92EDCE8F92AC
:103BA0009F92AF92BF92CF92DF92EF92FF92CF930C
:103BB000DF93EC01688179818A819B8161157105B0
:103BC0008105910521F464E279ED8BE597E02DE123
:103BD00033EF41E050E00E94891E49015A019B01E8
:103BE000AC01A7EAB1E40E94A81E6B017C01ACEE17
:103BF000B4EFA50194010E94B61EC60ED71EE81EA2
:103C0000F91EF7FE06C081E0C81AD108E10880E875
:103C1000F80AC882D982EA82FB82C701B6019F777F
:103C2000DF91CF91FF90EF90DF90CF90BF90AF905A
:103C30009F908F9008958F929F92AF92BF92CF9254
:103C4000DF92EF92FF9260911001709111018091CB
:103C5000120190911301611571058105910521F4FF
:103C600064E279ED8BE597E02DE133EF41E050E040
:103C70000E94891E49015A019B01AC01A7EAB1E4E7
:103C80000E94A81E6B017C01ACEEB4EFA50194016B
:103C90000E94B61EC60ED71EE81EF91EF7FE06C00D
:103CA00081E0C81AD108E10880E8F80AC092100142
:103CB000D0921101E0921201F0921301C701B601F6
:103CC0009F77FF90EF90DF90CF90BF90AF909F9045
:103CD0008F900895609310017093110180931201E9
:103CE000909313010895F999FECF92BD81BDF89A82
:103CF000992780B50895262FF999FECF1FBA92BD56
:103D000081BD20BD0FB6F894FA9AF99A0FBE0196BC
:103D10000895052E97FB1EF400940E94A01E57FDE7
:103D200007D00E94BB1E07FC03D04EF40C94A01ECB
:103D300050954095309521953F4F4F4F5F4F0895D7
:103D400090958095709561957F4F8F4F9F4F089507
:103D50000E94DD1EA59F900DB49F900DA49F800D25
:103D6000911D11240895B7FF0C94A81E0E94A81E4F
:103D7000821B930B0895A1E21A2EAA1BBB1BFD0107
:103D80000DC0AA1FBB1FEE1FFF1FA217B307E4073A
:103D9000F50720F0A21BB30BE40BF50B661F771F92
:103DA000881F991F1A9469F7609570958095909572
:103DB0009B01AC01BD01CF010895A29FB001B39F4B
:103DC000C001A39F700D811D1124911DB29F700D24
:103DD000811D1124911D0895EE0FFF1F0590F49190
:103DE000E02D09945058BB27AA270E940A1F0C9463
:103DF00012200E94042038F00E940B2020F039F499
:103E00009F3F19F426F40C9401200EF4E095E7FB93
:103E10000C94FB1FE92F0E94232058F3BA17620766
:103E200073078407950720F079F4A6F50C944520D4
:103E30000EF4E0950B2EBA2FA02D0B01B9019001C5
:103E40000C01CA01A0011124FF27591B99F0593F09
:103E500050F4503E68F11A16F040A22F232F342F51
:103E60004427585FF3CF469537952795A795F0409F
:103E70005395C9F77EF41F16BA0B620B730B840BB4
:103E8000BAF09150A1F0FF0FBB1F661F771F881F6C
:103E9000C2F70EC0BA0F621F731F841F48F48795C4
:103EA00077956795B795F7959E3F08F0B0CF9395B6
:103EB000880F08F09927EE0F9795879508950E942F
:103EC000D71F08F481E008950E946B1F6894B11118
:103ED0000C94462008950E942B2088F09F5798F05C
:103EE000B92F9927B751B0F0E1F0660F771F881FFF
:103EF000991F1AF0BA95C9F714C0B13091F00E9419
:103F00004520B1E008950C944520672F782F88272D
:103F1000B85F39F0B93FCCF3869577956795B3953F
:103F2000D9F73EF490958095709561957F4F8F4FAE
:103F30009F4F0895E89409C097FB3EF490958095B3
:103F4000709561957F4F8F4F9F4F9923A9F0F92F5F
:103F500096E9BB279395F695879577956795B795DD
:103F6000F111F8CFFAF4BB0F11F460FF1BC06F5FC3
:103F70007F4F8F4F9F4F16C0882311F096E911C0D5
:103F8000772321F09EE8872F762F05C0662371F0F6
:103F900096E8862F70E060E02AF09A95660F771F0A
:103FA000881FDAF7880F9695879597F90895990FE6
:103FB0000008550FAA0BE0E8FEEF16161706E807F3
:103FC000F907C0F012161306E407F50798F0621B14
:103FD000730B840B950B39F40A2661F0232B242BE9
:103FE000252B21F408950A2609F4A140A6958FEF08
:103FF000811D811D089597F99F6780E870E060E05A
:1040000008959FEF80EC089500240A941616170671
:1040100018060906089500240A94121613061406B9
:1040200005060895092E0394000C11F4882352F01C
:10403000BB0F40F4BF2B11F460FF04C06F5F7F4FD4
:104040008F4F9F4F089557FD9058440F551F59F0BB
:104050005F3F71F04795880F97FB991F61F09F3F75
:1040600079F087950895121613061406551FF2CF9E
:104070004695F1DF08C0161617061806991FF1CFEE
:1040800086957105610508940895E894BB27662715
:104090007727CB0197F908950E94D71F08F48FEF77
:1040A00008950E9464200C9412200E94042038F08D
:1040B0000E940B2020F0952311F00C94FB1F0C9410
:1040C000012011240C9446200E94232070F3959F18
:1040D000C1F3950F50E0551F629FF001729FBB27FF
:1040E000F00DB11D639FAA27F00DB11DAA1F649F9B
:1040F0006627B00DA11D661F829F2227B00DA11D4E
:10410000621F739FB00DA11D621F839FA00D611DD3
:10411000221F749F3327A00D611D231F849F600DF4
:10412000211D822F762F6A2F11249F5750409AF01D
:10413000F1F088234AF0EE0FFF1FBB1F661F771FA9
:10414000881F91505040A9F79E3F510580F00C9474
:10415000FB1F0C9446205F3FE4F3983ED4F3869512
:1041600077956795B795F795E7959F5FC1F7FE2B14
:10417000880F911D9695879597F90895AEE0B0E068
:10418000E4ECF0E20C947A230D891E898F89988DD6
:1041900026E02C831A83098397FF02C080E090E811
:1041A00001979E838D83AE01455E5F4F698D7A8D49
:1041B000CE0101960E94EE204D815E8157FD0AC01E
:1041C0002F813885421753070CF49A01020F131FF1
:1041D000F80110822E96E4E00C949623ABE0B0E058
:1041E000E4EFF0E20C946C237C013B018A01FC01BA
:1041F00017821682838181FFC8C1CE0101965C01BE
:10420000F7019381F30193FD859193FF81913F0124
:10421000882309F453C1853239F493FD859193FFC6
:1042200081913F01853229F4B70190E00E94DE229E
:10423000E7CF912C212C312CFFE1F31538F08B3294
:1042400011F190F4803209F1833229F137FC3CC03E
:1042500020ED280F2A3050F536FE20C08AE0989EC7
:10426000200D1124922E06C08D3291F0803371F70B
:10427000689430F8F30193FD859193FF81913F019C
:104280008111DACF21C0689431F8689432F8F2CF06
:10429000689433F8EFCF689434F8ECCFEAE02E9EC0
:1042A000200D1124222E689435F8E4CF8E3229F4A3
:1042B00036FC04C1689436F8DDCF8C3619F4689466
:1042C00037F8D8CF8836B1F2982F9F7D9554933028
:1042D000E0F08336A1F18337C1F1833509F063C083
:1042E0002801F2E04F0E511CF801C080D180692DE9
:1042F00070E036FC02C06FEF7FEFC6010E94C8225B
:104300004C01689437F882010AC00C5F1F4FFFE32D
:10431000F98388248394912C6501E89437F833FE5F
:104320002DC0522C8114910471F5552009F468CFE9
:10433000B70180E290E00E94DE225A94F6CFF801A5
:10434000808189830E5F1F4FE4CF2801F2E04F0E7A
:10435000511CF801C080D180692D70E036FC02C08C
:104360006FEF7FEFC6010E94D3224C018201D5CFAF
:10437000B70180E290E00E94DE222A9428141904FA
:1043800009F0B0F7CECFF60137FC859137FE819169
:104390006F01B70190E00E94DE2251105A94F1E0C3
:1043A0008F1A9108BFCF843619F0893609F077C08B
:1043B000F80137FE6BC060817181828193810C5F4F
:1043C0001F4FF32DFF763F2E97FF09C090958095E4
:1043D000709561957F4F8F4F9F4F689437F82AE013
:1043E00030E0A5010E940E23C82ECA188C2C432C45
:1043F00036FE0CC0E89440F8C91440F434FE05C001
:1044000032FC03C0F32DFE7E4F2E892C44FE95C056
:10441000FE01EC0DF11D8081803309F087C0242D51
:10442000297E422E842D8870582E43FC95C040FE74
:104430008FC09C2C821418F42C0C922C981844FEDB
:1044400091C0B70180E390E00E94DE2242FE09C0E5
:1044500088E790E041FE02C088E590E0B7010E9445
:10446000DE22C91408F48AC0CA94D12C9FEFC91A5D
:10447000D90ACA0CDB1CF60182916F01B70190E0EA
:104480000E94DE22AC14BD04B1F74FCF6081718170
:10449000072E000C880B990B0E5F1F4F92CFD32C69
:1044A000E894D4F82AE030E0853739F1232D297FCC
:1044B000D22E8F3601F148F48835A9F0F7018681B4
:1044C00097812B96E2E10C948823803749F0883756
:1044D000A9F7D4FE02C06894D2F820E130E00DC004
:1044E0006894D4F8F6CF34FE03C0822F8660D82EAD
:1044F00020E132E002C028E030E0F801D7FE0FC032
:1045000060817181828193810C5F1F4FA5010E94A0
:104510000E23C82ECA183D2CE89437F867CF608167
:10452000718190E080E00E5F1F4FF0CF42FC02C02F
:10453000839478CF8394839475CF842D867809F4FF
:1045400071CFF6CFB70180E290E00E94DE22839423
:104550008214C0F3512C73CF522C5818821408F4D3
:104560006ECFF8CF842D867809F47BCF8BE241FEA5
:1045700080E247FC8DE2B70190E071CFB70180E3A4
:1045800090E00E94DE229A946CCF8FEF9FEF99CF3C
:10459000FC010590615070400110D8F7809590950E
:1045A0008E0F9F1F0895FC01615070400190011013
:1045B000D8F7809590958E0F9F1F08950F931F93A6
:1045C000CF93DF93182F092FEB018B8181FD09C059
:1045D0001FEF0FEF812F902FDF91CF911F910F9140
:1045E000089582FF14C02E813F818C819D81281700
:1045F00039073CF4E881F981CF01019699838883DA
:1046000010838E819F8101969F838E83E3CFE885FF
:10461000F985812F0995892BA1F3DACFFA01AA2711
:10462000283051F1203181F1E8946F936E7F6E5FF5
:104630007F4F8F4F9F4FAF4FB1E03ED0B4E03CD0A3
:10464000670F781F891F9A1FA11D680F791F8A1F86
:10465000911DA11D6A0F711D811D911DA11D20D0ED
:1046600009F468943F912AE0269F11243019305DA7
:104670003193DEF6CF010895462F4770405D419398
:10468000B3E00FD0C9F7F6CF462F4F70405D4A33E5
:1046900018F0495D31FD4052419302D0A9F7EACFAD
:1046A000B4E0A6959795879577956795BA95C9F7DC
:1046B00000976105710508959B01AC010A2E0694CF
:1046C0005795479537952795BA95C9F7620F731F88
:1046D000841F951FA01D08952F923F924F925F92C5
:1046E0006F927F928F929F92AF92BF92CF92DF9202
:1046F000EF92FF920F931F93CF93DF93CDB7DEB767
:10470000CA1BDB0B0FB6F894DEBF0FBECDBF0994FA
:104710002A88398848885F846E847D848C849B8451
:10472000AA84B984C884DF80EE80FD800C811B815F
:10473000AA81B981CE0FD11D0FB6F894DEBF0FBE8E
:0A474000CDBFED010895F894FFCFFE
:10474A0010010103FFFFFFFF00E10000000000006D
:10475A000100000000C18081000000000000002C60
:10476A000497054D044204930451046F04000000A9
:10477A000038082806580C570C434C4F5544204A19
:10478A00554D50455200413D73686F6F7420423D4C
:10479A00736869656C640050524553532041004662
:1047AA00454C4C20444F574E210053636F72653A73
:1047BA0020002573256C7500426573743A20200029
:0A47CA0042202D206D656E75000081
:00000001FF
