:100000000C94B4030C94DC030C94DC030C94DC031C
:100010000C94DC030C94DC030C94DC030C94DC03E4
:100020000C94DC030C94DC030C94E50D0C94540E3E
:100030000C94DC030C94DC030C94DC030C94DC03C4
:100040000C94DC030C94DC030C94DC030C94DC03B4
:100050000C94DC030C94DC030C94DC030C948610ED
:100060000C94DC030C94DC030C94DC030C94DC0394
:100070000C94DC030C94DC030C94DC030C94DC0384
:100080000C94D0100C94DC030C94DC030C94DC0373
:100090000C94DC030C94DC030C94DC030C94DC0364
:1000A0000C94DC030C94DC030C94DC0300000000D3
:1000B000003E5B4F5B3E3E6B4F6B3E1C3E7C3E1CEE
:1000C000183C7E3C181C577D571C1C5E7F5E1C0034
:1000D000183C1800FFE7C3E7FF0018241800FFE7EB
:1000E000DBE7FF30483A060E2629792926407F05AE
:1000F0000507407F05253F5A3CE73C5A7F3E1C1CC4
:1001000008081C1C3E7F14227F22145F5F005F5F83
:1001100006097F017F006689956A6060606060946F
:10012000A2FFA29408047E040810207E2010080874
:100130002A1C08081C2A08081E101010100C1E0C7F
:100140001E0C30383E3830060E3E0E060000000011
:100150000000005F00000007000700147F147F14F8
:10016000242A7F2A1223130864623649562050003D
:1001700008070300001C2241000041221C002A1C29
:100180007F1C2A08083E0808008070300008080814
:100190000808000060600020100804023E51494534
:1001A0003E00427F400072494949462141494D3352
:1001B0001814127F1027454545393C4A49493141B9
:1001C000211109073649494936464949291E000087
:1001D00014000000403400000008142241141414DC
:1001E0001414004122140802015909063E415D59C8
:1001F0004E7C1211127C7F494949363E41414122D1
:100200007F4141413E7F494949417F090909013EFA
:10021000414151737F0808087F00417F4100204021
:10022000413F017F081422417F404040407F021C33
:10023000027F7F0408107F3E4141413E7F0909094A
:10024000063E4151215E7F09192946264949493216
:1002500003017F01033F4040403F1F2040201F3FDC
:100260004038403F63140814630304780403615961
:10027000494D43007F4141410204081020004141A3
:10028000417F04020102044040404040000307084F
:100290000020545478407F2844443838444444284B
:1002A000384444287F385454541800087E090218F2
:1002B000A4A49C787F0804047800447D400020407A
:1002C000403D007F1028440000417F40007C0478BE
:1002D00004787C080404783844444438FC18242406
:1002E0001818242418FC7C08040408485454542486
:1002F00004043F44243C4040207C1C2040201C3C03
:100300004030403C44281028444C9090907C4464F9
:10031000544C44000836410000007700000041368C
:10032000080002010204023C2623263C1EA1A16112
:10033000123A4040207A3854545559215555794144
:100340002154547841215554784020545579400C1B
:100350001E527212395555555939545454593955FC
:100360005454580000457C410002457D420001453F
:100370007C40F0292429F0F0282528F07C545545AC
:10038000002054547C547C0A097F4932494949323F
:100390003248484832324A4848303A4141217A3A54
:1003A00042402078009DA0A07D39444444393D401E
:1003B00040403D3C24FF2424487E4943662B2FFCCB
:1003C0002F2BFF0929F620C0887E09032054547979
:1003D000410000447D413048484A32384040227A4A
:1003E000007A0A0A727D0D19317D2629292F2826C7
:1003F0002929292630484D402038080808080808CF
:100400000808382F10C8ACBA2F102834FA00007B27
:10041000000008142A142222142A1408950022002D
:1004200095AA005500AAAA55AA55AA000000FF00E7
:10043000101010FF00141414FF001010FF00FF1024
:1004400010F010F0141414FC001414F700FF000056
:10045000FF00FF1414F404FC141417101F10101FD5
:10046000101F1414141F00101010F0000000001FC3
:10047000101010101F10101010F010000000FF10CE
:100480001010101010101010FF10000000FF1400CA
:1004900000FF00FF00001F10170000FC04F41414FC
:1004A0001710171414F404F40000FF00F7141414C8
:1004B00014141414F700F7141414171410101F1048
:1004C0001F141414F4141010F010F000001F101F6B
:1004D0000000001F14000000FC140000F010F010D9
:1004E00010FF10FF141414FF141010101F00000050
:1004F00000F010FFFFFFFFFFF0F0F0F0F0FFFFFF54
:100500000000000000FFFF0F0F0F0F0F38444438AA
:10051000447C2A2A3E147E02020606027E027E02E5
:1005200063554941633844443C04407E201E200604
:10053000027E020299A5E7A5991C2A492A1C4C7241
:1005400001724C304A4D4D303048784830BC625AC8
:10055000463D3E494949007E0101017E2A2A2A2A58
:100560002A44445F444440514A444040444A514034
:100570000000FF0103E080FF000008086B6B0836F5
:1005800012362436060F090F060000181800000066
:100590001010003040FF0101001F01011E00191D55
:1005A0001712003C3C3C3C0000000000F0F89C8E20
:1005B0008783878E9CF8F00000FEFF03030303038C
:1005C000070EFCF80000FEFF0303030303070EFC05
:1005D000F80000FFFF00000000000000FFFF000027
:1005E000FEFF8383838383C7EE7C380000F8FC0E14
:1005F00007030303070EFCF800003F7FE0C0808084
:10060000C0E07F3FFFFF01010101010101FFFF0089
:1006100000FFFF0C0C0C0C1C3E77E3C100007FFFB9
:10062000C0C0C0C0C0E0703F1F00001F3F70E0C0EE
:10063000C0C0E0703F1F00007FFFC1C1C1C1C1E366
:10064000773E1C00001F3F70E0C0C0C0E0703F1F3D
:10065000000000000001FFFF01000000D5F08D1434
:10066000A1C881CFD9F1AF2000423A002F0020006D
:100670004C0020033C0058023C0090013C00C800A4
:100680009600008090011E00BC021E000080BC028B
:1006900019000080F401140084031E00B004280037
:1006A0000080C800320000802C016400F401780052
:1006B0000080E80314000080BC021400B6031E0092
:1006C00000805802500020035000E803960000808C
:1006D0000B02780093027800100378001604FA00E9
:1006E00000800B025000930250001003960000801F
:1006F000080B0002020200000904000001020200CF
:10070000000524001001052401010104240206054E
:1007100024060001070581031000400904010002BE
:100720000A0000000705020240000007058302409E
:1007300000000403090412010002EF0201404123FA
:10074000368000010102030141726475696E6F20F9
:100750004C4C430041726475696E6F204C656F6E3E
:100760006172646F0000CD1111241FBECFEFDAE07B
:10077000DEBFCDBF11E0A0E0B1E0E6E1FCE402C0E5
:1007800005900D92A23FB107D9F727E0A2EFB1E0A3
:1007900001C01D92A134B207E1F713E0C4EBD3E02E
:1007A00004C02197FE010E945221C33BD107C9F723
:1007B0000E94FA110C9409260C940000809100020A
:1007C0000895EDEDF2E0A0E0B8E000800EBC8111EC
:1007D000012C1197A0FDFDCF0192B9F70DB408953A
:1007E000FC018091DC02882311F13FB7F89482E08C
:1007F0008093E9002091F200822F90E018161906EC
:1008000014F481E090E0882339F0289844E640937E
:10081000DB024091F1004083222339F02091F20065
:10082000211103C02BE62093E8003FBF08958FEF0E
:100830009FEF08952FB7F89483E08093E90090919B
:10084000E800892F807295FF04C09091F20080E447
:10085000891B2FBF08958091D30281110DC082E0C2
:100860008093CF0284E08093D0021092D202109243
:10087000D10281E08093D3028FEC92E00895CF9370
:10088000DF931F92CDB7DEB76983DC01ED91FC9158
:100890000280F381E02D41E050E0BE016F5F7F4FA9
:1008A00009950F90DF91CF91089583E08093E9003F
:1008B0008091F200882319F08AE38093E80008957C
:1008C0000E941A0490E00895CF93DF931F92CDB752
:1008D000DEB7FC018485958597FD08C02FEF3FEFBB
:1008E000358724870F90DF91CF910895CE0101962F
:1008F0000E94F003019719F4898190E0F3CF8FEF04
:100900009FEFF0CF0F931F93CF93DF931F92CDB73D
:10091000DEB78C01FC018485958597FF0BC0CE0165
:1009200001960E94F003019771F4898190E0F8012B
:1009300095878487F801848595850F90DF91CF9105
:100940001F910F9108958FEF9FEFF1CFFC018485E8
:10095000958597FD0BC09FB7F89482E08093E900DE
:100960008091F2009FBF90E0019608959FB7F894A0
:1009700082E08093E9008091F2009FBF90E00895AB
:100980004091C9025091CA022091C7023091C80219
:1009900042175307B4F49091E8009570E1F39091F9
:1009A000E80092FD19C08093F1008091C9029091F6
:1009B000CA0201968F739927892B19F48EEF8093C1
:1009C000E8008091C9029091CA0201969093CA02F0
:1009D0008093C90281E0089580E00895DF92EF924C
:1009E000FF920F931F93CF93DF93D82E8A01EB01D1
:1009F0007B01E40EF51ECE15DF0559F0D7FE12C0BF
:100A0000FE0184910E94C00421968111F4CF0FEF62
:100A10001FEFC801DF91CF911F910F91FF90EF90D1
:100A2000DF9008958881EECF0F931F93CF93DF93CC
:100A30001F92CDB7DEB782E0898342E450E060EFD9
:100A400076E080E80E94EE040E942B04DC011296FE
:100A50000D911C910115110589F0D801ED91FC91C2
:100A60000280F381E02DBE016F5F7F4FC8010995C1
:100A700097FD04C0F80100851185ECCF89810F90A6
:100A8000DF91CF911F910F910895615030F0209127
:100A9000F100FC0120830196F8CF289884E680932A
:100AA000DB0208953FB7F8948091C3029091C4028D
:100AB000A091C502B091C60226B5A89B05C02F3FE4
:100AC00019F00196A11DB11D3FBFBA2FA92F982F74
:100AD0008827BC01CD01620F711D811D911D42E06F
:100AE000660F771F881F991F4A95D1F708958F9237
:100AF0009F92AF92BF92CF92DF92EF92FF926B01E3
:100B00007C010E9452054B015C01C114D104E10437
:100B1000F104B9F00E945205681979098A099B0904
:100B2000683E73408105910580F321E0C21AD10827
:100B3000E108F10888EE880E83E0981EA11CB11C24
:100B4000E4CFFF90EF90DF90CF90BF90AF909F9059
:100B50008F9008958F929F92AF92BF92CF92DF9223
:100B6000EF92FF920F931F93CF93DF936C017B0162
:100B70008A0180911001882309F45CC08091DC0215
:100B8000882309F457C08091CE0280FF05C0809170
:100B9000E00082608093E000E801B12C8AEFA82E8B
:100BA00093E0892E2AE3922E209711F4BB20D9F1ED
:100BB0000E941A0481110AC0AA94AA20D9F161E006
:100BC00070E080E090E00E947705EECF8C171D0664
:100BD00011F00CF08C2F9FB7F8948092E9002091CF
:100BE000E80025FD02C09FBFDFCF282F30E0C21BE9
:100BF000D30BF701815020F041914093F100FACFDF
:100C0000E20EF31EBB2021F09092E800B12CEBCF56
:100C10008091E80085FDE7CF9092E800BB24B39473
:100C2000209709F3F3CF5D9884E68093CD021016E8
:100C300011063CF081E090E0F6019383828310E09E
:100C400000E0C801DF91CF911F910F91FF90EF90CD
:100C5000DF90CF90BF90AF909F908F9008952FB767
:100C6000F8946091BF027091C0028091C10290918E
:100C7000C2022FBF0895AF92BF92CF92DF92EF9240
:100C8000FF920F931F93CF93DF936C017B018B0136
:100C9000040F151FEB015E01AE18BF08C017D10786
:100CA00059F06991D601ED91FC910190F081E02D10
:100CB000C6010995892B79F7C501DF91CF911F9165
:100CC0000F91FF90EF90DF90CF90BF90AF9008957D
:100CD0002091F901E091F701F091F801CF0102961E
:100CE0009093F8018093F701222319F08591949154
:100CF0000895808191810895CF92DF92EF92FF92C3
:100D0000CF93DF930E946806811520E8920791F443
:100D1000809171008D7F80937100109291004698B0
:100D200047981092F601DF91CF91FF90EF90DF90FE
:100D3000CF90089521E02093F601813020E89207BA
:100D400051F48091F4019091F5019093F801809312
:100D5000F7010E94680697FD05C02091F301222348
:100D600009F454C02091F201211150C021E02093D8
:100D7000FA01EC01DF77209709F04BC081E0809306
:100D8000FB0146983FE9C32E3FE0D32EE12CF12C26
:100D9000CAEFD0E0E0913B07F0913C070995811143
:100DA00003C081E08093FB018091FA01882329F040
:100DB0008091FB01882309F43FC047980E94680690
:100DC0000097F1F19C01DE010E941B21DC01CB01A7
:100DD00029E0B595A795979587952A95D1F7109213
:100DE00090002AE020939100D0929900C092980040
:100DF0008093FC019093FD01A093FE01B093FF014D
:100E0000809171008260809371008DCF1092FA0101
:100E1000B0CF9E0150E040E060E472E48FE090E0EB
:100E20000E94C72069017A0181E0C81AD108E1084F
:100E3000F1081092FB01AECF4699BFCF479ABECFC3
:100E40008FEF9FEFDC01CBCF9C01E1E7F0E09081D9
:100E50009D7F908381E08093F9013093F801209386
:100E6000F7013093F5012093F4010C947C062D9A40
:100E70000895BC0190E080E00C9477058FB18095D7
:100E8000807F669B88601C9B846008953E9A3F9A91
:100E900081E080930002089520E191E061FD94E0FB
:100EA00060FD990F62FD9295687F269FD001112405
:100EB000A80FA352BD4F8C9140FF03C0892B8C9388
:100EC000089590958923FBCF8038910528F46034EC
:100ED000710510F40C944C0708952F923F924F9295
:100EE0005F926F927F928F929F92AF92BF92CF92BA
:100EF000DF92EF92FF920F931F93CF93DF9300D077
:100F000000D0CDB7DEB77C018B01242F30E03C83CD
:100F10002B8381E090E05C01A21AB30A190131949D
:100F200021943108220C331CB901600F711F41E07C
:100F3000C7010E946407B8018B819C81681B790BF3
:100F400041E0C7010E94640741E0B8018B819C81A8
:100F50008E0D9F1D0E94640741E0B801C7012B81DF
:100F60003C81821B930B0E94640781E090E09A838E
:100F70008983D12CC12CB7FC0BC02B813C81215023
:100F800031093C832B8332E0230E311CA20CB31CAD
:100F90008FEFC81AD80A29813A812E5F3F4F3A83D2
:100FA0002983A20EB31E36016E0C7F1C41E08B809C
:100FB0009C80800E911EB401C3010E94640727012A
:100FC0004C185D0841E0B401C2010E94640741E091
:100FD00048018B819C81881A990AB401C3010E943F
:100FE000640741E0B401C2010E9464074601800E1B
:100FF000911E41E0B4016B807C806E0C7F1CC301AC
:101000000E94640741E0B40127012B813C81421A10
:10101000530AC2010E94640748018C189D0841E0F0
:10102000B401C3010E94640741E0B401C2010E94FF
:1010300064078B819C81C816D9060CF49CCF0F9055
:101040000F900F900F90DF91CF911F910F91FF9014
:10105000EF90DF90CF90BF90AF909F908F907F9058
:101060006F905F904F903F902F90089580E0EDED4E
:10107000F2E081118FEF002481938193819381931A
:101080000394D1F710920602109205021092080202
:101090001092070208958F929F92AF92BF92CF92C3
:1010A000DF92EF92FF920F931F93CF93DF936D30F8
:1010B00089F0C0900502D09006026A30D1F41092F7
:1010C00008021092070288E0C80ED11CD0920602D6
:1010D000C092050281E090E0DF91CF911F910F91C6
:1010E000FF90EF90DF90CF90BF90AF909F908F9048
:1010F00008950091070210910802E5E06E9FE0015B
:101100001124C455DF4F4801F12CF5E0E12CFF1606
:1011100029F0CE010196FE01E490EC01B12CA12C46
:101120004E2D4170B6016A0D7B1DC4010E946407FB
:10113000E694FFEFAF1ABF0A88E0A816B10481F762
:10114000F394EFEF8E1A9E0AF6E0FF12DECF0A5FED
:101150001F4F1093080200930702BCCF9091180212
:10116000982329F490911902982381E009F480E0F2
:101170000895CF93C82F0E943E07982F9C2381E0AB
:101180009C1380E0CF91089580E00C94E103DF92FE
:10119000EF92FF920F931F93CF93DF937C01D22E98
:1011A0008B01040F111DEB0177FF02C0D0E0C0E0FE
:1011B000C8010134110514F080E490E0C817D90784
:1011C0003CF44D2DBE01C7010E9464072196F0CF6B
:1011D000DF91CF911F910F91FF90EF90DF900895D5
:1011E000CF92DF92EF92FF920F931F93CF93DF93F3
:1011F0006B01122FEC017C01E40EF11CCE15DF0512
:1012000044F4202F412FB601CE010E94C708219639
:10121000F5CFDF91CF911F910F91FF90EF90DF906D
:10122000CF9008952F923F924F925F926F927F924C
:101230008F929F92AF92BF92CF92DF92EF92FF92E6
:101240000F931F93CF93DF9300D01F92CDB7DEB7DC
:101250009B838A837B016A0109838901061B170B23
:1012600017FF03C011950195110946018A819B81E1
:10127000881A990A97FE03C0919481949108801668
:1012800091065CF49C2D8D2D6901292F382F9A81B0
:101290008B81FB82EA82E92EF82E8A819B81C81617
:1012A000D9065CF49E2D8F2D7901292F382F9A8134
:1012B0008B81DB82CA82C92ED82E16018A819B813E
:1012C000281A390A29014E185F0857FE03C05194A5
:1012D00041945108310137FE03C09FEF691A790A22
:1012E000759467948FEFE216F3060CF481E0A82E54
:1012F000880FBB088A819B81C816D906CCF049812A
:10130000BC01C701801691061CF0B7018A819B8140
:101310000E9464076418750877FE04C0EA0CFB1C81
:10132000620C731C8A819B8101969B838A83E2CF26
:101330000F900F900F90DF91CF911F910F91FF9021
:10134000EF90DF90CF90BF90AF909F908F907F9065
:101350006F905F904F903F902F9008952F923F9203
:101360004F925F926F927F928F929F92AF92BF92B5
:10137000CF92DF92EF92FF920F931F93CF93DF9361
:1013800000D000D0CDB7DEB76C015B01322E842FC8
:1013900090E09C838B83440F4F5F681B790BC601E1
:1013A0000E94C70801E010E0EB81FC810E1B1F0BBF
:1013B0004F01919481949108880C991C6624639440
:1013C000712CF12CE12C17FD0AC08B819C810197B7
:1013D0009C838B8392E0890E911C080D191DEFEF01
:1013E000EE1AFE0AF2E06F0E711C060D171D2B801F
:1013F000220C2394232D422D25018B819C81481A98
:10140000590AB201C7018C0D9D1D0E94C708F50144
:10141000EE19FF09FA83E983232D462DBF018B8145
:101420009C818C0D9D1D0E94C708232D422DB20169
:10143000C6018E199F090E94C708232D462D698178
:101440007A81C601EB81FC818E1B9F0B0E94C7082D
:101450008B819C81E816F9060CF4B5CF0F900F90A4
:101460000F900F90DF91CF911F910F91FF90EF9010
:10147000DF90CF90BF90AF909F908F907F906F90B4
:101480005F904F903F902F9008952F923F924F92F0
:101490005F926F927F928F929F92AF92BF92CF9204
:1014A000DF92EF92FF920F93CF93DF9300D000D0A3
:1014B000CDB7DEB75C017C836B834B0184E0880E83
:1014C000911C750194E0E90EF11C80910E028823B5
:1014D00079F00E942F0624E630E040E050E00E94C0
:1014E000F92047E020FD46E0B401C7010E946D07E6
:1014F0008B819C8102969A83898321E042E0BC0122
:10150000C7010E94AE0940E069817A81C7010E944B
:101510006407CB80DC8096E0C90ED11C01E0960107
:10152000A701B401C7010E941209450186E0880E97
:10153000911C150192E0290E311C6B817C816B5F3F
:101540007F4F9B01A401C1010E941209409010022B
:1015500050901102609012027090130220E030E06F
:1015600040E05FEBC301B2010E94C52187FF35C097
:101570008B819C8107969C838B839C01A101B60182
:10158000C7010E9412092B813C81A401B601C70149
:101590000E9412098091030118160CF041C081E0ED
:1015A00090E041E069817A818E0D9F1D0F900F9030
:1015B0000F900F90DF91CF910F91FF90EF90DF9000
:1015C000CF90BF90AF909F908F907F906F905F90E3
:1015D0004F903F902F900C9464078B819C810896CC
:1015E0009C838B8320E030E040E85FE3C301B201DD
:1015F0000E94B222181624F401E02B813C81BECF58
:10160000A5014D5F5F4F01E02B813C81B601C70111
:101610000E941209A5014B5F5F4F2B813C81B6CF21
:101620008FEF9FEFBECFEF92FF920F931F93CF9359
:10163000DF937C01EB01042F40E00E946407002E41
:10164000000C110BE00EF11EBE016150710940E06B
:10165000C7010E9464070E0D1F1D40E0BE01C801B6
:101660000E946407219640E0BE01C8010E94640701
:1016700040E0BE01C701DF91CF911F910F91FF9014
:10168000EF900C9464078F929F92AF92BF92CF928B
:10169000DF92EF92FF920F931F93CF93DF935C0142
:1016A000EB01E42E40E00E9464074E0181E0881ABD
:1016B00091080E2C000CFF086701CA0CDB1C40E0EF
:1016C000B401C6010E94640787010C0D1D1D40E096
:1016D000B401C8010E9464074701800E911E40E0DA
:1016E000BE01C4010E9464077E018FEFE81AF80A68
:1016F00040E0B701C4010E946407229640E0BE01A9
:10170000C8010E94640740E0BE01C6010E94640750
:1017100040E0B701C5010E94640740E0B701C6017F
:101720000E94640740E0B701C801DF91CF911F918B
:101730000F91FF90EF90DF90CF90BF90AF909F9070
:101740008F900C9464072F923F924F925F926F920A
:101750007F928F929F92AF92BF92CF92DF92EF9241
:10176000FF920F93CF93DF93CDB7DEB728970FB6D5
:10177000F894DEBF0FBECDBF1C016B01CB010197FA
:1017800098878F83C10101979A83898300E025E0C0
:1017900044E16F8178850E94F008760192E0E91AB1
:1017A000F108310183E0680E711C20E044E0B701CC
:1017B000C3010E94AE09460194E0891A91085101C3
:1017C00089E0A80EB11C20E045E0B401C5010E94EB
:1017D000AE09C1010F969C838B8320E044E0B701E2
:1017E0000E94AE09210193E1490E511C20E043E023
:1017F0006F817885C2010E94AE0901E023E042E1D9
:10180000B601C1010E94F008C10101969E838D833B
:1018100023E040E16F8178850E94F00821E043E0F9
:10182000B701C3010E94AE0921E044E0B401C50143
:101830000E94AE0921E043E0B7018B819C810E94A8
:10184000AE0921E042E06F817885C2010E94AE09B5
:1018500041E06F817885C10106960E94430B4FEFEE
:101860006F817885C1010D960E94430BC6010397D5
:101870009C838B8341E0BC018D819E810E94130B70
:101880004FEF6B817C81C10141960E94130B4FEF9A
:10189000B60189819A810E94130B41E0B601C10112
:1018A000449628960FB6F894DEBF0FBECDBFDF91E9
:1018B000CF910F91FF90EF90DF90CF90BF90AF90BE
:1018C0009F908F907F906F905F904F903F902F9060
:1018D0000C94130B089590E080E008951F93FC0191
:1018E00001900020E9F73197AF01481B590B1AEF1F
:1018F00014039001159F300D112420583F4F37FFDE
:1019000002C02F5F3F4F3595279537FF02C030E06B
:1019100020E0309308022093070270930602609340
:101920000502FC0101900020E9F73197AF01481B47
:10193000590BBC018DE397E01F910C943B06EF928D
:10194000FF920F931F93CF93DF93CDB7DEB76897C6
:101950000FB6F894DEBF0FBECDBF79017F936F93B2
:101960005F934F939F938F9384E491E09F938F9322
:101970001F9288E18F938E010F5F1F4F1F930F936C
:101980000E942423B701C8010E946E0C0FB6F89480
:10199000DEBF0FBECDBF68960FB6F894DEBF0FBE98
:1019A000CDBFDF91CF911F910F91FF90EF900895E0
:1019B0000C94B120CF92DF92EF92FF926B017C01E9
:1019C000C114D104E104F10441F00E945920A7019F
:1019D00096010E94C7206B017C01C701B601FF90F0
:1019E000EF90DF90CF900895AF92BF92CF92DF92A9
:1019F000EF92FF920F931F93CF93DF93C4E6D2E051
:101A000084EB92E0FE01168238968E179F07D9F775
:101A100010922A021092330210923C021092450258
:101A200010924F02109259021092630280E090E0EF
:101A3000A0E7B2E480931A0290931B02A0931C02C9
:101A4000B0931D0280E090E0A8E4B2E480931E020F
:101A500090931F02A0932002B093210210921402CF
:101A600010921502109216021092170286E696E660
:101A7000A6E2B0EC8093100290931102A0931202A0
:101A8000B093130211E0109303011093020110921E
:101A90000F0210920E0210920D0283E0809301015A
:101AA0000E942F066093090270930A0280930B0232
:101AB00090930C0210936A0210926B0210926902CA
:101AC00088E390E090936502809364028AE390E05B
:101AD0009093670280936602109268028CEAE82E67
:101AE00082E0F82E06E210E0DD24D39497E0B92ED0
:101AF00023E0C22E32E0A32EDE861F8666E670E06B
:101B000080E090E00E94DA0C6C5F7F4F8F4F9F4F18
:101B1000798768871B870A871C8664E670E080E007
:101B200090E00E94DA0C20910401213029F46535FF
:101B300008F047C01D8607C02B9D902D11249250A0
:101B4000691760F5AD868D85813061F462E070E0E3
:101B500080E090E00E94DA0C672B682B692B99F5E6
:101B60008FEF8C8766E070E080E090E00E94DA0CF6
:101B7000645F7F4F8F4F9F4F061B170B2896EC1605
:101B8000FD0609F0B9CFDF91CF911F910F91FF9022
:101B9000EF90DF90CF90BF90AF90089570E0822FCC
:101BA000880F880F820F865F890F9927991F681702
:101BB000790714F4DD86C7CF0596681779070CF00E
:101BC000B9CFCD86C0CF81E0CCCF1F920F920FB698
:101BD0000F9211248F939F938091E1009091E100E7
:101BE000937F9093E10083FF0FC01092E90091E092
:101BF0009093EB001092EC0092E39093ED00109222
:101C0000DC0298E09093F00082FF22C093E0909372
:101C1000E9009091F200992319F09AE39093E8007B
:101C20009091CD02992341F09091CD0291509093E3
:101C3000CD02911101C05D9A9091DB02992341F090
:101C40009091DB0291509093DB02911101C0289A90
:101C500084FF18C08091E2008E7E81608093E20054
:101C60008091E1008F7E8093E1008091CE028E7E94
:101C700080618093CE029F918F910F900FBE0F9045
:101C80001F90189580FFF7CF8091E2008E7E8061D3
:101C90008093E2008091E1008E7E8093E10080914C
:101CA000CE028E7E8160E5CF1F920F920FB60F920B
:101CB0001124CF92DF92EF92FF920F931F932F93F5
:101CC0003F934F935F936F937F938F939F93AF93C4
:101CD000BF93EF93FF93CF93DF93CDB7DEB76C97AE
:101CE000DEBFCDBF1092E9008091E80083FF25C0E0
:101CF00068E0CE0145960E94450582EF8093E8009A
:101D00008D8987FF39C09091E80090FFFCCF982F14
:101D1000907609F034C19E894F89588D2F89F88CAF
:101D2000911131C0803861F58091CC028093F1002F
:101D30001092F1008EEF8093E8006C960FB6F89445
:101D4000DEBF0FBECDBFDF91CF91FF91EF91BF916D
:101D5000AF919F918F917F916F915F914F913F9143
:101D60002F911F910F91FF90EF90DF90CF900F90E8
:101D70000FBE0F901F9018959EEF9093E800C7CF6D
:101D80001092F100D5CF913059F48111D3CF413069
:101D9000510581F68091CC028D7F8093CC02CACF11
:101DA000933049F48111C6CF4130510519F6809125
:101DB000CC028260F2CF953041F48091E80080FF40
:101DC000FCCF20682093E300B5CF963009F0A9C07E
:101DD0000B8D1C8D22E01092E9001092CA02109225
:101DE000C902F2122EC01092C8021092C7020E94BD
:101DF00014051F8299E09983FA8291E09E8390EA0C
:101E000098879AEF99872091C9023091CA02275F7B
:101E10003F4F3C832B838D831092E9001092CA02BE
:101E20001092C9021093C8020093C70249E050E023
:101E3000BE016F5F7F4F80E00E94EE040E94140598
:101E400079CF1093C8020093C7020E942B04DC01D3
:101E500012960D911C910115110509F451C1D8017B
:101E6000ED91FC910480F581E02DBE016B5E7F4F0A
:101E7000C8010995009709F03EC1F8010085118558
:101E8000EACFF3E0FF120EC08F89882309F440C027
:101E9000823061F440E860E184E597E00E9431110E
:101EA000811148CF81E28093EB0047CF813029F444
:101EB00040E86BE088E497E0F1CF833099F70E9427
:101EC0002B04DC011296ED90FC908E010F5F1F4FEA
:101ED0006801E114F10479F0D701ED91FC910680DD
:101EE000F781E02DB801C7010995080F111DF70111
:101EF000E084F184EECFD8011C92F601019000201D
:101F0000E9F73197BF016C197D0940E0C601C6CFE2
:101F100062E377E0FB01449150E080E80E94EE0428
:101F200009CF973009F4BECF983021F481E0809337
:101F3000F10000CF993009F0FDCE837009F0B2CFE7
:101F4000E0E2F1E081E031E096E32191222371F0BB
:101F50008093E9003093EB00DF0111972C912093DF
:101F6000EC009093ED008F5F873079F78EE78093D8
:101F7000EA001092EA008F898093DC02DBCE8B8D21
:101F80009C8D1092E9001092CA021092C90290939F
:101F9000C8028093C702898D811192C08E899D8964
:101FA000913A49F4813209F07DCF47E050E069E091
:101FB00071E080E0B3CF913209F074CF833269F4DD
:101FC0008F89988DB0E0A0E0809305019093060181
:101FD000A0930701B0930801ADCE803269F48091DF
:101FE000E80082FFFCCF67E089E091E00E944505B0
:101FF0008BEF8093E8009ECE823209F09BCE8F89D2
:1020000080931001EEEFFFE7859194918B3F9C4DFB
:1020100051F1E0E0F8E08091090190910A01A0916E
:102020000B01B0910C01803B9440A105B105F1F486
:102030008091100180FD1AC0EE3F8AE0F80789F513
:1020400087E797E791838083809160008093CB023C
:1020500088E19BE00FB6F894A895809360000FBECE
:102060009093600067CEEEEFFAE0D5CF808191814A
:102070008737974709F05ECEA89580916000886108
:10208000809360008091CB0280936000EE3F2AE055
:10209000F20789F08091FE0A9091FF0A9183808374
:1020A00049CE808191818737980751F29093FF0A3A
:1020B0008093FE0AC5CF1092FF0A1092FE0A3ACE14
:1020C0000E942B04DC0112960D911C910115110543
:1020D00009F4E8CED801ED91FC910190F081E02D5A
:1020E000BE016B5E7F4FC8010995811123CEF801B7
:1020F00000851185EBCF181619060CF41BCED2CE35
:10210000F1E0FF12BECE66E377E004CF1F920F929C
:102110000FB60F9211242F933F938F939F93AF93FA
:10212000BF938091BF029091C002A091C102B09173
:10213000C2023091BE0223E0230F2D3758F50196DD
:10214000A11DB11D2093BE028093BF029093C002D7
:10215000A093C102B093C2028091C3029091C402C5
:10216000A091C502B091C6020196A11DB11D809338
:10217000C3029093C402A093C502B093C602BF915C
:10218000AF919F918F913F912F910F900FBE0F9024
:102190001F90189526E8230F0296A11DB11DD2CFDE
:1021A0001F920F920FB60F9211242F933F934F93CC
:1021B0005F936F937F938F939F93AF93BF93EF93AF
:1021C000FF938091FC019091FD01A091FE01B091DF
:1021D000FF01892B8A2B8B2B09F440C08091FB01D6
:1021E00081110BC088B190E4892788B98091FA01E8
:1021F000882319F088B1805888B98091FC019091AA
:10220000FD01A091FE01B091FF01181619061A06F2
:102210001B069CF48091FC019091FD01A091FE01B0
:10222000B091FF010197A109B1098093FC0190933E
:10223000FD01A093FE01B093FF01FF91EF91BF91CB
:10224000AF919F918F917F916F915F914F913F914E
:102250002F910F900FBE0F901F9018950E947C0633
:10226000ECCFEF92FF920F931F93CF93DF93F82E53
:10227000192FE62E042F81E0860F880F0E94C004DC
:1022800083E00E94C004CF2DD12FEC0EFD2EF11C57
:10229000CE15DF05B9F007FF13C0FE0184910E943F
:1022A000C004182F80E00E94C00481232196811170
:1022B000EFCFDF91CF911F910F91FF90EF90089595
:1022C0008881EDCF81E0F5CF0F931F93CF93DF93FC
:1022D0008C01D0E0C0E0F801EC0FFD1F6491662393
:1022E00041F08DE397E00E944B08892B11F0219675
:1022F000F2CFCE01DF91CF911F910F9108958F9270
:102300009F92AF92BF920F931F93CF93DF93CDB75E
:10231000DEB7A1970FB6F894DEBF0FBECDBF19A2EE
:10232000423008F44AE08E010F5D1F4F842E912C3D
:10233000B12CA12CA50194010E94F920E62FB9012E
:10234000CA01EA3044F5E05DD801EE938D01232BFC
:10235000242B252B79F790E080E0109769F0FD01A0
:1023600001900020E9F73197AF014A1B5B0BBD01DB
:102370008DE397E00E943B06A1960FB6F894DEBF6E
:102380000FBECDBFDF91CF911F910F91BF90AF9046
:102390009F908F900895E95CD7CFEDEDF6E0138222
:1023A000128288EE93E0A0E0B0E084839583A68358
:1023B000B7838AE291E0918380838FEF9FEF9587C7
:1023C0008487EDE3F7E0138212828CE391E091833E
:1023D00080838EED93E090933C0780933B0780E0F1
:1023E00090E890933A078093390746983E9A479829
:1023F0003F9A0895CF93DF93CDB7DEB7A4970FB67A
:10240000F894DEBF0FBECDBF789484B5826084BDE2
:1024100084B5816084BD85B5826085BD85B58160E8
:1024200085BD80916E00816080936E001092810066
:102430008091810082608093810080918100816021
:1024400080938100809180008160809380008091E2
:1024500091008260809391008091910081608093CF
:102460009100809190008160809390008091C100E4
:1024700084608093C1008091C10082608093C1001C
:102480008091C10081608093C1008091C300816010
:102490008093C3008091C00082608093C0008091CF
:1024A000C20081608093C20080917A008460809332
:1024B0007A0080917A00826080937A0080917A001D
:1024C000816080937A0080917A00806880937A009E
:1024D0001092DC021092CC021092CE028091D700B2
:1024E00081608093D70080EA8093D80089B58061AD
:1024F00089BD89B5826089BD09B400FEFDCF61E068
:1025000070E080E090E00E9477058091D8008F7C99
:1025100080618093D8008091E000807F8093E0000C
:102520008091E1008E7E8093E1008DE08093E20057
:10253000559A209A81EC80937C0085B1806F85B993
:1025400084B1877E84B984B1876E84B95E9A5F98BE
:102550008AB1806D8AB9769A6E9881B3806F81BB9B
:10256000899880B38D7080BB80E58CBD81E08DBD86
:1025700085E090E00E9439075F9A85E090E00E9434
:1025800039075E985C98ECE5F6E089E696E02491E0
:102590002EBD00000DB407FEFDCF31968E179F07AC
:1025A000B1F75C9A81E88093640080916500816056
:1025B000809365000E94C40880E80E94B9088823BF
:1025C000A9F05C9885EA8EBD00000DB407FEFDCF32
:1025D0005C9A2E982F982D98809164008062809349
:1025E000640081E083BF889513BEFCCF84E00E9425
:1025F000B908882309F448C02D9884E80E94B908D6
:102600008823E1F00E94370788EC90E00E943907A8
:102610002F9882E090E00E94B1208F3F29F06FEF69
:1026200082E090E00E94B92084EF91E00E94390797
:102630002F9A84E80E94B9088111FBCF84E10E949F
:10264000B9088823E1F00E94370788EC90E00E94E7
:1026500039072E9882E090E00E94B120882329F06B
:1026600060E082E090E00E94B92084EF91E00E9457
:1026700039072E9A84E10E94B9088111FBCF88ECBA
:1026800090E00E943907B2CF0E94370782E090E0C5
:102690000E94D80C882309F475C00E94460781E087
:1026A00090E00E94D80C082F0470702E81FF13C098
:1026B00001112E9801EF1FEFB8E0EB2EF12C88E509
:1026C000682E80E40E94B908882309F460C02E9A1D
:1026D0002F9A0E94370782E390E00E9439070E94F8
:1026E0003E078111F8CF80E1809300018091640062
:1026F0008E7F8093640080917A00806480937A005A
:1027000080917A0086FDFCCF0091780010917900CD
:102710000E945205AB01BC01C801B0E0A0E0DC01A1
:10272000992788278C019D01040F151F261F371F2D
:10273000C901B801209164002160209364006115F3
:1027400071058105910511F00E94A8200E9446079D
:102750000E9436080E94C40864E670E080E090E0C1
:102760000E9477050E942F0680910302882309F4B6
:10277000D1C01092030280E090E0892B99F30E946F
:102780000000F0CF109200023E983F9888CF77204B
:1027900029F00430110511F42E9A2F9881E00E943F
:1027A000E103980117FF04C022273327201B310BB8
:1027B00027703327C80117FD0796A3E095958795E5
:1027C000AA95E1F717FF05C00197A701421B530B1C
:1027D0009A01BC017695762F6627779567956352A7
:1027E0007D4FB0E0A0E02701421A530A8E3F5FEF11
:1027F000950709F43FC06A9E50016B9EB00C1124EE
:1028000050E040E0F501E455FA4F5F014B01F0E87C
:102810008F0E911C8F3F980791F0F501E40FF51F83
:10282000E4916B01C40ED51EF0E01F01022E01C021
:10283000220C0A94EAF7F60134882328248A211509
:10284000310599F0F501E40FF51FE4916401C40E20
:10285000D51EF0E01F01042C02C0359427940A9481
:10286000E2F7F60134882328248A4F5F5F4F48350A
:10287000510581F6019660587F4F119709F047C0C6
:102880000E94C4088FE090E00E9439070F5F1F4F3D
:102890000931110509F015CF772011F02F9A2D98E5
:1028A00080E991E00E9439070E94370781E090E0BB
:1028B0000E94D80C80FF0FCF8AE090E00E94D80CD5
:1028C0009FEF980F9E3F08F006CF22E330E0309351
:1028D00008022093070228E330E030930602209399
:1028E00005020BE010E0682F8DE397E00E944B0893
:1028F000C8010E94D80C0F5F1F4F0131110599F7D5
:102900000E94C40888EE93E00E943907E4CEA1E05B
:10291000B0E06CCF80910402162F181B812F90918C
:102920000001191748F48F5F891708F024CF81E060
:1029300083BF889513BE1FCF11E0109303026093ED
:10294000040280910102909102020196909302028A
:102950008093010280911902809318020E943E0721
:10296000809319028091BC029091BD028230910542
:1029700011F40C94951E08F0C6C2009709F437C3F1
:10298000019709F0F8CE80E20E94B908882309F483
:102990008FC38DEC9CECACECBFEB80931402909356
:1029A0001502A0931602B09317028FEF80930301D4
:1029B00080E80E94AE088823B1F08091020188234C
:1029C00091F08FE892ECA5E1B0EC80931002909327
:1029D0001102A0931202B09313021092020188EB2D
:1029E00096E00E94240780E10E94B90880930F02BC
:1029F00088E00E94AE08882309F43FC0E2E2F2E0DA
:102A000090E080E0208521119BC329E0289F800170
:102A1000299F100D11240E5D1D4F81E0D8011896DD
:102A20008C9320E030E040E850E460911A0270910D
:102A30001B0280911C0290911D020E945921F801F5
:102A4000608371838283938320E030E040E050E430
:102A500060911E0270911F028091200290912102CC
:102A60000E945821D80114966D937D938D939C9369
:102A7000179782EB96E00E94240784E00E94AE083C
:102A80008823A9F080910101882389F090910E029A
:102A900091110DC091E090930E0298E790930D0272
:102AA00081508093010188EA96E00E9424072091DA
:102AB0001402309115024091160250911702609154
:102AC0001A0270911B0280911C0290911D020E94BB
:102AD00059216B017C0120E030E040E051EC0E9484
:102AE000C52187FD34C3C0921A02D0921B02E09226
:102AF0001C02F0921D0220E030E040E053E46091BF
:102B00001A0270911B0280911C0290911D020E947A
:102B1000B222181664F480E090E0A0E0B1EC80935B
:102B20001A0290931B02A0931C02B0931D022DEC7D
:102B30003CEC4CEC5DE360911002709111028091CD
:102B40001202909113020E94592160931002709317
:102B50001102809312029093130220910F022223FC
:102B600071F02AE939E949E95EE30E94592160934D
:102B7000100270931102809312029093130220E0CE
:102B800030E040E650E460911002709111028091B3
:102B90001202909113020E94B222181664F480E08F
:102BA00090E0A0E6B0E48093100290931102A0930D
:102BB0001202B09313028090100290901102A09024
:102BC0001202B090130220911E0230911F02409118
:102BD000200250912102C501B4010E9459216B01CC
:102BE0007C01C0921E02D0921F02E0922002F0925D
:102BF000210220E030E0A901C501B4010E94B22207
:102C000018160CF084C020E030E040E850E46091F9
:102C10001A0270911B0280911C0290911D020E9469
:102C200059214B015C0120E030E040E051E4C70154
:102C3000B6010E9459212B013C0104E612E0DD247B
:102C4000D394F8018681882309F45AC087818111C1
:102C500057C0E080F180B7010F2C000C880B990B56
:102C60000E9402229B01AC01C501B4010E94B22264
:102C700018160CF045C0B7016E5E7F4F072E000C92
:102C8000880B990B0E9402229B01AC01C501B40183
:102C90000E94C52187FF34C0D8011296ED90FC90A8
:102CA000B7010F2C000C880B990B0E9402229B018C
:102CB000AC01C301B2010E94B22218160CF5B70193
:102CC000675F7F4F072E000C880B990B0E94022232
:102CD0009B01AC01C301B2010E94C52187FF10C056
:102CE000F801C580F2E0CF123FC280910F0281113E
:102CF0003BC2D8011796DC9282EA96E00E94240734
:102D0000085F1F4F92E0043B190709F09ACF8091AA
:102D10000E02882349F080910D02815080930D02AC
:102D2000811102C010920E028091BC029091BD02EE
:102D3000019709F020CDC0901E02D0901F02E090B4
:102D40002002F090210220E030E040EC51E4C70185
:102D5000B6010E94C52187FF91C0C701B6010E943C
:102D6000CA2108E110E0061B170B80E090E0A0EC00
:102D7000B1E480931E0290931F02A0932002B093AF
:102D80002102E4E6F2E08681882331F0828193819A
:102D9000800F911F938382833896A2E0E43BFA0769
:102DA00091F752E2E52E52E0F52E66E4C62E62E07F
:102DB000D62E4801012E000CAA08BB08F701808519
:102DC0008823A1F0C501B4010E9402229B01AC013D
:102DD000D70114966D917D918D919C9117970E94CA
:102DE0005921F7016483758386839783F9E0EF0E99
:102DF000F11CCE14DF0411F746E4E42E42E0F42E79
:102E00004801012E000CAA08BB08D70119968C9125
:102E10008823A1F0C501B4010E9402229B01AC01EC
:102E2000F70164817581868197810E945921D701BC
:102E300014966D937D938D939C931797BAE0EB0E48
:102E4000F11CE4E6EE16E2E0FE06F9F6C801110F09
:102E5000AA0BBB0B0091B8021091B9022091BA02E3
:102E60003091BB02800F911FA21FB31F8093B80245
:102E70009093B902A093BA02B093BB0210910401DF
:102E800088EC90E0112371F080ED97E0163050F45B
:102E9000212F2150330BF901EE0FFF1FEB5EFE4F88
:102EA000808191814091B8025091B9026091BA023B
:102EB0007091BB02B0E0A0E0481759076A077B0792
:102EC00008F48FC1153008F483C183E090E090933B
:102ED000BD028093BC028091B4029091B502A09192
:102EE000B602B091B70284179507A607B70740F45A
:102EF0004093B4025093B5026093B6027093B70248
:102F000080ED96E0D2C08330910509F4A7C70497FD
:102F100009F031CC0E94360864E070E08AED91E05F
:102F20000E946E0C1F9285E08F93809104011F9286
:102F30008F9385EE91E09F938F931F9288E18F93FB
:102F40008E010F5F1F4F1F930F930E9424236EE08B
:102F500070E0C8010E946E0C4091B8025091B90215
:102F60006091BA027091BB0228E130E080E991E003
:102F70000E949F0C4091B4025091B5026091B6023C
:102F80007091B70222E230E089EC91E00E949F0C40
:102F900021E043E06EE270E080E490E00E94AE0940
:102FA00040E06DE270E08FE390E00E944C0740E06B
:102FB0006DE270E081E490E00E944C0701E02FE2B6
:102FC00030E041E450E060E370E08FE390E00E9485
:102FD00012090E942F0620E931E040E050E00E94F3
:102FE000F9200FB6F894DEBF0FBECDBFA6C70E9472
:102FF000360864E170E082E090E00E94A30B64E197
:1030000070E088E690E00E94A30B0E942F0628EC57
:1030100030E040E050E00E94F92023703327B901EE
:10302000665E7F4F8CE390E00E94450A62E070E0AC
:103030008AE491E00E946E0C66E270E087E591E020
:103040000E946E0C6EE270E087E691E00E946E0CCA
:103050000E942F0620E931E040E050E00E94F92074
:1030600020FD06C067E370E089E791E00E946E0CE6
:103070000E94C40888E00E94AE08882309F47BCB34
:103080001092B8021092B9021092BA021092BB02CA
:1030900081E0809304010E94F40C81E090E0909321
:1030A000BD028093BC0282EE96E00E94240763CBAF
:1030B00080E40E94B908882379F08DEC9CECACEC9C
:1030C000BFE38093140290931502A0931602B0936D
:1030D0001702109303016CCC2DEC3CEC4CE45FE345
:1030E000609114027091150280911602909117025E
:1030F0000E94B7226B017C01C0921402D09215028B
:10310000E0921602F09217022DEC3CEC4CE45DEBE1
:103110000E94B22218160CF04BCC2DEC3CEC4CE487
:103120005DE3C701B6010E94C52187FF41CC109223
:10313000140210921502109216021092170238CC47
:10314000019639968430910509F05CCC96CC80E0EC
:1031500090E0A0E0B3E480931A0290931B02A09346
:103160001C02B0931D02C7CCB70168507109072E2D
:10317000000C880B990B0E94022260931E02709330
:103180001F028093200290932102D0920201B3E0AB
:10319000CB120FC02FE832EC45E950EC209310021F
:1031A00030931102409312025093130284E996E087
:1031B000A5CD86E696E6A6E2B0EC80931002909349
:1031C0001102A0931202B09313028EE896E096CDFE
:1031D00082E090E09093BD028093BC0282EC96E086
:1031E00064CF44E652E05A8F498F1A014EE650E010
:1031F0003FEF61E0D10116968C9116978823E1F09C
:1032000014962C9114972223B9F08D919C911197CB
:10321000820F911D27FD9A9597FD7CC18D939C93FC
:10322000D1018D919C9111978F3691052CF01196BB
:103230005C934E9314963C93B8E02B0E311CE4EB58
:103240002E16E2E03E06B1F622E232E03CA32BA3CA
:103250003E8F2D8FAD8DBE8D18968C91189788233B
:10326000F1F020E030E040E650E414966D917D915D
:103270008D919C9117970E945821ED8DFE8D64834E
:1032800075838683978320E030E040E850EC0E940D
:10329000C52187FF04C0AD8DBE8D18961C92ED8DA3
:1032A000FE8D3996FE8FED8FE654F24099F612307E
:1032B00008F451C0212F2250330BC90128E13CEF03
:1032C000829F6001839FD00C929FD00C112438EA1A
:1032D000C31A34EED30A0D2C000CEE08FF080E942E
:1032E0002F060091090210910A0220910B023091E1
:1032F0000C02601B710B820B930B48EBC4164BE066
:10330000D406E104F10430F428EBC22E2BE0D22ED7
:10331000E12CF12CC616D706E806F906E0F40E9467
:103320002F066093090270930A0280930B02909318
:103330000C0280914F02882309F4F1C08091590258
:10334000882309F424C18091630292E0E92EF12CD4
:10335000882309F4E6C006E412E01AA309A3D80101
:1033600019968C911997882309F4CCC018966C9102
:10337000062E000C770B880B990B0E940222F80195
:1033800020813181428153810E9459216B017C014E
:1033900020E030E0A9010E94C52187FDFEC0D801D0
:1033A000CD92DD92ED92FC92139720E030E040EF59
:1033B00052E4D8016D917D918D919C910E94B22231
:1033C00018165CF480E090E0A0EFB2E4F80180838E
:1033D0009183A283B3832FEF208723E333E343EB6F
:1033E0005EE3D80114966D917D918D919C91179714
:1033F0000E9459216B017C01F801C482D582E682CA
:10340000F78220E030E040E952E40E94B222181630
:103410001CF4D80119961C92F8018185882309F4BF
:1034200071C080901A0290901B02A0901C02B09074
:103430001D02408051806280738020E030E040E0D7
:1034400051E4C501B4010E945921A30192010E94D7
:10345000B22218160CF056C020E030E040E051E4F3
:10346000C301B2010E9459219B01AC01C501B40105
:103470000E94C52187FF46C080901E0290901F02C7
:10348000A0902002B090210220E030E040E051E422
:10349000C501B4010E9459219B01AC01C701B601CD
:1034A0000E94C52187FF2EC020E030E040EC50E4B0
:1034B000C701B6010E9459219B01AC01C501B401AD
:1034C0000E94C52187FF1EC08091B8029091B90269
:1034D000A091BA02B091BB0220910E02222309F4FE
:1034E00064C0F80111864496A11DB11D8093B802F5
:1034F0009093B902A093BA02B093BB0284E896E01D
:103500000E942407065F1F4FF2E004361F0709F0F0
:1035100026CF6AC0F10111821082648381CEF12C22
:10352000E12C8AE08E9D80018F9D100D11240A5B95
:103530001D4F81E0D80119968C9368E770E080E018
:1035400090E00E94DA0C0E940222F80160837183ED
:103550008283938380E090E0A0E0B1EC8483958344
:10356000A683B78362E070E080E090E00E94DA0C0E
:10357000672B682B692B79F081E09AE09E9DF00122
:103580009F9DF00D1124EA5BFD4F8087E4CEEE2471
:10359000E394F12CC6CF8FEFF0CFF80110821182A7
:1035A0001282138221E0208700CF24E030E03093A4
:1035B000BD022093BC024091B4025091B5026091CB
:1035C000B6027091B702481759076A077B0740F4A3
:1035D0008093B4029093B502A093B602B093B70261
:1035E00082E796E00E9424078091BC029091BD0280
:1035F000019709F0C0C802E212E018A30F8F0AE099
:10360000D02EAF8DB8A118968C91882309F474C080
:1036100006E412E0F12CE12CF8018185882309F4FD
:10362000B2C2AF8DB8A18D909D90AD90BC904080FE
:10363000518062807380A3019201C501B4010E9490
:10364000B22218160CF09FC220E030E040E051E4B6
:10365000C301B2010E9459219B01AC01C501B40113
:103660000E94C52187FF8FC2EF8DF8A184809580CD
:10367000A680B780D80114964D905D906D907C9097
:103680001797A3019201C501B4010E94B222181636
:103690000CF079C220E030E040EC50E4C301B2010C
:1036A0000E9459219B01AC01C501B4010E94C521B2
:1036B00087FF69C2EF8DF8A11086DE9CF001DF9CC8
:1036C000F00D1124EA5BFD4F11868091B8029091B4
:1036D000B902A091BA02B091BB024496A11DB11DDE
:1036E0008093B8029093B902A093BA02B093BB0240
:1036F00084E896E00E9424074F8D58A1475F5F4FF2
:1037000058A34F8F0D8D1E8D0417150709F079CF23
:1037100014E6A12E12E0B12ED50116968C911697C3
:10372000882349F012968D919C91139787349105C7
:1037300014F016961C92B8E0AB0EB11C2A143B0490
:1037400059F7E4E6F2E0B0E4CB2ED12C8681882351
:1037500031F0828193818C159D050CF46C013896B3
:10376000AE16BF0699F77DE0872E912C77247394CF
:10377000E7E05E2EF3E06F2EA2E04A2EECEFCE16CD
:10378000EFEFDE06A4F0F1E08F1A910881F0E4E695
:10379000F2E0F12CE12C8681882309F4E5C30FEFD8
:1037A000E01AF00A38961AE0E116F104A1F720E0D9
:1037B00030E048E852E460911E0270911F0280914F
:1037C0002002909121020E94B22218163CF584E05A
:1037D00090E09093BD028093BC028091B8029091DA
:1037E000B902A091BA02B091BB024091B4025091CB
:1037F000B5026091B6027091B702481759076A077F
:103800007B0740F48093B4029093B502A093B60274
:10381000B093B70282E796E00E9424078091BC0231
:103820009091BD02019711F00C94BB130E943608D1
:103830006091B8027091B9028091BA029091BB0276
:1038400052E096958795779567955A95D1F728E236
:1038500030E040E050E00E94F9206B0104E010E00D
:10386000B801660F771F600F711F6C0D7D1D6F73A0
:1038700077276B30710524F041E0C8010E9464078E
:10388000005F1F4F0438110559F741E06EE070E00A
:1038900084E190E00E944C0741E06EE170E080E539
:1038A00090E00E944C0741E062E170E080E790E028
:1038B0000E944C07A98DBA8D16968C911697882375
:1038C000D1F11296ED90FC901397C70108968D34B4
:1038D000910588F5CD90DC90119717968C918823EF
:1038E00009F485C121E043E0B701C60102960E94B8
:1038F000AE09B7016250710921E043E0C6010996A3
:103900000E94AE09B7016F5F7F4F21E043E0C6011F
:103910000F960E94AE09B7016D5F7F4F41E0C6016F
:1039200005960E946407B7016450710941E0C60121
:103930000C960E946407898D9A8D08969A8F898FBC
:103940008A159B0509F0B6CFA9A1BAA119968C9149
:103950001997882309F44CC014966D917D918D912F
:103960009C9117970E94CA21698F7A8F8B8F9C8FA9
:10397000E9A1FAA160817181828193810E94CA21AB
:103980002B01C98CDA8CF2E0CF0ED11CCB01029650
:1039900001E022E044E0B6010E94F0080E942F06F8
:1039A000420103E0800E911C520118E0A10EB11CEF
:1039B000120125E0220E311C26E930E040E050E003
:1039C0000E94F92020FF9CC101E09601A401698DAD
:1039D0007A8DC2010E941209298D3A8DA501B60186
:1039E000C1010E94120940E0B601C1010E946407B2
:1039F00049A15AA1465F5F4F5AA349A3445652407A
:103A000009F0A2CFABA1BCA118968C91189788237E
:103A1000B9F014966D917D918D919C9117970E94AC
:103A2000CA216B01EBA1FCA160817181828193812C
:103A30000E94CA21CB0121E041E0B6010E94AE09FB
:103A40000BA11CA1075F1F4F1CA30BA32F8D38A137
:103A500002171307B9F660911E0270911F02809140
:103A60002002909121020E94CA216B0160911A02EA
:103A700070911B0280911C0290911D020E94CA212C
:103A8000CB01B6010E94450A00E028E040E870E062
:103A900060E090E080E00E94F00801E028E030E083
:103AA0004FE750E068E070E090E080E00E9412098B
:103AB000109208021092070210920602109205025C
:103AC00080E796E00E9464116091040170E090E04C
:103AD00080E04AE00E947F118EE696E00E94641129
:103AE0006091B8027091B9028091BA029091BB02C4
:103AF0004AE00E947F118CE696E00E946411E091FA
:103B0000040168EC70E0EE2361F060ED77E0E630F0
:103B100040F4E150FF0BEE0FFF1FEB5EFE4F6081A4
:103B2000718190E080E04AE00E947F1180E690E0A1
:103B300090930802809307021092060210920502E9
:103B400089E696E00E94641120E7E22EF12C10E055
:103B500000E0809101018017110609F00CF4DEC02D
:103B600021E042E064E070E0C7010E94AE090F5F0F
:103B70001F4F35E0E30EF11C0330110551F70E9491
:103B8000C4080C94BB13FFEFEF1AFF0A065F1F4F28
:103B900023E0E216F10409F03FCDAECDF8016582D5
:103BA0001EC2959D202D11242250621720F4D801A9
:103BB00015964C9214C270E0892F880F880F890FD8
:103BC000865F820F9927991F681779071CF4F801FF
:103BD000758205C205966817790724F4D8011596F1
:103BE0006C92FDC1F8011582FAC18FEF11C2E98D07
:103BF000FA8D1581B701C6010E94A30B123079F12D
:103C0000133009F452C0113009F095CE87010E5FD0
:103C10001F4F41E0B801C60103970E94640741E0CD
:103C2000B801C60104970E94640741E0B801C601CB
:103C300044960E94640741E0B801C60145960E947F
:103C40006407FFEFEF1AFF0A40E0B701C6010596CF
:103C50000E94640740E0B701C6010D966ACE460196
:103C600009E0800E911C370112E0611A710800E032
:103C70009701A401B301C60106960E941209A6018C
:103C8000445F5F4F9301B701C4010E941209B7015D
:103C90006F5F7F4F40E0C4010E946407B70161502D
:103CA000710940E0C601079644CE460127E0820E26
:103CB000911CB7016650710901E023E044E0C401A2
:103CC0000E94F00887010750110939E0C30ED11C8A
:103CD00021E043E0B801C6010E94AE0920E042E0C5
:103CE000B801C6010E94AE0948E0E41AF10841E0BB
:103CF000B701C6010E94640741E0B701C40119CEB3
:103D0000E98CFA8C33E0E30EF11C01E09601A4018A
:103D1000B701C2010E941209970160CE42E064E03F
:103D200070E0C7010E946D0722CF0E943608809183
:103D300004011F928F9381E891E09F938F931F92CC
:103D400088E18F938E010F5F1F4F1F930F930E9487
:103D5000242364E070E0C8010E946E0C4091B80218
:103D60005091B9026091BA027091BB0226E130E035
:103D700080E991E00E949F0CE09104010FB6F89455
:103D8000DEBF0FBECDBF50E040E0E53038F4F0E0DC
:103D9000EE0FFF1FEB5EFE4F4081518170E060E04F
:103DA00020E230E088E991E00E949F0CC12CD12CE8
:103DB000760117E00CE00E942F0628EC30E040E08E
:103DC00050E00E94F9202C0D3D1D4E1D5F1D20FD71
:103DD00012C01C9DB0011D9D700D112463707727CA
:103DE000625D7F4F0C9DC0010D9D900D112441E03F
:103DF00008960E9464075FEFC51AD50AE50AF50A1E
:103E00008AE0C816D104E104F104A9F60E942F0645
:103E100020E931E040E050E00E94F92020FD06C09A
:103E200068E370E080EA91E00E946E0C0E94C40892
:103E300088E00E94AE08882311F40C94BB13809193
:103E400004018F5F809304010E94F40C81E090E0F4
:103E50009093BD028093BC020C94BB130E94360861
:103E600064E070E08DEA91E00E946E0C60E170E029
:103E700086EB91E00E946E0C4091B8025091B9021D
:103E80006091BA027091BB022CE130E080E991E0D0
:103E90000E949F0C4091B4025091B5026091B6020D
:103EA0007091B70226E230E089EC91E00E949F0C0D
:103EB000C12CD12C760115E009E00E942F0626E9DD
:103EC00030E040E050E00E94F920CA01B9016C0DD9
:103ED0007D1D8E1D9F1D23E030E040E050E00E94DC
:103EE000F920672B682B692BA9F41C9DC0011D9D2F
:103EF000900D112466E070E00E942A21BC016E5CE6
:103F00007F4F0C9DC0010D9D900D112441E0049642
:103F10000E9464079FEFC91AD90AE90AF90AAEE0BC
:103F2000CA16D104E104F10441F60E942F0620E9EB
:103F300031E040E050E00E94F92020FD06C068E337
:103F400070E081ED91E00E946E0C0E94C40884E054
:103F50000E94AE08882311F40C94BB131092BD028A
:103F60001092BC020C94BB1366E070E080E090E01D
:103F70000E94DA0C645F7F4F8F4F9F4FC61AD70A9B
:103F8000870183E0000F111F8A95E1F70C591D4F3F
:103F9000D80116967C92169717961C9266E670E0EA
:103FA00080E090E00E94DA0C6C5F7F4F8F4F9F4F54
:103FB000F80171836083D382C282148264E670E068
:103FC00080E090E00E94DA0C90910401913009F0B9
:103FD000E8CD653508F0E2CDD80115961C92870131
:103FE00063E0000F111F6A95E1F7F801EC59FD4FEE
:103FF0008581813009F0C2CB62E070E080E090E022
:104000000E94DA0C672B682B692B09F4EECD81E056
:10401000F801EC59FD4F8483B1CB8F929F92AF9200
:10402000BF92CF92DF92EF92FF92CF93DF93EC019A
:10403000688179818A819B8161157105810591056E
:1040400021F464E279ED8BE597E02DE133EF41E077
:1040500050E00E94C72049015A019B01AC01A7EA28
:10406000B1E40E94E6206B017C01ACEEB4EFA50147
:1040700094010E94F420C60ED71EE81EF91EF7FE1A
:1040800006C081E0C81AD108E10880E8F80AC882B1
:10409000D982EA82FB82C701B6019F77DF91CF9177
:1040A000FF90EF90DF90CF90BF90AF909F908F9058
:1040B00008958F929F92AF92BF92CF92DF92EF922C
:1040C000FF92609111017091120180911301909102
:1040D0001401611571058105910521F464E279ED02
:1040E0008BE597E02DE133EF41E050E00E94C720DF
:1040F00049015A019B01AC01A7EAB1E40E94E62004
:104100006B017C01ACEEB4EFA50194010E94F42098
:10411000C60ED71EE81EF91EF7FE06C081E0C81ABB
:10412000D108E10880E8F80AC0921101D09212018A
:10413000E0921301F0921401C701B6019F77FF903E
:10414000EF90DF90CF90BF90AF909F908F900895A9
:1041500060931101709312018093130190931401E5
:104160000895F999FECF92BD81BDF89A992780B53F
:104170000895262FF999FECF1FBA92BD81BD20BDAB
:104180000FB6F894FA9AF99A0FBE01960895052E83
:1041900097FB1EF400940E94DE2057FD07D00E947A
:1041A000F92007FC03D04EF40C94DE205095409586
:1041B000309521953F4F4F4F5F4F089590958095D3
:1041C000709561957F4F8F4F9F4F08950E941B21DF
:1041D000A59F900DB49F900DA49F800D911D11245B
:1041E0000895B7FF0C94E6200E94E620821B930BF3
:1041F0000895A1E21A2EAA1BBB1BFD010DC0AA1F28
:10420000BB1FEE1FFF1FA217B307E407F50720F03F
:10421000A21BB30BE40BF50B661F771F881F991FBA
:104220001A9469F760957095809590959B01AC0103
:10423000BD01CF010895A29FB001B39FC001A39F0C
:10424000700D811D1124911DB29F700D811D1124CF
:10425000911D089597FB072E16F4009407D077FD63
:1042600009D00E943E2107FC05D03EF4909581952F
:104270009F4F0895709561957F4F0895AA1BBB1BB2
:1042800051E107C0AA1FBB1FA617B70710F0A61B56
:10429000B70B881F991F5A95A9F780959095BC0177
:1042A000CD010895EE0FFF1F0590F491E02D0994C4
:1042B0005058BB27AA270E9470210C9478220E9494
:1042C0006A2238F00E94712220F039F49F3F19F4DD
:1042D00026F40C9467220EF4E095E7FB0C9461221F
:1042E000E92F0E94892258F3BA17620773078407DF
:1042F000950720F079F4A6F50C94AB220EF4E09526
:104300000B2EBA2FA02D0B01B90190010C01CA018F
:10431000A0011124FF27591B99F0593F50F4503E3A
:1043200068F11A16F040A22F232F342F4427585F2C
:10433000F3CF469537952795A795F0405395C9F744
:104340007EF41F16BA0B620B730B840BBAF09150FC
:10435000A1F0FF0FBB1F661F771F881FC2F70EC09B
:10436000BA0F621F731F841F48F48795779567956E
:10437000B795F7959E3F08F0B0CF9395880F08F05A
:104380009927EE0F9795879508950E943D2208F48E
:1043900081E008950E94D1216894B1110C94AC225F
:1043A00008950E94912288F09F5798F0B92F99277D
:1043B000B751B0F0E1F0660F771F881F991F1AF010
:1043C000BA95C9F714C0B13091F00E94AB22B1E0A8
:1043D00008950C94AB22672F782F8827B85F39F0A7
:1043E000B93FCCF3869577956795B395D9F73EF4A9
:1043F00090958095709561957F4F8F4F9F4F089551
:10440000E89409C097FB3EF490958095709561956E
:104410007F4F8F4F9F4F9923A9F0F92F96E9BB2724
:104420009395F695879577956795B795F111F8CFA0
:10443000FAF4BB0F11F460FF1BC06F5F7F4F8F4F0B
:104440009F4F16C0882311F096E911C0772321F001
:104450009EE8872F762F05C0662371F096E8862F99
:1044600070E060E02AF09A95660F771F881FDAF7F0
:10447000880F9695879597F90895990F0008550F1D
:10448000AA0BE0E8FEEF16161706E807F907C0F0DA
:1044900012161306E407F50798F0621B730B840BE2
:1044A000950B39F40A2661F0232B242B252B21F4BC
:1044B00008950A2609F4A140A6958FEF811D811D5C
:1044C000089597F99F6780E870E060E008959FEF96
:1044D00080EC089500240A9416161706180609069B
:1044E000089500240A94121613061406050608956A
:1044F000092E0394000C11F4882352F0BB0F40F4F2
:10450000BF2B11F460FF04C06F5F7F4F8F4F9F4F31
:10451000089557FD9058440F551F59F05F3F71F0B3
:104520004795880F97FB991F61F09F3F79F087951A
:104530000895121613061406551FF2CF4695F1DFA3
:1045400008C0161617061806991FF1CF8695710533
:10455000610508940895E894BB2766277727CB0167
:1045600097F908950E943D2208F48FEF08950E9464
:10457000CA220C9478220E946A2238F00E9471228A
:1045800020F0952311F00C9461220C9467221124E1
:104590000C94AC220E94892270F3959FC1F3950F71
:1045A00050E0551F629FF001729FBB27F00DB11DB7
:1045B000639FAA27F00DB11DAA1F649F6627B00D47
:1045C000A11D661F829F2227B00DA11D621F739F30
:1045D000B00DA11D621F839FA00D611D221F749F3E
:1045E0003327A00D611D231F849F600D211D822F85
:1045F000762F6A2F11249F5750409AF0F1F08823AC
:104600004AF0EE0FFF1FBB1F661F771F881F9150D8
:104610005040A9F79E3F510580F00C9461220C9404
:10462000AC225F3FE4F3983ED4F386957795679587
:10463000B795F795E7959F5FC1F7FE2B880F911D02
:104640009695879597F90895AEE0B0E0EAE2F3E237
:104650000C94E0250D891E898F89988D26E02C8386
:104660001A83098397FF02C080E090E801979E8338
:104670008D83AE01455E5F4F698D7A8DCE010196C7
:104680000E9454234D815E8157FD0AC02F813885D9
:10469000421753070CF49A01020F131FF8011082FE
:1046A0002E96E4E00C94FC25ABE0B0E0EAE5F3E202
:1046B0000C94D2257C013B018A01FC0117821682F1
:1046C000838181FFC8C1CE0101965C01F70193810E
:1046D000F30193FD859193FF81913F01882309F4B4
:1046E00053C1853239F493FD859193FF81913F0148
:1046F000853229F4B70190E00E944425E7CF912C40
:10470000212C312CFFE1F31538F08B3211F190F4AC
:10471000803209F1833229F137FC3CC020ED280FAB
:104720002A3050F536FE20C08AE0989E200D1124D4
:10473000922E06C08D3291F0803371F7689430F874
:10474000F30193FD859193FF81913F018111DACFB0
:1047500021C0689431F8689432F8F2CF689433F845
:10476000EFCF689434F8ECCFEAE02E9E200D1124B0
:10477000222E689435F8E4CF8E3229F436FC04C139
:10478000689436F8DDCF8C3619F4689437F8D8CFB2
:104790008836B1F2982F9F7D95549330E0F08336A0
:1047A000A1F18337C1F1833509F063C02801F2E03C
:1047B0004F0E511CF801C080D180692D70E036FC8D
:1047C00002C06FEF7FEFC6010E942E254C01689456
:1047D00037F882010AC00C5F1F4FFFE3F98388247A
:1047E0008394912C6501E89437F833FE2DC0522C48
:1047F0008114910471F5552009F468CFB70180E266
:1048000090E00E9444255A94F6CFF8018081898374
:104810000E5F1F4FE4CF2801F2E04F0E511CF8014C
:10482000C080D180692D70E036FC02C06FEF7FEF51
:10483000C6010E9439254C018201D5CFB70180E223
:1048400090E00E9444252A942814190409F0B0F736
:10485000CECFF60137FC859137FE81916F01B7010C
:1048600090E00E94442551105A94F1E08F1A91086B
:10487000BFCF843619F0893609F077C0F80137FECA
:104880006BC060817181828193810C5F1F4FF32D1A
:10489000FF763F2E97FF09C09095809570956195A2
:1048A0007F4F8F4F9F4F689437F82AE030E0A50183
:1048B0000E947425C82ECA188C2C432C36FE0CC0BE
:1048C000E89440F8C91440F434FE05C032FC03C03B
:1048D000F32DFE7E4F2E892C44FE95C0FE01EC0D7B
:1048E000F11D8081803309F087C0242D297E422E5E
:1048F000842D8870582E43FC95C040FE8FC09C2CA0
:10490000821418F42C0C922C981844FE91C0B70114
:1049100080E390E00E94442542FE09C088E790E0D1
:1049200041FE02C088E590E0B7010E944425C91409
:1049300008F48AC0CA94D12C9FEFC91AD90ACA0CAC
:10494000DB1CF60182916F01B70190E00E944425C3
:10495000AC14BD04B1F74FCF60817181072E000CFC
:10496000880B990B0E5F1F4F92CFD32CE894D4F88D
:104970002AE030E0853739F1232D297FD22E8F367A
:1049800001F148F48835A9F0F701868197812B96CB
:10499000E2E10C94EE25803749F08837A9F7D4FE80
:1049A00002C06894D2F820E130E00DC06894D4F8D9
:1049B000F6CF34FE03C0822F8660D82E20E132E08D
:1049C00002C028E030E0F801D7FE0FC0608171819D
:1049D000828193810C5F1F4FA5010E947425C82E10
:1049E000CA183D2CE89437F867CF6081718190E058
:1049F00080E00E5F1F4FF0CF42FC02C0839478CF5F
:104A00008394839475CF842D867809F471CFF6CF83
:104A1000B70180E290E00E94442583948214C0F3A1
:104A2000512C73CF522C5818821408F46ECFF8CF43
:104A3000842D867809F47BCF8BE241FE80E247FC2F
:104A40008DE2B70190E071CFB70180E390E00E9462
:104A500044259A946CCF8FEF9FEF99CFFC0105907E
:104A6000615070400110D8F7809590958E0F9F1F70
:104A70000895FC016150704001900110D8F78095B5
:104A800090958E0F9F1F08950F931F93CF93DF93E1
:104A9000182F092FEB018B8181FD09C01FEF0FEF4C
:104AA000812F902FDF91CF911F910F91089582FF59
:104AB00014C02E813F818C819D81281739073CF4D9
:104AC000E881F981CF0101969983888310838E81D3
:104AD0009F8101969F838E83E3CFE885F985812F9F
:104AE0000995892BA1F3DACFFA01AA27283051F1D1
:104AF000203181F1E8946F936E7F6E5F7F4F8F4F0F
:104B00009F4FAF4FB1E03ED0B4E03CD0670F781F6D
:104B1000891F9A1FA11D680F791F8A1F911DA11D52
:104B20006A0F711D811D911DA11D20D009F468948B
:104B30003F912AE0269F11243019305D3193DEF633
:104B4000CF010895462F4770405D4193B3E00FD0E9
:104B5000C9F7F6CF462F4F70405D4A3318F0495DD4
:104B600031FD4052419302D0A9F7EACFB4E0A695B7
:104B70009795879577956795BA95C9F700976105D9
:104B8000710508959B01AC010A2E0694579547952F
:104B900037952795BA95C9F7620F731F841F951F24
:104BA000A01D08952F923F924F925F926F927F9235
:104BB0008F929F92AF92BF92CF92DF92EF92FF922D
:104BC0000F931F93CF93DF93CDB7DEB7CA1BDB0BD9
:104BD0000FB6F894DEBF0FBECDBF09942A8839887E
:104BE00048885F846E847D848C849B84AA84B98485
:104BF000C884DF80EE80FD800C811B81AA81B98191
:104C0000CE0FD11D0FB6F894DEBF0FBECDBFED01A4
:064C10000895F894FFCFA7
:104C16001003010101FFFFFFFF00E100000000009B
:104C26000001000000C800F40184037805D00700E5
:104C3600C18081000000000000003F04AA05600456
:104C46005504A60464048204000000004B083B06D9
:104C56006B0C6A0C2573256C7500434C4F5544202C
:104C66004A554D5045520035206C6576656C73206B
:104C7600746F2077696E00413D73686F6F742020F2
:104C8600423D736869656C64005052455353204138
:104C9600004C4556454C20256420444F4E45210086
:104CA60053636F72653A20004E6578743A2020008F
:104CB60041202D20636F6E74696E756500594F55DE
:104CC6002057494E2100416C6C2035206C65766575
:104CD6006C7320636C65617200426573743A2020C0
:104CE6000042202D206D656E750046454C4C2044D3
:104CF6004F574E21004C6576656C2025642F256440
:024D06000000AB
:00000001FF
